{
  "address": "0x9d40ca58ef5392a8fb161ab27c7f61de5dfbf0e2",
  "abi": [
    {
      "inputs": [],
      "stateMutability": "nonpayable",
      "type": "constructor"
    },
    {
      "inputs": [],
      "name": "EnforcedPause",
      "type": "error"
    },
    {
      "inputs": [],
      "name": "ExpectedPause",
      "type": "error"
    },
    {
      "inputs": [],
      "name": "InvalidCounterparty",
      "type": "error"
    },
    {
      "inputs": [
        {
          "internalType": "address",
          "name": "factoryInParams",
          "type": "address"
        }
      ],
      "name": "InvalidFactoryInParams",
      "type": "error"
    },
    {
      "inputs": [],
      "name": "InvalidImplementation",
      "type": "error"
    },
    {
      "inputs": [],
      "name": "InvalidInitialization",
      "type": "error"
    },
    {
      "inputs": [
        {
          "internalType": "address",
          "name": "vault",
          "type": "address"
        }
      ],
      "name": "InvalidVault",
      "type": "error"
    },
    {
      "inputs": [],
      "name": "NotInitializing",
      "type": "error"
    },
    {
      "inputs": [
        {
          "internalType": "address",
          "name": "owner",
          "type": "address"
        }
      ],
      "name": "OwnableInvalidOwner",
      "type": "error"
    },
    {
      "inputs": [
        {
          "internalType": "address",
          "name": "account",
          "type": "address"
        }
      ],
      "name": "OwnableUnauthorizedAccount",
      "type": "error"
    },
    {
      "anonymous": false,
      "inputs": [
        {
          "indexed": true,
          "internalType": "address",
          "name": "beacon",
          "type": "address"
        },
        {
          "indexed": true,
          "internalType": "address",
          "name": "implementation",
          "type": "address"
        }
      ],
      "name": "BeaconCreated",
      "type": "event"
    },
    {
      "anonymous": false,
      "inputs": [
        {
          "indexed": true,
          "internalType": "address",
          "name": "oldImplementation",
          "type": "address"
        },
        {
          "indexed": true,
          "internalType": "address",
          "name": "newImplementation",
          "type": "address"
        }
      ],
      "name": "BeaconUpgraded",
      "type": "event"
    },
    {
      "anonymous": false,
      "inputs": [
        {
          "indexed": true,
          "internalType": "address",
          "name": "counterparty",
          "type": "address"
        },
        {
          "indexed": false,
          "internalType": "bool",
          "name": "allowed",
          "type": "bool"
        }
      ],
      "name": "CounterpartyWhitelistUpdated",
      "type": "event"
    },
    {
      "anonymous": false,
      "inputs": [
        {
          "indexed": true,
          "internalType": "address",
          "name": "vault",
          "type": "address"
        },
        {
          "indexed": true,
          "internalType": "address",
          "name": "operator",
          "type": "address"
        }
      ],
      "name": "EmergencyCancelled",
      "type": "event"
    },
    {
      "anonymous": false,
      "inputs": [
        {
          "indexed": false,
          "internalType": "uint64",
          "name": "version",
          "type": "uint64"
        }
      ],
      "name": "Initialized",
      "type": "event"
    },
    {
      "anonymous": false,
      "inputs": [
        {
          "indexed": true,
          "internalType": "address",
          "name": "previousOwner",
          "type": "address"
        },
        {
          "indexed": true,
          "internalType": "address",
          "name": "newOwner",
          "type": "address"
        }
      ],
      "name": "OwnershipTransferred",
      "type": "event"
    },
    {
      "anonymous": false,
      "inputs": [
        {
          "indexed": false,
          "internalType": "address",
          "name": "account",
          "type": "address"
        }
      ],
      "name": "Paused",
      "type": "event"
    },
    {
      "anonymous": false,
      "inputs": [
        {
          "indexed": false,
          "internalType": "address",
          "name": "account",
          "type": "address"
        }
      ],
      "name": "Unpaused",
      "type": "event"
    },
    {
      "anonymous": false,
      "inputs": [
        {
          "indexed": true,
          "internalType": "address",
          "name": "proxy",
          "type": "address"
        },
        {
          "indexed": true,
          "internalType": "address",
          "name": "creator",
          "type": "address"
        }
      ],
      "name": "YieldVaultCreated",
      "type": "event"
    },
    {
      "inputs": [
        {
          "internalType": "address",
          "name": "counterparty",
          "type": "address"
        }
      ],
      "name": "addCounterpartyToWhitelist",
      "outputs": [],
      "stateMutability": "nonpayable",
      "type": "function"
    },
    {
      "inputs": [
        {
          "internalType": "uint256",
          "name": "",
          "type": "uint256"
        }
      ],
      "name": "allProxies",
      "outputs": [
        {
          "internalType": "address",
          "name": "",
          "type": "address"
        }
      ],
      "stateMutability": "view",
      "type": "function"
    },
    {
      "inputs": [],
      "name": "beacon",
      "outputs": [
        {
          "internalType": "contract UpgradeableBeacon",
          "name": "",
          "type": "address"
        }
      ],
      "stateMutability": "view",
      "type": "function"
    },
    {
      "inputs": [
        {
          "internalType": "address",
          "name": "",
          "type": "address"
        }
      ],
      "name": "counterpartyWhitelist",
      "outputs": [
        {
          "internalType": "bool",
          "name": "",
          "type": "bool"
        }
      ],
      "stateMutability": "view",
      "type": "function"
    },
    {
      "inputs": [
        {
          "components": [
            {
              "internalType": "address",
              "name": "asset",
              "type": "address"
            },
            {
              "internalType": "address",
              "name": "factory",
              "type": "address"
            },
            {
              "internalType": "address",
              "name": "admin",
              "type": "address"
            },
            {
              "internalType": "address",
              "name": "counterparty",
              "type": "address"
            },
            {
              "internalType": "address",
              "name": "feeRecipient",
              "type": "address"
            },
            {
              "internalType": "string",
              "name": "name",
              "type": "string"
            },
            {
              "internalType": "string",
              "name": "symbol",
              "type": "string"
            },
            {
              "components": [
                {
                  "internalType": "uint256",
                  "name": "openWindow",
                  "type": "uint256"
                },
                {
                  "internalType": "uint256",
                  "name": "lockDuration",
                  "type": "uint256"
                },
                {
                  "internalType": "uint256",
                  "name": "settleTimelockWindow",
                  "type": "uint256"
                },
                {
                  "internalType": "uint256",
                  "name": "roundCap",
                  "type": "uint256"
                },
                {
                  "internalType": "uint256",
                  "name": "perAddressCap",
                  "type": "uint256"
                },
                {
                  "internalType": "uint256",
                  "name": "minSubscription",
                  "type": "uint256"
                },
                {
                  "internalType": "uint256",
                  "name": "performanceFeeBps",
                  "type": "uint256"
                },
                {
                  "internalType": "uint256",
                  "name": "maxLossBps",
                  "type": "uint256"
                },
                {
                  "internalType": "uint256",
                  "name": "openedAt",
                  "type": "uint256"
                }
              ],
              "internalType": "struct YieldVault.RoundParams",
              "name": "firstRound",
              "type": "tuple"
            }
          ],
          "internalType": "struct YieldVault.InitParams",
          "name": "params",
          "type": "tuple"
        }
      ],
      "name": "createYieldVault",
      "outputs": [
        {
          "internalType": "address",
          "name": "proxyAddr",
          "type": "address"
        }
      ],
      "stateMutability": "nonpayable",
      "type": "function"
    },
    {
      "inputs": [],
      "name": "currentImplementation",
      "outputs": [
        {
          "internalType": "address",
          "name": "",
          "type": "address"
        }
      ],
      "stateMutability": "view",
      "type": "function"
    },
    {
      "inputs": [
        {
          "internalType": "address",
          "name": "vault",
          "type": "address"
        }
      ],
      "name": "emergencyCancel",
      "outputs": [],
      "stateMutability": "nonpayable",
      "type": "function"
    },
    {
      "inputs": [],
      "name": "getAllProxies",
      "outputs": [
        {
          "internalType": "address[]",
          "name": "",
          "type": "address[]"
        }
      ],
      "stateMutability": "view",
      "type": "function"
    },
    {
      "inputs": [
        {
          "internalType": "address",
          "name": "initialOwner",
          "type": "address"
        }
      ],
      "name": "initialize",
      "outputs": [],
      "stateMutability": "nonpayable",
      "type": "function"
    },
    {
      "inputs": [
        {
          "internalType": "address",
          "name": "",
          "type": "address"
        }
      ],
      "name": "isFactoryVault",
      "outputs": [
        {
          "internalType": "bool",
          "name": "",
          "type": "bool"
        }
      ],
      "stateMutability": "view",
      "type": "function"
    },
    {
      "inputs": [],
      "name": "owner",
      "outputs": [
        {
          "internalType": "address",
          "name": "",
          "type": "address"
        }
      ],
      "stateMutability": "view",
      "type": "function"
    },
    {
      "inputs": [],
      "name": "pause",
      "outputs": [],
      "stateMutability": "nonpayable",
      "type": "function"
    },
    {
      "inputs": [],
      "name": "paused",
      "outputs": [
        {
          "internalType": "bool",
          "name": "",
          "type": "bool"
        }
      ],
      "stateMutability": "view",
      "type": "function"
    },
    {
      "inputs": [
        {
          "internalType": "address",
          "name": "counterparty",
          "type": "address"
        }
      ],
      "name": "removeCounterpartyFromWhitelist",
      "outputs": [],
      "stateMutability": "nonpayable",
      "type": "function"
    },
    {
      "inputs": [],
      "name": "renounceOwnership",
      "outputs": [],
      "stateMutability": "nonpayable",
      "type": "function"
    },
    {
      "inputs": [],
      "name": "totalProxies",
      "outputs": [
        {
          "internalType": "uint256",
          "name": "",
          "type": "uint256"
        }
      ],
      "stateMutability": "view",
      "type": "function"
    },
    {
      "inputs": [
        {
          "internalType": "address",
          "name": "newOwner",
          "type": "address"
        }
      ],
      "name": "transferOwnership",
      "outputs": [],
      "stateMutability": "nonpayable",
      "type": "function"
    },
    {
      "inputs": [],
      "name": "unpause",
      "outputs": [],
      "stateMutability": "nonpayable",
      "type": "function"
    },
    {
      "inputs": [
        {
          "internalType": "address",
          "name": "newImplementation",
          "type": "address"
        }
      ],
      "name": "upgradeBeaconTo",
      "outputs": [],
      "stateMutability": "nonpayable",
      "type": "function"
    }
  ],
  "contractName": "YieldVaultFactory",
  "sourceName": "contracts/YieldVaultFactory.sol",
  "bytecode": "0x6080604052348015600e575f5ffd5b5060156019565b60c9565b7ff0c57e16840df040f15088dc2f81fe391c3923bec73e23a9662efc9c229c6a00805468010000000000000000900460ff161560685760405163f92ee8a960e01b815260040160405180910390fd5b80546001600160401b039081161460c65780546001600160401b0319166001600160401b0390811782556040519081527fc7f505b2f371ae2175ee4913f4499e1f2633a7b5936321eed1cdaeb6115181d29060200160405180910390a15b50565b614ed0806100d65f395ff3fe608060405234801561000f575f5ffd5b506004361061011c575f3560e01c80638504e053116100a9578063ad14e7d11161006e578063ad14e7d114610276578063bb79305a14610289578063c4d66de81461029c578063d8bd5c29146102af578063f2fde38b146102b7575f5ffd5b80638504e053146101eb578063883edfb81461020d5780638da5cb5b146102225780638e957d2214610252578063a30385d714610265575f5ffd5b806359659e90116100ef57806359659e901461019f5780635c975abb146101b1578063715018a6146101c85780637b9480f7146101d05780638456cb59146101e3575f5ffd5b8063235fba4c146101205780632f11fdc3146101505780633f4ba83a1461016557806358c624421461016d575b5f5ffd5b61013361012e366004610d58565b6102ca565b6040516001600160a01b0390911681526020015b60405180910390f35b61016361015e366004610db6565b6104a7565b005b6101636105e3565b61018f61017b366004610db6565b60026020525f908152604090205460ff1681565b6040519015158152602001610147565b5f54610133906001600160a01b031681565b5f516020614e7b5f395f51905f525460ff1661018f565b6101636105f5565b6101636101de366004610db6565b610606565b6101636106d7565b61018f6101f9366004610db6565b60036020525f908152604090205460ff1681565b6102156106e7565b6040516101479190610dd1565b7f9016d09d72d40fdae2fd8ceac6b6234c7706214fd39c1cd1e609a0528c199300546001600160a01b0316610133565b610163610260366004610db6565b610747565b600154604051908152602001610147565b610133610284366004610e1c565b6107cb565b610163610297366004610db6565b6107f3565b6101636102aa366004610db6565b610878565b610133610a40565b6101636102c5366004610db6565b610ab9565b5f6102d3610af6565b6102db610b51565b306102ec6040840160208501610db6565b6001600160a01b0316146103345761030a6040830160208401610db6565b604051631f67975d60e31b81526001600160a01b0390911660048201526024015b60405180910390fd5b60035f6103476080850160608601610db6565b6001600160a01b0316815260208101919091526040015f205460ff1661038057604051634f1332db60e01b815260040160405180910390fd5b5f63d6cf39b760e01b8360405160240161039a9190610ea4565b60408051601f198184030181529181526020820180516001600160e01b03166001600160e01b0319909416939093179092525f80549251919350916001600160a01b03169083906103ea90610d31565b6103f5929190610fe6565b604051809103905ff08015801561040e573d5f5f3e3d5ffd5b506001805480820182557fb10e2d527612073b26eecdfd717e6a320cf44b4afac2b0732d9fcbe2b7fa0cf60180546001600160a01b0319166001600160a01b0384169081179091555f81815260026020526040808220805460ff19169094179093559151929550859350339290917f6b13be6b77247cc66d50e180048dab4edf7d82948568f8cee47f00bba849a0bb91a350505b919050565b6104af610af6565b806001600160a01b03163b5f036104d95760405163340aafcd60e11b815260040160405180910390fd5b5f5f5f9054906101000a90046001600160a01b03166001600160a01b0316635c60da1b6040518163ffffffff1660e01b8152600401602060405180830381865afa158015610529573d5f5f3e3d5ffd5b505050506040513d601f19601f8201168201806040525081019061054d919061102a565b5f54604051631b2ce7f360e11b81526001600160a01b038581166004830152929350911690633659cfe6906024015f604051808303815f87803b158015610592575f5ffd5b505af11580156105a4573d5f5f3e3d5ffd5b50506040516001600160a01b038086169350841691507fc945ae30494f6ee00b9e4bf1fec5653ced7244b559666f44f9a88ea732e957b0905f90a35050565b6105eb610af6565b6105f3610b81565b565b6105fd610af6565b6105f35f610be0565b61060e610af6565b6001600160a01b0381165f9081526002602052604090205460ff16610651576040516357b980d760e11b81526001600160a01b038216600482015260240161032b565b806001600160a01b0316632c4b23086040518163ffffffff1660e01b81526004015f604051808303815f87803b158015610689575f5ffd5b505af115801561069b573d5f5f3e3d5ffd5b50506040513392506001600160a01b03841691507f26f79e25d35f5be83b3ccfc5696864ed1dd355079e938a8feea2a0c0b654b406905f90a350565b6106df610af6565b6105f3610c50565b6060600180548060200260200160405190810160405280929190818152602001828054801561073d57602002820191905f5260205f20905b81546001600160a01b0316815260019091019060200180831161071f575b5050505050905090565b61074f610af6565b6001600160a01b03811661077657604051634f1332db60e01b815260040160405180910390fd5b6001600160a01b0381165f818152600360209081526040808320805460ff19169055519182527f8121ec7f2ca1072efea9ad252f3437bfac291ac5eb8e08f25e683cb69f78fb9a91015b60405180910390a250565b600181815481106107da575f80fd5b5f918252602090912001546001600160a01b0316905081565b6107fb610af6565b6001600160a01b03811661082257604051634f1332db60e01b815260040160405180910390fd5b6001600160a01b0381165f81815260036020908152604091829020805460ff1916600190811790915591519182527f8121ec7f2ca1072efea9ad252f3437bfac291ac5eb8e08f25e683cb69f78fb9a91016107c0565b7ff0c57e16840df040f15088dc2f81fe391c3923bec73e23a9662efc9c229c6a008054600160401b810460ff16159067ffffffffffffffff165f811580156108bd5750825b90505f8267ffffffffffffffff1660011480156108d95750303b155b9050811580156108e7575080155b156109055760405163f92ee8a960e01b815260040160405180910390fd5b845467ffffffffffffffff19166001178555831561092f57845460ff60401b1916600160401b1785555b61093886610c98565b610940610ca9565b5f60405161094d90610d3e565b604051809103905ff080158015610966573d5f5f3e3d5ffd5b509050803060405161097790610d4b565b6001600160a01b03928316815291166020820152604001604051809103905ff0801580156109a7573d5f5f3e3d5ffd5b505f80546001600160a01b0319166001600160a01b0392831690811782556040519284169290917f71a8466bb649fa9952eb7579fd94754b4e4345c604613f39182eff1c30267d6c91a3508315610a3857845460ff60401b19168555604051600181527fc7f505b2f371ae2175ee4913f4499e1f2633a7b5936321eed1cdaeb6115181d29060200160405180910390a15b505050505050565b5f5f5f9054906101000a90046001600160a01b03166001600160a01b0316635c60da1b6040518163ffffffff1660e01b8152600401602060405180830381865afa158015610a90573d5f5f3e3d5ffd5b505050506040513d601f19601f82011682018060405250810190610ab4919061102a565b905090565b610ac1610af6565b6001600160a01b038116610aea57604051631e4fbdf760e01b81525f600482015260240161032b565b610af381610be0565b50565b33610b287f9016d09d72d40fdae2fd8ceac6b6234c7706214fd39c1cd1e609a0528c199300546001600160a01b031690565b6001600160a01b0316146105f35760405163118cdaa760e01b815233600482015260240161032b565b5f516020614e7b5f395f51905f525460ff16156105f35760405163d93c066560e01b815260040160405180910390fd5b610b89610cb1565b5f516020614e7b5f395f51905f52805460ff191681557f5db9ee0a495bf2e6ff9c91a7834c1ba4fdd244a5e8aa4e537bd38aeae4b073aa335b6040516001600160a01b03909116815260200160405180910390a150565b7f9016d09d72d40fdae2fd8ceac6b6234c7706214fd39c1cd1e609a0528c19930080546001600160a01b031981166001600160a01b03848116918217845560405192169182907f8be0079c531659141344cd1fd0a4f28419497f9722a3daafe3b4186f6b6457e0905f90a3505050565b610c58610b51565b5f516020614e7b5f395f51905f52805460ff191660011781557f62e78cea01bee320cd4e420270b5ea74000d11b0c9f74754ebdbfc544b05a25833610bc2565b610ca0610ce0565b610af381610d29565b6105f3610ce0565b5f516020614e7b5f395f51905f525460ff166105f357604051638dfc202b60e01b815260040160405180910390fd5b7ff0c57e16840df040f15088dc2f81fe391c3923bec73e23a9662efc9c229c6a0054600160401b900460ff166105f357604051631afcd79f60e31b815260040160405180910390fd5b610ac1610ce0565b6105458061104683390190565b6134cf8061158b83390190565b61042180614a5a83390190565b5f60208284031215610d68575f5ffd5b813567ffffffffffffffff811115610d7e575f5ffd5b82016102008185031215610d90575f5ffd5b9392505050565b6001600160a01b0381168114610af3575f5ffd5b80356104a281610d97565b5f60208284031215610dc6575f5ffd5b8135610d9081610d97565b602080825282518282018190525f918401906040840190835b81811015610e115783516001600160a01b0316835260209384019390920191600101610dea565b509095945050505050565b5f60208284031215610e2c575f5ffd5b5035919050565b5f5f8335601e19843603018112610e48575f5ffd5b830160208101925035905067ffffffffffffffff811115610e67575f5ffd5b803603821315610e75575f5ffd5b9250929050565b81835281816020850137505f828201602090810191909152601f909101601f19169091010190565b602081525f8235610eb481610d97565b6001600160a01b0316602083810191909152610ed1908401610dab565b6001600160a01b038116604084015250610eed60408401610dab565b6001600160a01b038116606084015250610f0960608401610dab565b6001600160a01b038116608084015250610f2560808401610dab565b6001600160a01b03811660a084015250610f4260a0840184610e33565b61020060c0850152610f5961022085018284610e7c565b915050610f6960c0850185610e33565b848303601f190160e0860152610f80838284610e7c565b92505050610d90610100840160e08601803582526020808201359083015260408082013590830152606080820135908301526080808201359083015260a0808201359083015260c0808201359083015260e0808201359083015261010090810135910152565b60018060a01b0383168152604060208201525f82518060408401528060208501606085015e5f606082850101526060601f19601f8301168401019150509392505050565b5f6020828403121561103a575f5ffd5b8151610d9081610d9756fe60a060405260405161054538038061054583398101604081905261002291610331565b61002c828261003e565b506001600160a01b0316608052610413565b610047826100fb565b6040516001600160a01b038316907f1cf3b03a6cf19fa2baba4df148e9dcabedea7f8a5c07840e207e5c089be95d3e905f90a28051156100ef576100ea826001600160a01b0316635c60da1b6040518163ffffffff1660e01b8152600401602060405180830381865afa1580156100c0573d5f5f3e3d5ffd5b505050506040513d601f19601f820116820180604052508101906100e491906103f3565b82610209565b505050565b6100f76102aa565b5050565b806001600160a01b03163b5f0361013557604051631933b43b60e21b81526001600160a01b03821660048201526024015b60405180910390fd5b807fa3f0ad74e5423aebfd80d3ef4346578335a9a72aeaee59ff6cb3582b35133d5080546001600160a01b0319166001600160a01b0392831617905560408051635c60da1b60e01b815290515f92841691635c60da1b9160048083019260209291908290030181865afa1580156101ae573d5f5f3e3d5ffd5b505050506040513d601f19601f820116820180604052508101906101d291906103f3565b9050806001600160a01b03163b5f036100f757604051634c9c8ce360e01b81526001600160a01b038216600482015260240161012c565b60605f61021684846102cb565b905080801561023757505f3d118061023757505f846001600160a01b03163b115b1561024c576102446102de565b9150506102a4565b801561027657604051639996b31560e01b81526001600160a01b038516600482015260240161012c565b3d15610289576102846102f7565b6102a2565b60405163d6bda27560e01b815260040160405180910390fd5b505b92915050565b34156102c95760405163b398979f60e01b815260040160405180910390fd5b565b5f5f5f835160208501865af49392505050565b6040513d81523d5f602083013e3d602001810160405290565b6040513d5f823e3d81fd5b80516001600160a01b0381168114610318575f5ffd5b919050565b634e487b7160e01b5f52604160045260245ffd5b5f5f60408385031215610342575f5ffd5b61034b83610302565b60208401519092506001600160401b03811115610366575f5ffd5b8301601f81018513610376575f5ffd5b80516001600160401b0381111561038f5761038f61031d565b604051601f8201601f19908116603f011681016001600160401b03811182821017156103bd576103bd61031d565b6040528181528282016020018710156103d4575f5ffd5b8160208401602083015e5f602083830101528093505050509250929050565b5f60208284031215610403575f5ffd5b61040c82610302565b9392505050565b60805161011b61042a5f395f601d015261011b5ff3fe6080604052600a600c565b005b60186014601a565b609d565b565b5f7f00000000000000000000000000000000000000000000000000000000000000006001600160a01b0316635c60da1b6040518163ffffffff1660e01b8152600401602060405180830381865afa1580156076573d5f5f3e3d5ffd5b505050506040513d601f19601f820116820180604052508101906098919060ba565b905090565b365f5f375f5f365f845af43d5f5f3e80801560b6573d5ff35b3d5ffd5b5f6020828403121560c9575f5ffd5b81516001600160a01b038116811460de575f5ffd5b939250505056fea26469706673582212204cf8a8b1fb01cd226011d008ba55cf0076b2519c3622fc16d55d1e06b6279c6a64736f6c634300081c00336080604052348015600e575f5ffd5b5060156019565b60c9565b7ff0c57e16840df040f15088dc2f81fe391c3923bec73e23a9662efc9c229c6a00805468010000000000000000900460ff161560685760405163f92ee8a960e01b815260040160405180910390fd5b80546001600160401b039081161460c65780546001600160401b0319166001600160401b0390811782556040519081527fc7f505b2f371ae2175ee4913f4499e1f2633a7b5936321eed1cdaeb6115181d29060200160405180910390a15b50565b6133f9806100d65f395ff3fe608060405234801561000f575f5ffd5b50600436106103e0575f3560e01c8063708891651161020b578063b460af941161011f578063ce96cb77116100b4578063d905777e11610084578063d905777e146107a1578063dd62ed3e146107b4578063ef8b30f71461074c578063fec38a35146107c7578063ff980538146107cf575f5ffd5b8063ce96cb771461075f578063d0d529a714610772578063d547741f1461077b578063d6cf39b71461078e575f5ffd5b8063c3df6546116100ef578063c3df654614610714578063c45a015514610727578063c63d75b614610739578063c6e6f5921461074c575f5ffd5b8063b460af94146106dd578063b9d4e879146106f0578063b9de9493146106f9578063ba08765214610701575f5ffd5b80639dbc637b116101a0578063a9059cbb11610170578063a9059cbb14610691578063a99a67e6146106a4578063b1c9fe6e146106ad578063b2163482146106c2578063b3d7f6b9146106ca575f5ffd5b80639dbc637b14610677578063a217fddf14610680578063a5b1353814610687578063a67cbb9814610638575f5ffd5b806391d14854116101db57806391d148541461064057806394bf804d1461065357806395d89b41146106665780639b8fdacc1461066e575f5ffd5b8063708891651461061357806370a082311461061c57806371aa51851461062f57806378b4330f14610638575f5ffd5b80632f2ff15d1161030257806341be5f64116102975780634bb278f3116102675780634bb278f3146105dc5780634cdad506146104525780636311d5df146105e4578063648036ae146105f75780636e553f6514610600575f5ffd5b806341be5f641461059f57806346904840146105a8578063478a138e146105bb57806347dd5172146105d3575f5ffd5b806336568abe116102d257806336568abe14610550578063389302031461056357806338d52e0f1461056c578063402d267d1461058c575f5ffd5b80632f2ff15d146105115780633129c27514610524578063313ce5671461052d57806335a82cee14610547575f5ffd5b80630a28a47711610378578063248a9ca311610348578063248a9ca3146104da5780632bd9d06d146104ed5780632c4b2308146104f65780632d659a46146104fe575f5ffd5b80630a28a4771461047857806318160ddd1461048b57806319a0c3db146104b257806323b872dd146104c7575f5ffd5b806306fdde03116103b357806306fdde03146104305780630756e64e1461044557806307a2d13a14610452578063095ea7b314610465575f5ffd5b806301e1d114146103e457806301ffc9a7146103fb578063045544431461041e57806305b2bfb014610427575b5f5ffd5b6015545b6040519081526020015b60405180910390f35b61040e610409366004612dcc565b6107e9565b60405190151581526020016103f2565b6103e860065481565b6103e860155481565b61043861081f565b6040516103f29190612df3565b60145461040e9060ff1681565b6103e8610460366004612e28565b6108df565b61040e610473366004612e5a565b6108ea565b6103e8610486366004612e28565b610901565b7f52c63247e1f47db19d5ce0460030c497f067ca4cebf71ba98eeadabe20bace02546103e8565b6104c56104c0366004612e82565b61090d565b005b61040e6104d5366004612e9c565b61096d565b6103e86104e8366004612e28565b610992565b6103e860075481565b6104c56109b2565b6104c561050c366004612ed6565b610aa4565b6104c561051f366004612f14565b610dbd565b6103e8600c5481565b610535610dd9565b60405160ff90911681526020016103f2565b6103e860105481565b6104c561055e366004612f14565b610e1c565b6103e8600d5481565b610574610e4f565b6040516001600160a01b0390911681526020016103f2565b6103e861059a366004612f3e565b610e7d565b6103e8600a5481565b600254610574906001600160a01b031681565b6014546105749061010090046001600160a01b031681565b6103e860095481565b6104c5610f83565b6104c56105f2366004612e28565b6111b8565b6103e860035481565b6103e861060e366004612f14565b6112b2565b6103e861271081565b6103e861062a366004612f3e565b6113a5565b6103e8600e5481565b6103e8600181565b61040e61064e366004612f14565b6113cb565b6103e8610661366004612f14565b611401565b610438611501565b6103e860085481565b6103e860135481565b6103e85f81565b6103e862278d0081565b61040e61069f366004612e5a565b61153f565b6103e860115481565b6106b561154c565b6040516103f29190612f6b565b6103e861155a565b6103e86106d8366004612e28565b611563565b6103e86106eb366004612f85565b61156f565b6103e8600b5481565b6104c56115c8565b6103e861070f366004612f85565b61179a565b600154610574906001600160a01b031681565b5f54610574906001600160a01b031681565b6103e8610747366004612f3e565b6117e9565b6103e861075a366004612e28565b6117f6565b6103e861076d366004612f3e565b611801565b6103e860055481565b6104c5610789366004612f14565b611848565b6104c561079c366004612fb5565b611864565b6103e86107af366004612f3e565b611b6e565b6103e86107c2366004612fed565b611bbc565b6104c5611c05565b6012546107dc9060ff1681565b6040516103f29190613015565b5f6001600160e01b03198216637965db0b60e01b148061081957506301ffc9a760e01b6001600160e01b03198316145b92915050565b7f52c63247e1f47db19d5ce0460030c497f067ca4cebf71ba98eeadabe20bace0380546060915f5160206133845f395f51905f529161085d90613029565b80601f016020809104026020016040519081016040528092919081815260200182805461088990613029565b80156108d45780601f106108ab576101008083540402835291602001916108d4565b820191905f5260205f20905b8154815290600101906020018083116108b757829003601f168201915b505050505091505090565b5f610819825f611c6b565b5f336108f7818585611cc4565b5060019392505050565b5f610819826001611cd1565b5f61091781611d1b565b5f610920611d25565b9050600381600381111561093657610936612f57565b1461095f57806040516330a21c0b60e21b81526004016109569190612f6b565b60405180910390fd5b61096883611d62565b505050565b5f3361097a858285611f3c565b610985858585611f87565b60019150505b9392505050565b5f9081525f5160206133a45f395f51905f52602052604090206001015490565b5f546001600160a01b0316336001600160a01b0316146109e55760405163e6c4247b60e01b815260040160405180910390fd5b6109ed611fe4565b5f6109f6611d25565b90506003816003811115610a0c57610a0c612f57565b03610a2c57806040516330a21c0b60e21b81526004016109569190612f6b565b600260045460ff166003811115610a4557610a45612f57565b03610a5357610a535f612019565b6004805460ff191660031790554260118190556040519081527fa3b3cc0ffe2f92520bdc31fb4fc668b8a04b9ac89b908aa9ca3808db9e629cf79060200160405180910390a150610aa2612137565b565b5f610aae81611d1b565b610ab6611fe4565b610abe612161565b60045460ff166001816003811115610ad857610ad8612f57565b14158015610af857506002816003811115610af557610af5612f57565b14155b15610b1857806040516330a21c0b60e21b81526004016109569190612f6b565b6001816003811115610b2c57610b2c612f57565b148015610b475750600654600f54610b449190613075565b42105b15610b655760405163e9bbe5e760e01b815260040160405180910390fd5b6002816003811115610b7957610b79612f57565b03610b8757610b875f612019565b6012805486919060ff191660018381811115610ba557610ba5612f57565b0217905550601384905542601055601480546001600160a81b03191690555f856001811115610bd657610bd6612f57565b03610c82576001600160a01b03831615801590610bf257505f84115b15610c68576001600160a01b0383163314610c205760405163f88a1e0360e01b815260040160405180910390fd5b610c3f833086610c2e610e4f565b6001600160a01b03169291906121f0565b601480546001600160a01b038516610100026001600160a81b0319909116176001179055610d2f565b835f03610c7d576014805460ff191660011790555b610d2f565b6001856001811115610c9657610c96612f57565b03610d16576001600160a01b03831615610cc35760405163f88a1e0360e01b815260040160405180910390fd5b600c54601554610cd6916127105f612226565b841115610d04576015546040516377842a7d60e11b8152610956918691600401918252602082015260400190565b6014805460ff19166001179055610d2f565b60405163f27f616f60e01b815260040160405180910390fd5b6004805460ff191660021790556014546001600160a01b0361010090910416856001811115610d6057610d60612f57565b600354601054601454604080518a8152602081019390935260ff909116151582820152517ffd108d0429b2df0c92b711f348d14167bee0284d00a524a136441d255897add39181900360600190a450610db7612137565b50505050565b610dc682610992565b610dcf81611d1b565b610db78383612271565b5f807f0773e532dfede91f04b12a73d3d2acd361424f41f76b4fb79f090161e36b4e00905060068154610e169190600160a01b900460ff16613088565b91505090565b6001600160a01b0381163314610e455760405163334bd91960e11b815260040160405180910390fd5b6109688282612312565b7f0773e532dfede91f04b12a73d3d2acd361424f41f76b4fb79f090161e36b4e00546001600160a01b031690565b5f610e8661238b565b1580610f0057505f5f9054906101000a90046001600160a01b03166001600160a01b0316635c975abb6040518163ffffffff1660e01b8152600401602060405180830381865afa158015610edc573d5f5f3e3d5ffd5b505050506040513d601f19601f82011682018060405250810190610f0091906130a1565b15610f0c57505f919050565b6015546008545f908210610f20575f610f2e565b81600854610f2e91906130c0565b90506009545f03610f40579392505050565b5f610f4d610460866113a5565b90505f8160095411610f5f575f610f6d565b81600954610f6d91906130c0565b9050610f7983826123c3565b9695505050505050565b610f8b611fe4565b600260045460ff166003811115610fa457610fa4612f57565b14610fca57600480546040516330a21c0b60e21b81526109569260ff9092169101612f6b565b5f600754601054610fdb9190613075565b905080421015611001576040516396a5c63160e01b815260048101829052602401610956565b60145460ff166110245760405163da68ae5d60e01b815260040160405180910390fd5b6004805460ff19166003179055426011556012545f908190819060ff16600181111561105257611052612f57565b036110c657600b5460135461106a916127105f612226565b91508160135461107a91906130c0565b90508060155f82825461108d9190613075565b909155505081156110c1576002546110c1906001600160a01b0316836110b1610e4f565b6001600160a01b031691906123d2565b611148565b60135460155f8282546110d991906130c0565b90915550506013541561114857600154601354611102916001600160a01b0316906110b1610e4f565b6001546013546040519081526001600160a01b03909116907ffc5e8e3e393a9ebad565bb116088350f022b5071a3910033762828bf0f382e549060200160405180910390a25b60125460ff16600181111561115f5761115f612f57565b6003546013546011546040805192835260208301869052820186905260608201527f05af4d9318127b47ab5c9de5670cae4fe1e194d38c427c25b461658cda1107eb9060800160405180910390a3505050610aa2612137565b5f6111c281611d1b565b5f60045460ff1660038111156111da576111da612f57565b1415806111e95750600e544210155b15611210576111f6611d25565b6040516330a21c0b60e21b81526004016109569190612f6b565b81158061121f575062278d0082115b1561123d576040516331f4a25760e11b815260040160405180910390fd5b5f600e5490508260055f8282546112549190613075565b9091555061126490508382613075565b600e81905560035460405190917f567e3ee6997f6d8152d70afc24ef7d37ef8a39e6f99d2b8bfb3ba7fb5399df07916112a591858252602082015260400190565b60405180910390a2505050565b5f5f5f9054906101000a90046001600160a01b03166001600160a01b0316635c975abb6040518163ffffffff1660e01b8152600401602060405180830381865afa158015611302573d5f5f3e3d5ffd5b505050506040513d601f19601f8201168201806040525081019061132691906130a1565b1561134457604051633461791360e11b815260040160405180910390fd5b61134c611fe4565b61135461238b565b611360576111f6611d25565b600a5483101561139157600a546040516306dfd56b60e11b8152610956918591600401918252602082015260400190565b61139b8383612407565b9050610819612137565b6001600160a01b03165f9081525f5160206133845f395f51905f52602052604090205490565b5f9182525f5160206133a45f395f51905f52602090815260408084206001600160a01b0393909316845291905290205460ff1690565b5f5f5f9054906101000a90046001600160a01b03166001600160a01b0316635c975abb6040518163ffffffff1660e01b8152600401602060405180830381865afa158015611451573d5f5f3e3d5ffd5b505050506040513d601f19601f8201168201806040525081019061147591906130a1565b1561149357604051633461791360e11b815260040160405180910390fd5b61149b611fe4565b6114a361238b565b6114af576111f6611d25565b5f6114b984611563565b9050600a548110156114ec57600a546040516306dfd56b60e11b8152610956918391600401918252602082015260400190565b6114f6848461245b565b915050610819612137565b7f52c63247e1f47db19d5ce0460030c497f067ca4cebf71ba98eeadabe20bace0480546060915f5160206133845f395f51905f529161085d90613029565b5f336108f7818585611f87565b5f611555611d25565b905090565b5f6115556124a7565b5f610819826001611c6b565b5f611578611fe4565b61158061238b565b1580156115a657506003611592611d25565b60038111156115a3576115a3612f57565b14155b156115b3576111f6611d25565b6115be8484846124e2565b905061098b612137565b5f5f9054906101000a90046001600160a01b03166001600160a01b0316635c975abb6040518163ffffffff1660e01b8152600401602060405180830381865afa158015611617573d5f5f3e3d5ffd5b505050506040513d601f19601f8201168201806040525081019061163b91906130a1565b1561165957604051633461791360e11b815260040160405180910390fd5b611661611fe4565b600260045460ff16600381111561167a5761167a612f57565b146116a057600480546040516330a21c0b60e21b81526109569260ff9092169101612f6b565b5f60125460ff1660018111156116b8576116b8612f57565b146116d65760405163f27f616f60e01b815260040160405180910390fd5b60145460ff16156116fa576040516336e47c5b60e21b815260040160405180910390fd5b60135415611712576117123330601354610c2e610e4f565b6014805460ff191660011790556117263390565b601480546001600160a01b039290921661010002610100600160a81b0319909216919091179055336001600160a01b03167fa296f52130b2762824c166f034134066d2ba79899eb18e45f091b13cc007038e60135460405161178a91815260200190565b60405180910390a2610aa2612137565b5f6117a3611fe4565b6117ab61238b565b1580156117d1575060036117bd611d25565b60038111156117ce576117ce612f57565b14155b156117de576111f6611d25565b6115be84848461252f565b5f61081961075a83610e7d565b5f610819825f611cd1565b5f61180a61238b565b1580156118305750600361181c611d25565b600381111561182d5761182d612f57565b14155b1561183c57505f919050565b610819610460836113a5565b61185182610992565b61185a81611d1b565b610db78383612312565b5f61186d61257c565b805490915060ff600160401b820416159067ffffffffffffffff165f811580156118945750825b90505f8267ffffffffffffffff1660011480156118b05750303b155b9050811580156118be575080155b156118dc5760405163f92ee8a960e01b815260040160405180910390fd5b845467ffffffffffffffff19166001178555831561190657845460ff60401b1916600160401b1785555b5f6119146020880188612f3e565b6001600160a01b0316148061194057505f6119356040880160208901612f3e565b6001600160a01b0316145b8061196257505f6119576060880160408901612f3e565b6001600160a01b0316145b8061198457505f6119796080880160608901612f3e565b6001600160a01b0316145b806119a657505f61199b60a0880160808901612f3e565b6001600160a01b0316145b156119c45760405163e6c4247b60e01b815260040160405180910390fd5b611a4e6119d460a08801886130d3565b8080601f0160208091040260200160405190810160405280939291908181526020018383808284375f92019190915250611a159250505060c08901896130d3565b8080601f0160208091040260200160405190810160405280939291908181526020018383808284375f920191909152506125a492505050565b611a63611a5e6020880188612f3e565b6125ba565b611a6b6125cb565b611a845f611a7f6060890160408a01612f3e565b612271565b50611a956040870160208801612f3e565b5f80546001600160a01b0319166001600160a01b0392909216919091179055611ac46080870160608801612f3e565b600180546001600160a01b0319166001600160a01b0392909216919091179055611af460a0870160808801612f3e565b600280546001600160a01b0319166001600160a01b0392909216919091179055611b2060e08701611d62565b8315611b6657845460ff60401b19168555604051600181527fc7f505b2f371ae2175ee4913f4499e1f2633a7b5936321eed1cdaeb6115181d29060200160405180910390a15b505050505050565b5f611b7761238b565b80611b9a57506003611b87611d25565b6003811115611b9857611b98612f57565b145b8015611ba757505f601554115b15611bb557610819826113a5565b505f919050565b6001600160a01b039182165f9081527f52c63247e1f47db19d5ce0460030c497f067ca4cebf71ba98eeadabe20bace016020908152604080832093909416825291909152205490565b5f611c0f81611d1b565b611c17611fe4565b600260045460ff166003811115611c3057611c30612f57565b14611c5657600480546040516330a21c0b60e21b81526109569260ff9092169101612f6b565b611c606001612019565b611c68612137565b50565b5f61098b611c7860155490565b611c83906001613075565b611c8f6006600a613200565b7f52c63247e1f47db19d5ce0460030c497f067ca4cebf71ba98eeadabe20bace0254611cbb9190613075565b85919085612226565b61096883838360016125d3565b5f61098b611ce16006600a613200565b7f52c63247e1f47db19d5ce0460030c497f067ca4cebf71ba98eeadabe20bace0254611d0d9190613075565b601554611cbb906001613075565b611c6881336126b7565b5f8060045460ff166003811115611d3e57611d3e612f57565b148015611d4d5750600e544210155b15611d585750600190565b5060045460ff1690565b80351580611d74575060018160200135105b80611d83575060018160400135105b80611d9057506060810135155b80611d9d575060a0810135155b80611dad57506127108160c00135115b80611dbd57506127108160e00135115b15611ddb576040516331f4a25760e11b815260040160405180910390fd5b60155481606001351015611e02576040516331f4a25760e11b815260040160405180910390fd5b600160035f828254611e149190613075565b90915550508035600555602081013560065560408101356007556060810135600855608081013560095560a0810135600a5560c0810135600b5560e0810135600c556101008101355f03611e6b5742600d55611e9b565b428161010001351015611e91576040516331f4a25760e11b815260040160405180910390fd5b610100810135600d555b600d54611eaa90823590613075565b600e8190555f600f819055601081905560118190556012805460ff19908116909155601391909155601480546001600160a81b0319169055600480549091169055600354600d5460085460408051928352602083019490945292810192909252907fc8410c58dcf5346660095e2f1d4190cbb555bcbe378514f769f40c2ec3a250eb906060015b60405180910390a250565b5f611f478484611bbc565b90505f19811015610db75781811015611f7957828183604051637dc7a0d960e11b81526004016109569392919061320e565b610db784848484035f6125d3565b6001600160a01b038316611fb057604051634b637e8f60e11b81525f6004820152602401610956565b6001600160a01b038216611fd95760405163ec442f0560e01b81525f6004820152602401610956565b6109688383836126f0565b611fec612816565b610aa260017f9b779b17422d0df92223018b32b4d1fa46e071723d6817e2486d003becc55f005b90612856565b5f60125460ff16600181111561203157612031612f57565b148015612040575060145460ff165b801561204d57505f601354115b8015612068575060145461010090046001600160a01b031615155b156120d85760145460135461208e9161010090046001600160a01b0316906110b1610e4f565b6014546013546040519081526101009091046001600160a01b0316907f702a6335249d9dab52675a47c0c8ffe5a2e75b27d6d691bacce22ed3f44da0dc9060200160405180910390a25b5f6013819055601055601480546001600160a81b03191690556004805460ff191660011790558015611c68576003546040514281527f6a1a3313b96eadc137de06ac890f75309d6495d541c1fe0df1d708a03a98202290602001611f31565b610aa25f7f9b779b17422d0df92223018b32b4d1fa46e071723d6817e2486d003becc55f00612013565b5f60045460ff16600381111561217957612179612f57565b1480156121885750600e544210155b15610aa2576004805460ff19166001179055600e54600f81905560035460065490917f616f10eff85ee3ed06bb20aee4143d404ec17b7850f20352dd3b35cd782559e1916121d69082613075565b6040805192835260208301919091520160405180910390a2565b6121fe84848484600161285d565b610db757604051635274afe760e01b81526001600160a01b0385166004820152602401610956565b5f612253612233836128ca565b801561224e57505f84806122495761224961322f565b868809115b151590565b61225e8686866128f6565b6122689190613075565b95945050505050565b5f5f5160206133a45f395f51905f5261228a84846113cb565b612309575f848152602082815260408083206001600160a01b03871684529091529020805460ff191660011790556122bf3390565b6001600160a01b0316836001600160a01b0316857f2f8788117e7eff1d82e926ec794901d17c78024a50270940304540a733656f0d60405160405180910390a46001915050610819565b5f915050610819565b5f5f5160206133a45f395f51905f5261232b84846113cb565b15612309575f848152602082815260408083206001600160a01b0387168085529252808320805460ff1916905551339287917ff6391f5c32d9c69d2a47ea670b442974b53935d1edc7fd64eb21e047a839171b9190a46001915050610819565b5f8060045460ff1660038111156123a4576123a4612f57565b1480156123b35750600d544210155b8015611555575050600e54421090565b5f82821882841002821861098b565b6123df83838360016129a6565b61096857604051635274afe760e01b81526001600160a01b0384166004820152602401610956565b5f5f61241283610e7d565b90508084111561243b57828482604051633c8097d960e11b81526004016109569392919061320e565b5f612445856117f6565b905061245333858784612a08565b949350505050565b5f5f612466836117e9565b90508084111561248f5782848260405163284ff66760e01b81526004016109569392919061320e565b5f61249985611563565b905061245333858388612a08565b5f8060045460ff1660038111156124c0576124c0612f57565b1480156124cf5750600e544210155b156124db5750600e5490565b50600f5490565b5f5f6124ed83611801565b90508085111561251657828582604051633fa733bb60e21b81526004016109569392919061320e565b5f61252086610901565b90506122683386868985612a30565b5f5f61253a83611b6e565b90508085111561256357828582604051632e52afbb60e21b81526004016109569392919061320e565b5f61256d866108df565b9050612268338686848a612a30565b5f807ff0c57e16840df040f15088dc2f81fe391c3923bec73e23a9662efc9c229c6a00610819565b6125ac612a54565b6125b68282612a79565b5050565b6125c2612a54565b611c6881612ac9565b610aa2612a54565b5f5160206133845f395f51905f526001600160a01b03851661260a5760405163e602df0560e01b81525f6004820152602401610956565b6001600160a01b03841661263357604051634a1406b160e11b81525f6004820152602401610956565b6001600160a01b038086165f908152600183016020908152604080832093881683529290522083905581156126b057836001600160a01b0316856001600160a01b03167f8c5be1e5ebec7d5bd14f71427d1e84f3dd0314c0f7b2291e5b200ac8c7c3b925856040516126a791815260200190565b60405180910390a35b5050505050565b6126c182826113cb565b6125b65760405163e2517d3f60e01b81526001600160a01b038216600482015260248101839052604401610956565b5f5160206133845f395f51905f526001600160a01b03841661272a5781816002015f82825461271f9190613075565b909155506127879050565b6001600160a01b0384165f90815260208290526040902054828110156127695784818460405163391434e360e21b81526004016109569392919061320e565b6001600160a01b0385165f9081526020839052604090209083900390555b6001600160a01b0383166127a55760028101805483900390556127c3565b6001600160a01b0383165f9081526020829052604090208054830190555b826001600160a01b0316846001600160a01b03167fddf252ad1be2c89b69c2b068fc378daa952ba7f163c4a11628f55a4df523b3ef8460405161280891815260200190565b60405180910390a350505050565b7f9b779b17422d0df92223018b32b4d1fa46e071723d6817e2486d003becc55f005c15610aa257604051633ee5aeb560e01b815260040160405180910390fd5b80825d5050565b6040516323b872dd60e01b5f8181526001600160a01b038781166004528616602452604485905291602083606481808c5af1925060015f511483166128b95783831516156128ad573d5f823e3d81fd5b5f883b113d1516831692505b604052505f60605295945050505050565b5f60028260038111156128df576128df612f57565b6128e99190613243565b60ff166001149050919050565b5f5f5f6129038686612b4c565b91509150815f036129275783818161291d5761291d61322f565b049250505061098b565b81841161293e5761293e6003851502601118612b68565b5f848688095f868103871696879004966002600389028118808a02820302808a02820302808a02820302808a02820302808a02820302808a02909103029181900381900460010185841190960395909502919093039390930492909217029150509392505050565b60405163a9059cbb60e01b5f8181526001600160a01b038616600452602485905291602083604481808b5af1925060015f511483166129fc5783831516156129f0573d5f823e3d81fd5b5f873b113d1516831692505b60405250949350505050565b612a1484848484612b79565b8160155f828254612a259190613075565b909155505050505050565b8160155f828254612a4191906130c0565b909155506126b090508585858585612bdb565b612a5c612c7a565b610aa257604051631afcd79f60e31b815260040160405180910390fd5b612a81612a54565b5f5160206133845f395f51905f527f52c63247e1f47db19d5ce0460030c497f067ca4cebf71ba98eeadabe20bace03612aba84826132c8565b5060048101610db783826132c8565b612ad1612a54565b7f0773e532dfede91f04b12a73d3d2acd361424f41f76b4fb79f090161e36b4e005f80612afd84612c93565b9150915081612b0d576012612b0f565b805b83546001600160a81b031916600160a01b60ff92909216919091026001600160a01b031916176001600160a01b0394909416939093179091555050565b5f805f1983850993909202808410938190039390930393915050565b634e487b715f52806020526024601cfd5b612b838483612d1e565b612b8d8382612d31565b826001600160a01b0316846001600160a01b03167fdcbc1c05240f31ff3ad067ef1ee35ce4997762752e3a095284754544f4c709d78484604051612808929190918252602082015260400190565b826001600160a01b0316856001600160a01b031614612bff57612bff838683611f3c565b612c098382612d65565b612c138483612d99565b826001600160a01b0316846001600160a01b0316866001600160a01b03167ffbde797d201c681b91056529119e0b02407c7bb96a4a2c75c01fc9667232c8db8585604051612c6b929190918252602082015260400190565b60405180910390a45050505050565b5f612c8361257c565b54600160401b900460ff16919050565b5f5f5f612c9f60405190565b6040805160048152602481019091526020810180516001600160e01b031663313ce56760e01b1790529091505f908190612cda908790612dab565b5091509150612ce883604052565b818015612cf6575060203d10155b8015612d03575060ff8111155b612d0e575f5f612d12565b6001815b94509450505050915091565b6125b6612d29610e4f565b8330846121f0565b6001600160a01b038216612d5a5760405163ec442f0560e01b81525f6004820152602401610956565b6125b65f83836126f0565b6001600160a01b038216612d8e57604051634b637e8f60e11b81525f6004820152602401610956565b6125b6825f836126f0565b6125b6612da4610e4f565b83836123d2565b5f5f5f60405f855160208701885afa92505f51915060205190509250925092565b5f60208284031215612ddc575f5ffd5b81356001600160e01b03198116811461098b575f5ffd5b602081525f82518060208401528060208501604085015e5f604082850101526040601f19601f83011684010191505092915050565b5f60208284031215612e38575f5ffd5b5035919050565b80356001600160a01b0381168114612e55575f5ffd5b919050565b5f5f60408385031215612e6b575f5ffd5b612e7483612e3f565b946020939093013593505050565b5f610120828403128015612e94575f5ffd5b509092915050565b5f5f5f60608486031215612eae575f5ffd5b612eb784612e3f565b9250612ec560208501612e3f565b929592945050506040919091013590565b5f5f5f60608486031215612ee8575f5ffd5b833560028110612ef6575f5ffd5b925060208401359150612f0b60408501612e3f565b90509250925092565b5f5f60408385031215612f25575f5ffd5b82359150612f3560208401612e3f565b90509250929050565b5f60208284031215612f4e575f5ffd5b61098b82612e3f565b634e487b7160e01b5f52602160045260245ffd5b6020810160048310612f7f57612f7f612f57565b91905290565b5f5f5f60608486031215612f97575f5ffd5b83359250612fa760208501612e3f565b9150612f0b60408501612e3f565b5f60208284031215612fc5575f5ffd5b813567ffffffffffffffff811115612fdb575f5ffd5b8201610200818503121561098b575f5ffd5b5f5f60408385031215612ffe575f5ffd5b61300783612e3f565b9150612f3560208401612e3f565b6020810160028310612f7f57612f7f612f57565b600181811c9082168061303d57607f821691505b60208210810361305b57634e487b7160e01b5f52602260045260245ffd5b50919050565b634e487b7160e01b5f52601160045260245ffd5b8082018082111561081957610819613061565b60ff818116838216019081111561081957610819613061565b5f602082840312156130b1575f5ffd5b8151801515811461098b575f5ffd5b8181038181111561081957610819613061565b5f5f8335601e198436030181126130e8575f5ffd5b83018035915067ffffffffffffffff821115613102575f5ffd5b602001915036819003821315613116575f5ffd5b9250929050565b6001815b60018411156131585780850481111561313c5761313c613061565b600184161561314a57908102905b60019390931c928002613121565b935093915050565b5f8261316e57506001610819565b8161317a57505f610819565b8160018114613190576002811461319a576131b6565b6001915050610819565b60ff8411156131ab576131ab613061565b50506001821b610819565b5060208310610133831016604e8410600b84101617156131d9575081810a610819565b6131e55f19848461311d565b805f19048211156131f8576131f8613061565b029392505050565b5f61098b60ff841683613160565b6001600160a01b039390931683526020830191909152604082015260600190565b634e487b7160e01b5f52601260045260245ffd5b5f60ff83168061326157634e487b7160e01b5f52601260045260245ffd5b8060ff84160691505092915050565b634e487b7160e01b5f52604160045260245ffd5b601f82111561096857805f5260205f20601f840160051c810160208510156132a95750805b601f840160051c820191505b818110156126b0575f81556001016132b5565b815167ffffffffffffffff8111156132e2576132e2613270565b6132f6816132f08454613029565b84613284565b6020601f821160018114613328575f83156133115750848201515b5f19600385901b1c1916600184901b1784556126b0565b5f84815260208120601f198516915b828110156133575787850151825560209485019460019092019101613337565b508482101561337457868401515f19600387901b60f8161c191681555b50505050600190811b0190555056fe52c63247e1f47db19d5ce0460030c497f067ca4cebf71ba98eeadabe20bace0002dd7bc7dec4dceedda775e58dd541e08a116c6c53815c0bd028192f7b626800a26469706673582212205a8b7b7fb03f303fa2518129b276e590bcbc97b3ed3a0e4723eb6716d1d91bcd64736f6c634300081c0033608060405234801561000f575f5ffd5b5060405161042138038061042183398101604081905261002e9161015f565b806001600160a01b03811661005d57604051631e4fbdf760e01b81525f60048201526024015b60405180910390fd5b61006681610077565b50610070826100c6565b5050610190565b5f80546001600160a01b038381166001600160a01b0319831681178455604051919092169283917f8be0079c531659141344cd1fd0a4f28419497f9722a3daafe3b4186f6b6457e09190a35050565b806001600160a01b03163b5f036100fb5760405163211eb15960e21b81526001600160a01b0382166004820152602401610054565b600180546001600160a01b0319166001600160a01b0383169081179091556040517fbc7cd75a20ee27fd9adebab32041f755214dbc6bffa90cc0225b39da2e5c2d3b905f90a250565b80516001600160a01b038116811461015a575f5ffd5b919050565b5f5f60408385031215610170575f5ffd5b61017983610144565b915061018760208401610144565b90509250929050565b6102848061019d5f395ff3fe608060405234801561000f575f5ffd5b5060043610610055575f3560e01c80633659cfe6146100595780635c60da1b1461006e578063715018a6146100975780638da5cb5b1461009f578063f2fde38b146100af575b5f5ffd5b61006c610067366004610221565b6100c2565b005b6001546001600160a01b03165b6040516001600160a01b03909116815260200160405180910390f35b61006c6100d6565b5f546001600160a01b031661007b565b61006c6100bd366004610221565b6100e9565b6100ca610128565b6100d381610154565b50565b6100de610128565b6100e75f6101d2565b565b6100f1610128565b6001600160a01b03811661011f57604051631e4fbdf760e01b81525f60048201526024015b60405180910390fd5b6100d3816101d2565b5f546001600160a01b031633146100e75760405163118cdaa760e01b8152336004820152602401610116565b806001600160a01b03163b5f036101895760405163211eb15960e21b81526001600160a01b0382166004820152602401610116565b600180546001600160a01b0319166001600160a01b0383169081179091556040517fbc7cd75a20ee27fd9adebab32041f755214dbc6bffa90cc0225b39da2e5c2d3b905f90a250565b5f80546001600160a01b038381166001600160a01b0319831681178455604051919092169283917f8be0079c531659141344cd1fd0a4f28419497f9722a3daafe3b4186f6b6457e09190a35050565b5f60208284031215610231575f5ffd5b81356001600160a01b0381168114610247575f5ffd5b939250505056fea2646970667358221220f3ee2f7c9a38eefc42904ebb9ca19cd8ae6f7f7449f80d6ffd99ed6d57d28b2264736f6c634300081c0033cd5ed15c6e187e77e9aee88184c21f4f2182ab5827cb3b7e07fbedcd63f03300a26469706673582212201a0e63588adec0f027f94e3d647c6b25ebaa4d389f99cdb53e49284248034db764736f6c634300081c0033",
  "linkReferences": {},
  "deployedLinkReferences": {},
  "immutableReferences": {},
  "inputSourceName": "project/contracts/YieldVaultFactory.sol",
  "devdoc": {
    "errors": {
      "EnforcedPause()": [
        {
          "details": "The operation failed because the contract is paused."
        }
      ],
      "ExpectedPause()": [
        {
          "details": "The operation failed because the contract is not paused."
        }
      ],
      "InvalidInitialization()": [
        {
          "details": "The contract is already initialized."
        }
      ],
      "NotInitializing()": [
        {
          "details": "The contract is not initializing."
        }
      ],
      "OwnableInvalidOwner(address)": [
        {
          "details": "The owner is not a valid owner account. (eg. `address(0)`)"
        }
      ],
      "OwnableUnauthorizedAccount(address)": [
        {
          "details": "The caller account is not authorized to perform an operation."
        }
      ]
    },
    "events": {
      "Initialized(uint64)": {
        "details": "Triggered when the contract has been initialized or reinitialized."
      },
      "Paused(address)": {
        "details": "Emitted when the pause is triggered by `account`."
      },
      "Unpaused(address)": {
        "details": "Emitted when the pause is lifted by `account`."
      }
    },
    "kind": "dev",
    "methods": {
      "constructor": {
        "custom:oz-upgrades-unsafe-allow": "constructor"
      },
      "owner()": {
        "details": "Returns the address of the current owner."
      },
      "paused()": {
        "details": "Returns true if the contract is paused, and false otherwise."
      },
      "renounceOwnership()": {
        "details": "Leaves the contract without owner. It will not be possible to call `onlyOwner` functions. Can only be called by the current owner. NOTE: Renouncing ownership will leave the contract without an owner, thereby disabling any functionality that is only available to the owner."
      },
      "transferOwnership(address)": {
        "details": "Transfers ownership of the contract to a new account (`newOwner`). Can only be called by the current owner."
      }
    },
    "version": 1
  },
  "evm": {
    "gasEstimates": {
      "creation": {
        "codeDepositCost": "4035200",
        "executionCost": "34236",
        "totalCost": "4069436"
      },
      "external": {
        "addCounterpartyToWhitelist(address)": "28344",
        "allProxies(uint256)": "4622",
        "beacon()": "2347",
        "counterpartyWhitelist(address)": "2545",
        "createYieldVault((address,address,address,address,address,string,string,(uint256,uint256,uint256,uint256,uint256,uint256,uint256,uint256,uint256)))": "infinite",
        "currentImplementation()": "infinite",
        "emergencyCancel(address)": "infinite",
        "getAllProxies()": "infinite",
        "initialize(address)": "infinite",
        "isFactoryVault(address)": "2612",
        "owner()": "2386",
        "pause()": "infinite",
        "paused()": "infinite",
        "removeCounterpartyFromWhitelist(address)": "28357",
        "renounceOwnership()": "infinite",
        "totalProxies()": "2390",
        "transferOwnership(address)": "infinite",
        "unpause()": "infinite",
        "upgradeBeaconTo(address)": "infinite"
      }
    }
  },
  "storageLayout": {
    "storage": [
      {
        "astId": 10880,
        "contract": "project/contracts/YieldVaultFactory.sol:YieldVaultFactory",
        "label": "beacon",
        "offset": 0,
        "slot": "0",
        "type": "t_contract(UpgradeableBeacon)3351"
      },
      {
        "astId": 10883,
        "contract": "project/contracts/YieldVaultFactory.sol:YieldVaultFactory",
        "label": "allProxies",
        "offset": 0,
        "slot": "1",
        "type": "t_array(t_address)dyn_storage"
      },
      {
        "astId": 10887,
        "contract": "project/contracts/YieldVaultFactory.sol:YieldVaultFactory",
        "label": "isFactoryVault",
        "offset": 0,
        "slot": "2",
        "type": "t_mapping(t_address,t_bool)"
      },
      {
        "astId": 10891,
        "contract": "project/contracts/YieldVaultFactory.sol:YieldVaultFactory",
        "label": "counterpartyWhitelist",
        "offset": 0,
        "slot": "3",
        "type": "t_mapping(t_address,t_bool)"
      }
    ],
    "types": {
      "t_address": {
        "encoding": "inplace",
        "label": "address",
        "numberOfBytes": "20"
      },
      "t_array(t_address)dyn_storage": {
        "base": "t_address",
        "encoding": "dynamic_array",
        "label": "address[]",
        "numberOfBytes": "32"
      },
      "t_bool": {
        "encoding": "inplace",
        "label": "bool",
        "numberOfBytes": "1"
      },
      "t_contract(UpgradeableBeacon)3351": {
        "encoding": "inplace",
        "label": "contract UpgradeableBeacon",
        "numberOfBytes": "20"
      },
      "t_mapping(t_address,t_bool)": {
        "encoding": "mapping",
        "key": "t_address",
        "label": "mapping(address => bool)",
        "numberOfBytes": "32",
        "value": "t_bool"
      }
    }
  },
  "userdoc": {
    "errors": {
      "InvalidCounterparty()": [
        {
          "notice": "Thrown when counterparty address is invalid"
        }
      ],
      "InvalidFactoryInParams(address)": [
        {
          "notice": "Thrown when init params factory is not current factory"
        }
      ],
      "InvalidImplementation()": [
        {
          "notice": "Thrown when implementation address has no code"
        }
      ],
      "InvalidVault(address)": [
        {
          "notice": "Thrown when vault address is not created by factory"
        }
      ]
    },
    "kind": "user",
    "methods": {
      "addCounterpartyToWhitelist(address)": {
        "notice": "Add counterparty address into whitelist"
      },
      "emergencyCancel(address)": {
        "notice": "Emergency-cancel an epoch vault (only works while vault is SUBSCRIBING)"
      },
      "pause()": {
        "notice": "Pause factory: block createYieldVault and downstream vault deposit/fundProfit checks"
      },
      "removeCounterpartyFromWhitelist(address)": {
        "notice": "Remove counterparty address from whitelist"
      },
      "unpause()": {
        "notice": "Unpause factory"
      }
    },
    "version": 1
  },
  "argsData": "0x",
  "transaction": {
    "hash": "0x99929fa67a00a0e5db1fd816c2d322bf0383e9bfba1c5317801241af212ee801",
    "nonce": "0x11",
    "origin": "0x4597c97a43dfbb4a398e2b16aa9ce61f90d801dd"
  }
}