{
  "address": "0x2b2ef1f054661883238db53be83e277adf979dd3",
  "abi": [
    {
      "inputs": [],
      "stateMutability": "nonpayable",
      "type": "constructor"
    },
    {
      "inputs": [],
      "name": "AccessControlBadConfirmation",
      "type": "error"
    },
    {
      "inputs": [
        {
          "internalType": "address",
          "name": "account",
          "type": "address"
        },
        {
          "internalType": "bytes32",
          "name": "neededRole",
          "type": "bytes32"
        }
      ],
      "name": "AccessControlUnauthorizedAccount",
      "type": "error"
    },
    {
      "inputs": [
        {
          "internalType": "uint256",
          "name": "amount",
          "type": "uint256"
        },
        {
          "internalType": "uint256",
          "name": "min",
          "type": "uint256"
        }
      ],
      "name": "BelowMinSubscription",
      "type": "error"
    },
    {
      "inputs": [
        {
          "internalType": "address",
          "name": "spender",
          "type": "address"
        },
        {
          "internalType": "uint256",
          "name": "allowance",
          "type": "uint256"
        },
        {
          "internalType": "uint256",
          "name": "needed",
          "type": "uint256"
        }
      ],
      "name": "ERC20InsufficientAllowance",
      "type": "error"
    },
    {
      "inputs": [
        {
          "internalType": "address",
          "name": "sender",
          "type": "address"
        },
        {
          "internalType": "uint256",
          "name": "balance",
          "type": "uint256"
        },
        {
          "internalType": "uint256",
          "name": "needed",
          "type": "uint256"
        }
      ],
      "name": "ERC20InsufficientBalance",
      "type": "error"
    },
    {
      "inputs": [
        {
          "internalType": "address",
          "name": "approver",
          "type": "address"
        }
      ],
      "name": "ERC20InvalidApprover",
      "type": "error"
    },
    {
      "inputs": [
        {
          "internalType": "address",
          "name": "receiver",
          "type": "address"
        }
      ],
      "name": "ERC20InvalidReceiver",
      "type": "error"
    },
    {
      "inputs": [
        {
          "internalType": "address",
          "name": "sender",
          "type": "address"
        }
      ],
      "name": "ERC20InvalidSender",
      "type": "error"
    },
    {
      "inputs": [
        {
          "internalType": "address",
          "name": "spender",
          "type": "address"
        }
      ],
      "name": "ERC20InvalidSpender",
      "type": "error"
    },
    {
      "inputs": [
        {
          "internalType": "address",
          "name": "receiver",
          "type": "address"
        },
        {
          "internalType": "uint256",
          "name": "assets",
          "type": "uint256"
        },
        {
          "internalType": "uint256",
          "name": "max",
          "type": "uint256"
        }
      ],
      "name": "ERC4626ExceededMaxDeposit",
      "type": "error"
    },
    {
      "inputs": [
        {
          "internalType": "address",
          "name": "receiver",
          "type": "address"
        },
        {
          "internalType": "uint256",
          "name": "shares",
          "type": "uint256"
        },
        {
          "internalType": "uint256",
          "name": "max",
          "type": "uint256"
        }
      ],
      "name": "ERC4626ExceededMaxMint",
      "type": "error"
    },
    {
      "inputs": [
        {
          "internalType": "address",
          "name": "owner",
          "type": "address"
        },
        {
          "internalType": "uint256",
          "name": "shares",
          "type": "uint256"
        },
        {
          "internalType": "uint256",
          "name": "max",
          "type": "uint256"
        }
      ],
      "name": "ERC4626ExceededMaxRedeem",
      "type": "error"
    },
    {
      "inputs": [
        {
          "internalType": "address",
          "name": "owner",
          "type": "address"
        },
        {
          "internalType": "uint256",
          "name": "assets",
          "type": "uint256"
        },
        {
          "internalType": "uint256",
          "name": "max",
          "type": "uint256"
        }
      ],
      "name": "ERC4626ExceededMaxWithdraw",
      "type": "error"
    },
    {
      "inputs": [],
      "name": "FactoryPaused",
      "type": "error"
    },
    {
      "inputs": [],
      "name": "InvalidAddress",
      "type": "error"
    },
    {
      "inputs": [],
      "name": "InvalidInitialization",
      "type": "error"
    },
    {
      "inputs": [
        {
          "internalType": "enum YieldVault.Phase",
          "name": "current",
          "type": "uint8"
        }
      ],
      "name": "InvalidPhase",
      "type": "error"
    },
    {
      "inputs": [],
      "name": "InvalidRoundParams",
      "type": "error"
    },
    {
      "inputs": [],
      "name": "InvalidSettleMode",
      "type": "error"
    },
    {
      "inputs": [],
      "name": "InvalidSettlementInput",
      "type": "error"
    },
    {
      "inputs": [
        {
          "internalType": "uint256",
          "name": "loss",
          "type": "uint256"
        },
        {
          "internalType": "uint256",
          "name": "managed",
          "type": "uint256"
        }
      ],
      "name": "LossExceedManaged",
      "type": "error"
    },
    {
      "inputs": [],
      "name": "NotInitializing",
      "type": "error"
    },
    {
      "inputs": [],
      "name": "ProfitAlreadyFunded",
      "type": "error"
    },
    {
      "inputs": [],
      "name": "ProfitNotFunded",
      "type": "error"
    },
    {
      "inputs": [],
      "name": "ReentrancyGuardReentrantCall",
      "type": "error"
    },
    {
      "inputs": [
        {
          "internalType": "address",
          "name": "token",
          "type": "address"
        }
      ],
      "name": "SafeERC20FailedOperation",
      "type": "error"
    },
    {
      "inputs": [
        {
          "internalType": "uint256",
          "name": "unlockAt",
          "type": "uint256"
        }
      ],
      "name": "TimelockNotExpired",
      "type": "error"
    },
    {
      "inputs": [],
      "name": "VaultNotMatured",
      "type": "error"
    },
    {
      "anonymous": false,
      "inputs": [
        {
          "indexed": true,
          "internalType": "address",
          "name": "owner",
          "type": "address"
        },
        {
          "indexed": true,
          "internalType": "address",
          "name": "spender",
          "type": "address"
        },
        {
          "indexed": false,
          "internalType": "uint256",
          "name": "value",
          "type": "uint256"
        }
      ],
      "name": "Approval",
      "type": "event"
    },
    {
      "anonymous": false,
      "inputs": [
        {
          "indexed": true,
          "internalType": "address",
          "name": "counterparty",
          "type": "address"
        },
        {
          "indexed": false,
          "internalType": "uint256",
          "name": "amount",
          "type": "uint256"
        }
      ],
      "name": "CounterpartyProceedsPaid",
      "type": "event"
    },
    {
      "anonymous": false,
      "inputs": [
        {
          "indexed": true,
          "internalType": "address",
          "name": "sender",
          "type": "address"
        },
        {
          "indexed": true,
          "internalType": "address",
          "name": "owner",
          "type": "address"
        },
        {
          "indexed": false,
          "internalType": "uint256",
          "name": "assets",
          "type": "uint256"
        },
        {
          "indexed": false,
          "internalType": "uint256",
          "name": "shares",
          "type": "uint256"
        }
      ],
      "name": "Deposit",
      "type": "event"
    },
    {
      "anonymous": false,
      "inputs": [
        {
          "indexed": false,
          "internalType": "uint256",
          "name": "at",
          "type": "uint256"
        }
      ],
      "name": "EmergencyCancelled",
      "type": "event"
    },
    {
      "anonymous": false,
      "inputs": [
        {
          "indexed": false,
          "internalType": "uint64",
          "name": "version",
          "type": "uint64"
        }
      ],
      "name": "Initialized",
      "type": "event"
    },
    {
      "anonymous": false,
      "inputs": [
        {
          "indexed": true,
          "internalType": "uint256",
          "name": "roundIndex",
          "type": "uint256"
        },
        {
          "indexed": false,
          "internalType": "uint256",
          "name": "previousOpenDeadline",
          "type": "uint256"
        },
        {
          "indexed": false,
          "internalType": "uint256",
          "name": "newOpenDeadline",
          "type": "uint256"
        }
      ],
      "name": "OpenPeriodExtended",
      "type": "event"
    },
    {
      "anonymous": false,
      "inputs": [
        {
          "indexed": true,
          "internalType": "address",
          "name": "funder",
          "type": "address"
        },
        {
          "indexed": false,
          "internalType": "uint256",
          "name": "amount",
          "type": "uint256"
        }
      ],
      "name": "ProfitFunded",
      "type": "event"
    },
    {
      "anonymous": false,
      "inputs": [
        {
          "indexed": true,
          "internalType": "address",
          "name": "funder",
          "type": "address"
        },
        {
          "indexed": false,
          "internalType": "uint256",
          "name": "amount",
          "type": "uint256"
        }
      ],
      "name": "ProfitRefunded",
      "type": "event"
    },
    {
      "anonymous": false,
      "inputs": [
        {
          "indexed": true,
          "internalType": "bytes32",
          "name": "role",
          "type": "bytes32"
        },
        {
          "indexed": true,
          "internalType": "bytes32",
          "name": "previousAdminRole",
          "type": "bytes32"
        },
        {
          "indexed": true,
          "internalType": "bytes32",
          "name": "newAdminRole",
          "type": "bytes32"
        }
      ],
      "name": "RoleAdminChanged",
      "type": "event"
    },
    {
      "anonymous": false,
      "inputs": [
        {
          "indexed": true,
          "internalType": "bytes32",
          "name": "role",
          "type": "bytes32"
        },
        {
          "indexed": true,
          "internalType": "address",
          "name": "account",
          "type": "address"
        },
        {
          "indexed": true,
          "internalType": "address",
          "name": "sender",
          "type": "address"
        }
      ],
      "name": "RoleGranted",
      "type": "event"
    },
    {
      "anonymous": false,
      "inputs": [
        {
          "indexed": true,
          "internalType": "bytes32",
          "name": "role",
          "type": "bytes32"
        },
        {
          "indexed": true,
          "internalType": "address",
          "name": "account",
          "type": "address"
        },
        {
          "indexed": true,
          "internalType": "address",
          "name": "sender",
          "type": "address"
        }
      ],
      "name": "RoleRevoked",
      "type": "event"
    },
    {
      "anonymous": false,
      "inputs": [
        {
          "indexed": true,
          "internalType": "uint256",
          "name": "roundIndex",
          "type": "uint256"
        },
        {
          "indexed": false,
          "internalType": "uint256",
          "name": "lockedAt",
          "type": "uint256"
        },
        {
          "indexed": false,
          "internalType": "uint256",
          "name": "lockMaturity",
          "type": "uint256"
        }
      ],
      "name": "RoundLocked",
      "type": "event"
    },
    {
      "anonymous": false,
      "inputs": [
        {
          "indexed": true,
          "internalType": "uint256",
          "name": "roundIndex",
          "type": "uint256"
        },
        {
          "indexed": false,
          "internalType": "uint256",
          "name": "openedAt",
          "type": "uint256"
        },
        {
          "indexed": false,
          "internalType": "uint256",
          "name": "openDeadline",
          "type": "uint256"
        },
        {
          "indexed": false,
          "internalType": "uint256",
          "name": "roundCap",
          "type": "uint256"
        }
      ],
      "name": "RoundOpened",
      "type": "event"
    },
    {
      "anonymous": false,
      "inputs": [
        {
          "indexed": true,
          "internalType": "uint256",
          "name": "roundIndex",
          "type": "uint256"
        },
        {
          "indexed": false,
          "internalType": "uint256",
          "name": "at",
          "type": "uint256"
        }
      ],
      "name": "SettlementCancelled",
      "type": "event"
    },
    {
      "anonymous": false,
      "inputs": [
        {
          "indexed": true,
          "internalType": "uint256",
          "name": "roundIndex",
          "type": "uint256"
        },
        {
          "indexed": true,
          "internalType": "enum YieldVault.SettleMode",
          "name": "mode",
          "type": "uint8"
        },
        {
          "indexed": false,
          "internalType": "uint256",
          "name": "amount",
          "type": "uint256"
        },
        {
          "indexed": false,
          "internalType": "uint256",
          "name": "netProfit",
          "type": "uint256"
        },
        {
          "indexed": false,
          "internalType": "uint256",
          "name": "fee",
          "type": "uint256"
        },
        {
          "indexed": false,
          "internalType": "uint256",
          "name": "settledAt",
          "type": "uint256"
        }
      ],
      "name": "SettlementFinalized",
      "type": "event"
    },
    {
      "anonymous": false,
      "inputs": [
        {
          "indexed": true,
          "internalType": "uint256",
          "name": "roundIndex",
          "type": "uint256"
        },
        {
          "indexed": true,
          "internalType": "enum YieldVault.SettleMode",
          "name": "mode",
          "type": "uint8"
        },
        {
          "indexed": false,
          "internalType": "uint256",
          "name": "amount",
          "type": "uint256"
        },
        {
          "indexed": false,
          "internalType": "uint256",
          "name": "proposedAt",
          "type": "uint256"
        },
        {
          "indexed": false,
          "internalType": "bool",
          "name": "funded",
          "type": "bool"
        },
        {
          "indexed": true,
          "internalType": "address",
          "name": "funder",
          "type": "address"
        }
      ],
      "name": "SettlementProposed",
      "type": "event"
    },
    {
      "anonymous": false,
      "inputs": [
        {
          "indexed": true,
          "internalType": "address",
          "name": "from",
          "type": "address"
        },
        {
          "indexed": true,
          "internalType": "address",
          "name": "to",
          "type": "address"
        },
        {
          "indexed": false,
          "internalType": "uint256",
          "name": "value",
          "type": "uint256"
        }
      ],
      "name": "Transfer",
      "type": "event"
    },
    {
      "anonymous": false,
      "inputs": [
        {
          "indexed": true,
          "internalType": "address",
          "name": "sender",
          "type": "address"
        },
        {
          "indexed": true,
          "internalType": "address",
          "name": "receiver",
          "type": "address"
        },
        {
          "indexed": true,
          "internalType": "address",
          "name": "owner",
          "type": "address"
        },
        {
          "indexed": false,
          "internalType": "uint256",
          "name": "assets",
          "type": "uint256"
        },
        {
          "indexed": false,
          "internalType": "uint256",
          "name": "shares",
          "type": "uint256"
        }
      ],
      "name": "Withdraw",
      "type": "event"
    },
    {
      "inputs": [],
      "name": "DEFAULT_ADMIN_ROLE",
      "outputs": [
        {
          "internalType": "bytes32",
          "name": "",
          "type": "bytes32"
        }
      ],
      "stateMutability": "view",
      "type": "function"
    },
    {
      "inputs": [],
      "name": "MAX_OPEN_EXTENSION",
      "outputs": [
        {
          "internalType": "uint256",
          "name": "",
          "type": "uint256"
        }
      ],
      "stateMutability": "view",
      "type": "function"
    },
    {
      "inputs": [],
      "name": "MAX_PERFORMANCE_FEE_BPS",
      "outputs": [
        {
          "internalType": "uint256",
          "name": "",
          "type": "uint256"
        }
      ],
      "stateMutability": "view",
      "type": "function"
    },
    {
      "inputs": [],
      "name": "MIN_LOCK_DURATION",
      "outputs": [
        {
          "internalType": "uint256",
          "name": "",
          "type": "uint256"
        }
      ],
      "stateMutability": "view",
      "type": "function"
    },
    {
      "inputs": [],
      "name": "MIN_SETTLE_TIMELOCK",
      "outputs": [
        {
          "internalType": "uint256",
          "name": "",
          "type": "uint256"
        }
      ],
      "stateMutability": "view",
      "type": "function"
    },
    {
      "inputs": [
        {
          "internalType": "address",
          "name": "owner",
          "type": "address"
        },
        {
          "internalType": "address",
          "name": "spender",
          "type": "address"
        }
      ],
      "name": "allowance",
      "outputs": [
        {
          "internalType": "uint256",
          "name": "",
          "type": "uint256"
        }
      ],
      "stateMutability": "view",
      "type": "function"
    },
    {
      "inputs": [
        {
          "internalType": "address",
          "name": "spender",
          "type": "address"
        },
        {
          "internalType": "uint256",
          "name": "value",
          "type": "uint256"
        }
      ],
      "name": "approve",
      "outputs": [
        {
          "internalType": "bool",
          "name": "",
          "type": "bool"
        }
      ],
      "stateMutability": "nonpayable",
      "type": "function"
    },
    {
      "inputs": [],
      "name": "asset",
      "outputs": [
        {
          "internalType": "address",
          "name": "",
          "type": "address"
        }
      ],
      "stateMutability": "view",
      "type": "function"
    },
    {
      "inputs": [
        {
          "internalType": "address",
          "name": "account",
          "type": "address"
        }
      ],
      "name": "balanceOf",
      "outputs": [
        {
          "internalType": "uint256",
          "name": "",
          "type": "uint256"
        }
      ],
      "stateMutability": "view",
      "type": "function"
    },
    {
      "inputs": [],
      "name": "cancelProposedSettlement",
      "outputs": [],
      "stateMutability": "nonpayable",
      "type": "function"
    },
    {
      "inputs": [
        {
          "internalType": "uint256",
          "name": "shares",
          "type": "uint256"
        }
      ],
      "name": "convertToAssets",
      "outputs": [
        {
          "internalType": "uint256",
          "name": "",
          "type": "uint256"
        }
      ],
      "stateMutability": "view",
      "type": "function"
    },
    {
      "inputs": [
        {
          "internalType": "uint256",
          "name": "assets",
          "type": "uint256"
        }
      ],
      "name": "convertToShares",
      "outputs": [
        {
          "internalType": "uint256",
          "name": "",
          "type": "uint256"
        }
      ],
      "stateMutability": "view",
      "type": "function"
    },
    {
      "inputs": [],
      "name": "counterparty",
      "outputs": [
        {
          "internalType": "address",
          "name": "",
          "type": "address"
        }
      ],
      "stateMutability": "view",
      "type": "function"
    },
    {
      "inputs": [],
      "name": "decimals",
      "outputs": [
        {
          "internalType": "uint8",
          "name": "",
          "type": "uint8"
        }
      ],
      "stateMutability": "view",
      "type": "function"
    },
    {
      "inputs": [
        {
          "internalType": "uint256",
          "name": "assets",
          "type": "uint256"
        },
        {
          "internalType": "address",
          "name": "receiver",
          "type": "address"
        }
      ],
      "name": "deposit",
      "outputs": [
        {
          "internalType": "uint256",
          "name": "",
          "type": "uint256"
        }
      ],
      "stateMutability": "nonpayable",
      "type": "function"
    },
    {
      "inputs": [],
      "name": "emergencyCancel",
      "outputs": [],
      "stateMutability": "nonpayable",
      "type": "function"
    },
    {
      "inputs": [
        {
          "internalType": "uint256",
          "name": "extension",
          "type": "uint256"
        }
      ],
      "name": "extendOpenPeriod",
      "outputs": [],
      "stateMutability": "nonpayable",
      "type": "function"
    },
    {
      "inputs": [],
      "name": "factory",
      "outputs": [
        {
          "internalType": "address",
          "name": "",
          "type": "address"
        }
      ],
      "stateMutability": "view",
      "type": "function"
    },
    {
      "inputs": [],
      "name": "feeRecipient",
      "outputs": [
        {
          "internalType": "address",
          "name": "",
          "type": "address"
        }
      ],
      "stateMutability": "view",
      "type": "function"
    },
    {
      "inputs": [],
      "name": "finalize",
      "outputs": [],
      "stateMutability": "nonpayable",
      "type": "function"
    },
    {
      "inputs": [],
      "name": "fundProfit",
      "outputs": [],
      "stateMutability": "nonpayable",
      "type": "function"
    },
    {
      "inputs": [
        {
          "internalType": "bytes32",
          "name": "role",
          "type": "bytes32"
        }
      ],
      "name": "getRoleAdmin",
      "outputs": [
        {
          "internalType": "bytes32",
          "name": "",
          "type": "bytes32"
        }
      ],
      "stateMutability": "view",
      "type": "function"
    },
    {
      "inputs": [
        {
          "internalType": "bytes32",
          "name": "role",
          "type": "bytes32"
        },
        {
          "internalType": "address",
          "name": "account",
          "type": "address"
        }
      ],
      "name": "grantRole",
      "outputs": [],
      "stateMutability": "nonpayable",
      "type": "function"
    },
    {
      "inputs": [
        {
          "internalType": "bytes32",
          "name": "role",
          "type": "bytes32"
        },
        {
          "internalType": "address",
          "name": "account",
          "type": "address"
        }
      ],
      "name": "hasRole",
      "outputs": [
        {
          "internalType": "bool",
          "name": "",
          "type": "bool"
        }
      ],
      "stateMutability": "view",
      "type": "function"
    },
    {
      "inputs": [
        {
          "components": [
            {
              "internalType": "address",
              "name": "asset",
              "type": "address"
            },
            {
              "internalType": "address",
              "name": "factory",
              "type": "address"
            },
            {
              "internalType": "address",
              "name": "admin",
              "type": "address"
            },
            {
              "internalType": "address",
              "name": "counterparty",
              "type": "address"
            },
            {
              "internalType": "address",
              "name": "feeRecipient",
              "type": "address"
            },
            {
              "internalType": "string",
              "name": "name",
              "type": "string"
            },
            {
              "internalType": "string",
              "name": "symbol",
              "type": "string"
            },
            {
              "components": [
                {
                  "internalType": "uint256",
                  "name": "openWindow",
                  "type": "uint256"
                },
                {
                  "internalType": "uint256",
                  "name": "lockDuration",
                  "type": "uint256"
                },
                {
                  "internalType": "uint256",
                  "name": "settleTimelockWindow",
                  "type": "uint256"
                },
                {
                  "internalType": "uint256",
                  "name": "roundCap",
                  "type": "uint256"
                },
                {
                  "internalType": "uint256",
                  "name": "perAddressCap",
                  "type": "uint256"
                },
                {
                  "internalType": "uint256",
                  "name": "minSubscription",
                  "type": "uint256"
                },
                {
                  "internalType": "uint256",
                  "name": "performanceFeeBps",
                  "type": "uint256"
                },
                {
                  "internalType": "uint256",
                  "name": "maxLossBps",
                  "type": "uint256"
                },
                {
                  "internalType": "uint256",
                  "name": "openedAt",
                  "type": "uint256"
                }
              ],
              "internalType": "struct YieldVault.RoundParams",
              "name": "firstRound",
              "type": "tuple"
            }
          ],
          "internalType": "struct YieldVault.InitParams",
          "name": "p",
          "type": "tuple"
        }
      ],
      "name": "initialize",
      "outputs": [],
      "stateMutability": "nonpayable",
      "type": "function"
    },
    {
      "inputs": [],
      "name": "lockDuration",
      "outputs": [
        {
          "internalType": "uint256",
          "name": "",
          "type": "uint256"
        }
      ],
      "stateMutability": "view",
      "type": "function"
    },
    {
      "inputs": [],
      "name": "lockedAt",
      "outputs": [
        {
          "internalType": "uint256",
          "name": "",
          "type": "uint256"
        }
      ],
      "stateMutability": "view",
      "type": "function"
    },
    {
      "inputs": [
        {
          "internalType": "address",
          "name": "receiver",
          "type": "address"
        }
      ],
      "name": "maxDeposit",
      "outputs": [
        {
          "internalType": "uint256",
          "name": "",
          "type": "uint256"
        }
      ],
      "stateMutability": "view",
      "type": "function"
    },
    {
      "inputs": [],
      "name": "maxLossBps",
      "outputs": [
        {
          "internalType": "uint256",
          "name": "",
          "type": "uint256"
        }
      ],
      "stateMutability": "view",
      "type": "function"
    },
    {
      "inputs": [
        {
          "internalType": "address",
          "name": "receiver",
          "type": "address"
        }
      ],
      "name": "maxMint",
      "outputs": [
        {
          "internalType": "uint256",
          "name": "",
          "type": "uint256"
        }
      ],
      "stateMutability": "view",
      "type": "function"
    },
    {
      "inputs": [
        {
          "internalType": "address",
          "name": "owner",
          "type": "address"
        }
      ],
      "name": "maxRedeem",
      "outputs": [
        {
          "internalType": "uint256",
          "name": "",
          "type": "uint256"
        }
      ],
      "stateMutability": "view",
      "type": "function"
    },
    {
      "inputs": [
        {
          "internalType": "address",
          "name": "owner",
          "type": "address"
        }
      ],
      "name": "maxWithdraw",
      "outputs": [
        {
          "internalType": "uint256",
          "name": "",
          "type": "uint256"
        }
      ],
      "stateMutability": "view",
      "type": "function"
    },
    {
      "inputs": [],
      "name": "minSubscription",
      "outputs": [
        {
          "internalType": "uint256",
          "name": "",
          "type": "uint256"
        }
      ],
      "stateMutability": "view",
      "type": "function"
    },
    {
      "inputs": [
        {
          "internalType": "uint256",
          "name": "shares",
          "type": "uint256"
        },
        {
          "internalType": "address",
          "name": "receiver",
          "type": "address"
        }
      ],
      "name": "mint",
      "outputs": [
        {
          "internalType": "uint256",
          "name": "",
          "type": "uint256"
        }
      ],
      "stateMutability": "nonpayable",
      "type": "function"
    },
    {
      "inputs": [],
      "name": "name",
      "outputs": [
        {
          "internalType": "string",
          "name": "",
          "type": "string"
        }
      ],
      "stateMutability": "view",
      "type": "function"
    },
    {
      "inputs": [],
      "name": "openDeadline",
      "outputs": [
        {
          "internalType": "uint256",
          "name": "",
          "type": "uint256"
        }
      ],
      "stateMutability": "view",
      "type": "function"
    },
    {
      "inputs": [
        {
          "components": [
            {
              "internalType": "uint256",
              "name": "openWindow",
              "type": "uint256"
            },
            {
              "internalType": "uint256",
              "name": "lockDuration",
              "type": "uint256"
            },
            {
              "internalType": "uint256",
              "name": "settleTimelockWindow",
              "type": "uint256"
            },
            {
              "internalType": "uint256",
              "name": "roundCap",
              "type": "uint256"
            },
            {
              "internalType": "uint256",
              "name": "perAddressCap",
              "type": "uint256"
            },
            {
              "internalType": "uint256",
              "name": "minSubscription",
              "type": "uint256"
            },
            {
              "internalType": "uint256",
              "name": "performanceFeeBps",
              "type": "uint256"
            },
            {
              "internalType": "uint256",
              "name": "maxLossBps",
              "type": "uint256"
            },
            {
              "internalType": "uint256",
              "name": "openedAt",
              "type": "uint256"
            }
          ],
          "internalType": "struct YieldVault.RoundParams",
          "name": "params",
          "type": "tuple"
        }
      ],
      "name": "openNextRound",
      "outputs": [],
      "stateMutability": "nonpayable",
      "type": "function"
    },
    {
      "inputs": [],
      "name": "openWindow",
      "outputs": [
        {
          "internalType": "uint256",
          "name": "",
          "type": "uint256"
        }
      ],
      "stateMutability": "view",
      "type": "function"
    },
    {
      "inputs": [],
      "name": "openedAt",
      "outputs": [
        {
          "internalType": "uint256",
          "name": "",
          "type": "uint256"
        }
      ],
      "stateMutability": "view",
      "type": "function"
    },
    {
      "inputs": [],
      "name": "perAddressCap",
      "outputs": [
        {
          "internalType": "uint256",
          "name": "",
          "type": "uint256"
        }
      ],
      "stateMutability": "view",
      "type": "function"
    },
    {
      "inputs": [],
      "name": "performanceFeeBps",
      "outputs": [
        {
          "internalType": "uint256",
          "name": "",
          "type": "uint256"
        }
      ],
      "stateMutability": "view",
      "type": "function"
    },
    {
      "inputs": [],
      "name": "phase",
      "outputs": [
        {
          "internalType": "enum YieldVault.Phase",
          "name": "",
          "type": "uint8"
        }
      ],
      "stateMutability": "view",
      "type": "function"
    },
    {
      "inputs": [
        {
          "internalType": "uint256",
          "name": "assets",
          "type": "uint256"
        }
      ],
      "name": "previewDeposit",
      "outputs": [
        {
          "internalType": "uint256",
          "name": "",
          "type": "uint256"
        }
      ],
      "stateMutability": "view",
      "type": "function"
    },
    {
      "inputs": [
        {
          "internalType": "uint256",
          "name": "shares",
          "type": "uint256"
        }
      ],
      "name": "previewMint",
      "outputs": [
        {
          "internalType": "uint256",
          "name": "",
          "type": "uint256"
        }
      ],
      "stateMutability": "view",
      "type": "function"
    },
    {
      "inputs": [
        {
          "internalType": "uint256",
          "name": "shares",
          "type": "uint256"
        }
      ],
      "name": "previewRedeem",
      "outputs": [
        {
          "internalType": "uint256",
          "name": "",
          "type": "uint256"
        }
      ],
      "stateMutability": "view",
      "type": "function"
    },
    {
      "inputs": [
        {
          "internalType": "uint256",
          "name": "assets",
          "type": "uint256"
        }
      ],
      "name": "previewWithdraw",
      "outputs": [
        {
          "internalType": "uint256",
          "name": "",
          "type": "uint256"
        }
      ],
      "stateMutability": "view",
      "type": "function"
    },
    {
      "inputs": [],
      "name": "profitFunded",
      "outputs": [
        {
          "internalType": "bool",
          "name": "",
          "type": "bool"
        }
      ],
      "stateMutability": "view",
      "type": "function"
    },
    {
      "inputs": [],
      "name": "profitFunder",
      "outputs": [
        {
          "internalType": "address",
          "name": "",
          "type": "address"
        }
      ],
      "stateMutability": "view",
      "type": "function"
    },
    {
      "inputs": [
        {
          "internalType": "enum YieldVault.SettleMode",
          "name": "mode",
          "type": "uint8"
        },
        {
          "internalType": "uint256",
          "name": "amount",
          "type": "uint256"
        },
        {
          "internalType": "address",
          "name": "fundFrom",
          "type": "address"
        }
      ],
      "name": "proposeSettlement",
      "outputs": [],
      "stateMutability": "nonpayable",
      "type": "function"
    },
    {
      "inputs": [
        {
          "internalType": "uint256",
          "name": "shares",
          "type": "uint256"
        },
        {
          "internalType": "address",
          "name": "receiver",
          "type": "address"
        },
        {
          "internalType": "address",
          "name": "owner",
          "type": "address"
        }
      ],
      "name": "redeem",
      "outputs": [
        {
          "internalType": "uint256",
          "name": "",
          "type": "uint256"
        }
      ],
      "stateMutability": "nonpayable",
      "type": "function"
    },
    {
      "inputs": [
        {
          "internalType": "bytes32",
          "name": "role",
          "type": "bytes32"
        },
        {
          "internalType": "address",
          "name": "callerConfirmation",
          "type": "address"
        }
      ],
      "name": "renounceRole",
      "outputs": [],
      "stateMutability": "nonpayable",
      "type": "function"
    },
    {
      "inputs": [
        {
          "internalType": "bytes32",
          "name": "role",
          "type": "bytes32"
        },
        {
          "internalType": "address",
          "name": "account",
          "type": "address"
        }
      ],
      "name": "revokeRole",
      "outputs": [],
      "stateMutability": "nonpayable",
      "type": "function"
    },
    {
      "inputs": [],
      "name": "roundCap",
      "outputs": [
        {
          "internalType": "uint256",
          "name": "",
          "type": "uint256"
        }
      ],
      "stateMutability": "view",
      "type": "function"
    },
    {
      "inputs": [],
      "name": "roundIndex",
      "outputs": [
        {
          "internalType": "uint256",
          "name": "",
          "type": "uint256"
        }
      ],
      "stateMutability": "view",
      "type": "function"
    },
    {
      "inputs": [],
      "name": "settleAmount",
      "outputs": [
        {
          "internalType": "uint256",
          "name": "",
          "type": "uint256"
        }
      ],
      "stateMutability": "view",
      "type": "function"
    },
    {
      "inputs": [],
      "name": "settleMode",
      "outputs": [
        {
          "internalType": "enum YieldVault.SettleMode",
          "name": "",
          "type": "uint8"
        }
      ],
      "stateMutability": "view",
      "type": "function"
    },
    {
      "inputs": [],
      "name": "settleProposedAt",
      "outputs": [
        {
          "internalType": "uint256",
          "name": "",
          "type": "uint256"
        }
      ],
      "stateMutability": "view",
      "type": "function"
    },
    {
      "inputs": [],
      "name": "settleTimelockWindow",
      "outputs": [
        {
          "internalType": "uint256",
          "name": "",
          "type": "uint256"
        }
      ],
      "stateMutability": "view",
      "type": "function"
    },
    {
      "inputs": [],
      "name": "settledAt",
      "outputs": [
        {
          "internalType": "uint256",
          "name": "",
          "type": "uint256"
        }
      ],
      "stateMutability": "view",
      "type": "function"
    },
    {
      "inputs": [
        {
          "internalType": "bytes4",
          "name": "interfaceId",
          "type": "bytes4"
        }
      ],
      "name": "supportsInterface",
      "outputs": [
        {
          "internalType": "bool",
          "name": "",
          "type": "bool"
        }
      ],
      "stateMutability": "view",
      "type": "function"
    },
    {
      "inputs": [],
      "name": "symbol",
      "outputs": [
        {
          "internalType": "string",
          "name": "",
          "type": "string"
        }
      ],
      "stateMutability": "view",
      "type": "function"
    },
    {
      "inputs": [],
      "name": "totalAssets",
      "outputs": [
        {
          "internalType": "uint256",
          "name": "",
          "type": "uint256"
        }
      ],
      "stateMutability": "view",
      "type": "function"
    },
    {
      "inputs": [],
      "name": "totalManagedAssets",
      "outputs": [
        {
          "internalType": "uint256",
          "name": "",
          "type": "uint256"
        }
      ],
      "stateMutability": "view",
      "type": "function"
    },
    {
      "inputs": [],
      "name": "totalSupply",
      "outputs": [
        {
          "internalType": "uint256",
          "name": "",
          "type": "uint256"
        }
      ],
      "stateMutability": "view",
      "type": "function"
    },
    {
      "inputs": [
        {
          "internalType": "address",
          "name": "to",
          "type": "address"
        },
        {
          "internalType": "uint256",
          "name": "value",
          "type": "uint256"
        }
      ],
      "name": "transfer",
      "outputs": [
        {
          "internalType": "bool",
          "name": "",
          "type": "bool"
        }
      ],
      "stateMutability": "nonpayable",
      "type": "function"
    },
    {
      "inputs": [
        {
          "internalType": "address",
          "name": "from",
          "type": "address"
        },
        {
          "internalType": "address",
          "name": "to",
          "type": "address"
        },
        {
          "internalType": "uint256",
          "name": "value",
          "type": "uint256"
        }
      ],
      "name": "transferFrom",
      "outputs": [
        {
          "internalType": "bool",
          "name": "",
          "type": "bool"
        }
      ],
      "stateMutability": "nonpayable",
      "type": "function"
    },
    {
      "inputs": [
        {
          "internalType": "uint256",
          "name": "assets",
          "type": "uint256"
        },
        {
          "internalType": "address",
          "name": "receiver",
          "type": "address"
        },
        {
          "internalType": "address",
          "name": "owner",
          "type": "address"
        }
      ],
      "name": "withdraw",
      "outputs": [
        {
          "internalType": "uint256",
          "name": "",
          "type": "uint256"
        }
      ],
      "stateMutability": "nonpayable",
      "type": "function"
    }
  ],
  "contractName": "YieldVault",
  "sourceName": "contracts/YieldVault.sol",
  "bytecode": "0x6080604052348015600e575f5ffd5b5060156019565b60c9565b7ff0c57e16840df040f15088dc2f81fe391c3923bec73e23a9662efc9c229c6a00805468010000000000000000900460ff161560685760405163f92ee8a960e01b815260040160405180910390fd5b80546001600160401b039081161460c65780546001600160401b0319166001600160401b0390811782556040519081527fc7f505b2f371ae2175ee4913f4499e1f2633a7b5936321eed1cdaeb6115181d29060200160405180910390a15b50565b6133f9806100d65f395ff3fe608060405234801561000f575f5ffd5b50600436106103e0575f3560e01c8063708891651161020b578063b460af941161011f578063ce96cb77116100b4578063d905777e11610084578063d905777e146107a1578063dd62ed3e146107b4578063ef8b30f71461074c578063fec38a35146107c7578063ff980538146107cf575f5ffd5b8063ce96cb771461075f578063d0d529a714610772578063d547741f1461077b578063d6cf39b71461078e575f5ffd5b8063c3df6546116100ef578063c3df654614610714578063c45a015514610727578063c63d75b614610739578063c6e6f5921461074c575f5ffd5b8063b460af94146106dd578063b9d4e879146106f0578063b9de9493146106f9578063ba08765214610701575f5ffd5b80639dbc637b116101a0578063a9059cbb11610170578063a9059cbb14610691578063a99a67e6146106a4578063b1c9fe6e146106ad578063b2163482146106c2578063b3d7f6b9146106ca575f5ffd5b80639dbc637b14610677578063a217fddf14610680578063a5b1353814610687578063a67cbb9814610638575f5ffd5b806391d14854116101db57806391d148541461064057806394bf804d1461065357806395d89b41146106665780639b8fdacc1461066e575f5ffd5b8063708891651461061357806370a082311461061c57806371aa51851461062f57806378b4330f14610638575f5ffd5b80632f2ff15d1161030257806341be5f64116102975780634bb278f3116102675780634bb278f3146105dc5780634cdad506146104525780636311d5df146105e4578063648036ae146105f75780636e553f6514610600575f5ffd5b806341be5f641461059f57806346904840146105a8578063478a138e146105bb57806347dd5172146105d3575f5ffd5b806336568abe116102d257806336568abe14610550578063389302031461056357806338d52e0f1461056c578063402d267d1461058c575f5ffd5b80632f2ff15d146105115780633129c27514610524578063313ce5671461052d57806335a82cee14610547575f5ffd5b80630a28a47711610378578063248a9ca311610348578063248a9ca3146104da5780632bd9d06d146104ed5780632c4b2308146104f65780632d659a46146104fe575f5ffd5b80630a28a4771461047857806318160ddd1461048b57806319a0c3db146104b257806323b872dd146104c7575f5ffd5b806306fdde03116103b357806306fdde03146104305780630756e64e1461044557806307a2d13a14610452578063095ea7b314610465575f5ffd5b806301e1d114146103e457806301ffc9a7146103fb578063045544431461041e57806305b2bfb014610427575b5f5ffd5b6015545b6040519081526020015b60405180910390f35b61040e610409366004612dcc565b6107e9565b60405190151581526020016103f2565b6103e860065481565b6103e860155481565b61043861081f565b6040516103f29190612df3565b60145461040e9060ff1681565b6103e8610460366004612e28565b6108df565b61040e610473366004612e5a565b6108ea565b6103e8610486366004612e28565b610901565b7f52c63247e1f47db19d5ce0460030c497f067ca4cebf71ba98eeadabe20bace02546103e8565b6104c56104c0366004612e82565b61090d565b005b61040e6104d5366004612e9c565b61096d565b6103e86104e8366004612e28565b610992565b6103e860075481565b6104c56109b2565b6104c561050c366004612ed6565b610aa4565b6104c561051f366004612f14565b610dbd565b6103e8600c5481565b610535610dd9565b60405160ff90911681526020016103f2565b6103e860105481565b6104c561055e366004612f14565b610e1c565b6103e8600d5481565b610574610e4f565b6040516001600160a01b0390911681526020016103f2565b6103e861059a366004612f3e565b610e7d565b6103e8600a5481565b600254610574906001600160a01b031681565b6014546105749061010090046001600160a01b031681565b6103e860095481565b6104c5610f83565b6104c56105f2366004612e28565b6111b8565b6103e860035481565b6103e861060e366004612f14565b6112b2565b6103e861271081565b6103e861062a366004612f3e565b6113a5565b6103e8600e5481565b6103e8600181565b61040e61064e366004612f14565b6113cb565b6103e8610661366004612f14565b611401565b610438611501565b6103e860085481565b6103e860135481565b6103e85f81565b6103e862278d0081565b61040e61069f366004612e5a565b61153f565b6103e860115481565b6106b561154c565b6040516103f29190612f6b565b6103e861155a565b6103e86106d8366004612e28565b611563565b6103e86106eb366004612f85565b61156f565b6103e8600b5481565b6104c56115c8565b6103e861070f366004612f85565b61179a565b600154610574906001600160a01b031681565b5f54610574906001600160a01b031681565b6103e8610747366004612f3e565b6117e9565b6103e861075a366004612e28565b6117f6565b6103e861076d366004612f3e565b611801565b6103e860055481565b6104c5610789366004612f14565b611848565b6104c561079c366004612fb5565b611864565b6103e86107af366004612f3e565b611b6e565b6103e86107c2366004612fed565b611bbc565b6104c5611c05565b6012546107dc9060ff1681565b6040516103f29190613015565b5f6001600160e01b03198216637965db0b60e01b148061081957506301ffc9a760e01b6001600160e01b03198316145b92915050565b7f52c63247e1f47db19d5ce0460030c497f067ca4cebf71ba98eeadabe20bace0380546060915f5160206133845f395f51905f529161085d90613029565b80601f016020809104026020016040519081016040528092919081815260200182805461088990613029565b80156108d45780601f106108ab576101008083540402835291602001916108d4565b820191905f5260205f20905b8154815290600101906020018083116108b757829003601f168201915b505050505091505090565b5f610819825f611c6b565b5f336108f7818585611cc4565b5060019392505050565b5f610819826001611cd1565b5f61091781611d1b565b5f610920611d25565b9050600381600381111561093657610936612f57565b1461095f57806040516330a21c0b60e21b81526004016109569190612f6b565b60405180910390fd5b61096883611d62565b505050565b5f3361097a858285611f3c565b610985858585611f87565b60019150505b9392505050565b5f9081525f5160206133a45f395f51905f52602052604090206001015490565b5f546001600160a01b0316336001600160a01b0316146109e55760405163e6c4247b60e01b815260040160405180910390fd5b6109ed611fe4565b5f6109f6611d25565b90506003816003811115610a0c57610a0c612f57565b03610a2c57806040516330a21c0b60e21b81526004016109569190612f6b565b600260045460ff166003811115610a4557610a45612f57565b03610a5357610a535f612019565b6004805460ff191660031790554260118190556040519081527fa3b3cc0ffe2f92520bdc31fb4fc668b8a04b9ac89b908aa9ca3808db9e629cf79060200160405180910390a150610aa2612137565b565b5f610aae81611d1b565b610ab6611fe4565b610abe612161565b60045460ff166001816003811115610ad857610ad8612f57565b14158015610af857506002816003811115610af557610af5612f57565b14155b15610b1857806040516330a21c0b60e21b81526004016109569190612f6b565b6001816003811115610b2c57610b2c612f57565b148015610b475750600654600f54610b449190613075565b42105b15610b655760405163e9bbe5e760e01b815260040160405180910390fd5b6002816003811115610b7957610b79612f57565b03610b8757610b875f612019565b6012805486919060ff191660018381811115610ba557610ba5612f57565b0217905550601384905542601055601480546001600160a81b03191690555f856001811115610bd657610bd6612f57565b03610c82576001600160a01b03831615801590610bf257505f84115b15610c68576001600160a01b0383163314610c205760405163f88a1e0360e01b815260040160405180910390fd5b610c3f833086610c2e610e4f565b6001600160a01b03169291906121f0565b601480546001600160a01b038516610100026001600160a81b0319909116176001179055610d2f565b835f03610c7d576014805460ff191660011790555b610d2f565b6001856001811115610c9657610c96612f57565b03610d16576001600160a01b03831615610cc35760405163f88a1e0360e01b815260040160405180910390fd5b600c54601554610cd6916127105f612226565b841115610d04576015546040516377842a7d60e11b8152610956918691600401918252602082015260400190565b6014805460ff19166001179055610d2f565b60405163f27f616f60e01b815260040160405180910390fd5b6004805460ff191660021790556014546001600160a01b0361010090910416856001811115610d6057610d60612f57565b600354601054601454604080518a8152602081019390935260ff909116151582820152517ffd108d0429b2df0c92b711f348d14167bee0284d00a524a136441d255897add39181900360600190a450610db7612137565b50505050565b610dc682610992565b610dcf81611d1b565b610db78383612271565b5f807f0773e532dfede91f04b12a73d3d2acd361424f41f76b4fb79f090161e36b4e00905060068154610e169190600160a01b900460ff16613088565b91505090565b6001600160a01b0381163314610e455760405163334bd91960e11b815260040160405180910390fd5b6109688282612312565b7f0773e532dfede91f04b12a73d3d2acd361424f41f76b4fb79f090161e36b4e00546001600160a01b031690565b5f610e8661238b565b1580610f0057505f5f9054906101000a90046001600160a01b03166001600160a01b0316635c975abb6040518163ffffffff1660e01b8152600401602060405180830381865afa158015610edc573d5f5f3e3d5ffd5b505050506040513d601f19601f82011682018060405250810190610f0091906130a1565b15610f0c57505f919050565b6015546008545f908210610f20575f610f2e565b81600854610f2e91906130c0565b90506009545f03610f40579392505050565b5f610f4d610460866113a5565b90505f8160095411610f5f575f610f6d565b81600954610f6d91906130c0565b9050610f7983826123c3565b9695505050505050565b610f8b611fe4565b600260045460ff166003811115610fa457610fa4612f57565b14610fca57600480546040516330a21c0b60e21b81526109569260ff9092169101612f6b565b5f600754601054610fdb9190613075565b905080421015611001576040516396a5c63160e01b815260048101829052602401610956565b60145460ff166110245760405163da68ae5d60e01b815260040160405180910390fd5b6004805460ff19166003179055426011556012545f908190819060ff16600181111561105257611052612f57565b036110c657600b5460135461106a916127105f612226565b91508160135461107a91906130c0565b90508060155f82825461108d9190613075565b909155505081156110c1576002546110c1906001600160a01b0316836110b1610e4f565b6001600160a01b031691906123d2565b611148565b60135460155f8282546110d991906130c0565b90915550506013541561114857600154601354611102916001600160a01b0316906110b1610e4f565b6001546013546040519081526001600160a01b03909116907ffc5e8e3e393a9ebad565bb116088350f022b5071a3910033762828bf0f382e549060200160405180910390a25b60125460ff16600181111561115f5761115f612f57565b6003546013546011546040805192835260208301869052820186905260608201527f05af4d9318127b47ab5c9de5670cae4fe1e194d38c427c25b461658cda1107eb9060800160405180910390a3505050610aa2612137565b5f6111c281611d1b565b5f60045460ff1660038111156111da576111da612f57565b1415806111e95750600e544210155b15611210576111f6611d25565b6040516330a21c0b60e21b81526004016109569190612f6b565b81158061121f575062278d0082115b1561123d576040516331f4a25760e11b815260040160405180910390fd5b5f600e5490508260055f8282546112549190613075565b9091555061126490508382613075565b600e81905560035460405190917f567e3ee6997f6d8152d70afc24ef7d37ef8a39e6f99d2b8bfb3ba7fb5399df07916112a591858252602082015260400190565b60405180910390a2505050565b5f5f5f9054906101000a90046001600160a01b03166001600160a01b0316635c975abb6040518163ffffffff1660e01b8152600401602060405180830381865afa158015611302573d5f5f3e3d5ffd5b505050506040513d601f19601f8201168201806040525081019061132691906130a1565b1561134457604051633461791360e11b815260040160405180910390fd5b61134c611fe4565b61135461238b565b611360576111f6611d25565b600a5483101561139157600a546040516306dfd56b60e11b8152610956918591600401918252602082015260400190565b61139b8383612407565b9050610819612137565b6001600160a01b03165f9081525f5160206133845f395f51905f52602052604090205490565b5f9182525f5160206133a45f395f51905f52602090815260408084206001600160a01b0393909316845291905290205460ff1690565b5f5f5f9054906101000a90046001600160a01b03166001600160a01b0316635c975abb6040518163ffffffff1660e01b8152600401602060405180830381865afa158015611451573d5f5f3e3d5ffd5b505050506040513d601f19601f8201168201806040525081019061147591906130a1565b1561149357604051633461791360e11b815260040160405180910390fd5b61149b611fe4565b6114a361238b565b6114af576111f6611d25565b5f6114b984611563565b9050600a548110156114ec57600a546040516306dfd56b60e11b8152610956918391600401918252602082015260400190565b6114f6848461245b565b915050610819612137565b7f52c63247e1f47db19d5ce0460030c497f067ca4cebf71ba98eeadabe20bace0480546060915f5160206133845f395f51905f529161085d90613029565b5f336108f7818585611f87565b5f611555611d25565b905090565b5f6115556124a7565b5f610819826001611c6b565b5f611578611fe4565b61158061238b565b1580156115a657506003611592611d25565b60038111156115a3576115a3612f57565b14155b156115b3576111f6611d25565b6115be8484846124e2565b905061098b612137565b5f5f9054906101000a90046001600160a01b03166001600160a01b0316635c975abb6040518163ffffffff1660e01b8152600401602060405180830381865afa158015611617573d5f5f3e3d5ffd5b505050506040513d601f19601f8201168201806040525081019061163b91906130a1565b1561165957604051633461791360e11b815260040160405180910390fd5b611661611fe4565b600260045460ff16600381111561167a5761167a612f57565b146116a057600480546040516330a21c0b60e21b81526109569260ff9092169101612f6b565b5f60125460ff1660018111156116b8576116b8612f57565b146116d65760405163f27f616f60e01b815260040160405180910390fd5b60145460ff16156116fa576040516336e47c5b60e21b815260040160405180910390fd5b60135415611712576117123330601354610c2e610e4f565b6014805460ff191660011790556117263390565b601480546001600160a01b039290921661010002610100600160a81b0319909216919091179055336001600160a01b03167fa296f52130b2762824c166f034134066d2ba79899eb18e45f091b13cc007038e60135460405161178a91815260200190565b60405180910390a2610aa2612137565b5f6117a3611fe4565b6117ab61238b565b1580156117d1575060036117bd611d25565b60038111156117ce576117ce612f57565b14155b156117de576111f6611d25565b6115be84848461252f565b5f61081961075a83610e7d565b5f610819825f611cd1565b5f61180a61238b565b1580156118305750600361181c611d25565b600381111561182d5761182d612f57565b14155b1561183c57505f919050565b610819610460836113a5565b61185182610992565b61185a81611d1b565b610db78383612312565b5f61186d61257c565b805490915060ff600160401b820416159067ffffffffffffffff165f811580156118945750825b90505f8267ffffffffffffffff1660011480156118b05750303b155b9050811580156118be575080155b156118dc5760405163f92ee8a960e01b815260040160405180910390fd5b845467ffffffffffffffff19166001178555831561190657845460ff60401b1916600160401b1785555b5f6119146020880188612f3e565b6001600160a01b0316148061194057505f6119356040880160208901612f3e565b6001600160a01b0316145b8061196257505f6119576060880160408901612f3e565b6001600160a01b0316145b8061198457505f6119796080880160608901612f3e565b6001600160a01b0316145b806119a657505f61199b60a0880160808901612f3e565b6001600160a01b0316145b156119c45760405163e6c4247b60e01b815260040160405180910390fd5b611a4e6119d460a08801886130d3565b8080601f0160208091040260200160405190810160405280939291908181526020018383808284375f92019190915250611a159250505060c08901896130d3565b8080601f0160208091040260200160405190810160405280939291908181526020018383808284375f920191909152506125a492505050565b611a63611a5e6020880188612f3e565b6125ba565b611a6b6125cb565b611a845f611a7f6060890160408a01612f3e565b612271565b50611a956040870160208801612f3e565b5f80546001600160a01b0319166001600160a01b0392909216919091179055611ac46080870160608801612f3e565b600180546001600160a01b0319166001600160a01b0392909216919091179055611af460a0870160808801612f3e565b600280546001600160a01b0319166001600160a01b0392909216919091179055611b2060e08701611d62565b8315611b6657845460ff60401b19168555604051600181527fc7f505b2f371ae2175ee4913f4499e1f2633a7b5936321eed1cdaeb6115181d29060200160405180910390a15b505050505050565b5f611b7761238b565b80611b9a57506003611b87611d25565b6003811115611b9857611b98612f57565b145b8015611ba757505f601554115b15611bb557610819826113a5565b505f919050565b6001600160a01b039182165f9081527f52c63247e1f47db19d5ce0460030c497f067ca4cebf71ba98eeadabe20bace016020908152604080832093909416825291909152205490565b5f611c0f81611d1b565b611c17611fe4565b600260045460ff166003811115611c3057611c30612f57565b14611c5657600480546040516330a21c0b60e21b81526109569260ff9092169101612f6b565b611c606001612019565b611c68612137565b50565b5f61098b611c7860155490565b611c83906001613075565b611c8f6006600a613200565b7f52c63247e1f47db19d5ce0460030c497f067ca4cebf71ba98eeadabe20bace0254611cbb9190613075565b85919085612226565b61096883838360016125d3565b5f61098b611ce16006600a613200565b7f52c63247e1f47db19d5ce0460030c497f067ca4cebf71ba98eeadabe20bace0254611d0d9190613075565b601554611cbb906001613075565b611c6881336126b7565b5f8060045460ff166003811115611d3e57611d3e612f57565b148015611d4d5750600e544210155b15611d585750600190565b5060045460ff1690565b80351580611d74575060018160200135105b80611d83575060018160400135105b80611d9057506060810135155b80611d9d575060a0810135155b80611dad57506127108160c00135115b80611dbd57506127108160e00135115b15611ddb576040516331f4a25760e11b815260040160405180910390fd5b60155481606001351015611e02576040516331f4a25760e11b815260040160405180910390fd5b600160035f828254611e149190613075565b90915550508035600555602081013560065560408101356007556060810135600855608081013560095560a0810135600a5560c0810135600b5560e0810135600c556101008101355f03611e6b5742600d55611e9b565b428161010001351015611e91576040516331f4a25760e11b815260040160405180910390fd5b610100810135600d555b600d54611eaa90823590613075565b600e8190555f600f819055601081905560118190556012805460ff19908116909155601391909155601480546001600160a81b0319169055600480549091169055600354600d5460085460408051928352602083019490945292810192909252907fc8410c58dcf5346660095e2f1d4190cbb555bcbe378514f769f40c2ec3a250eb906060015b60405180910390a250565b5f611f478484611bbc565b90505f19811015610db75781811015611f7957828183604051637dc7a0d960e11b81526004016109569392919061320e565b610db784848484035f6125d3565b6001600160a01b038316611fb057604051634b637e8f60e11b81525f6004820152602401610956565b6001600160a01b038216611fd95760405163ec442f0560e01b81525f6004820152602401610956565b6109688383836126f0565b611fec612816565b610aa260017f9b779b17422d0df92223018b32b4d1fa46e071723d6817e2486d003becc55f005b90612856565b5f60125460ff16600181111561203157612031612f57565b148015612040575060145460ff165b801561204d57505f601354115b8015612068575060145461010090046001600160a01b031615155b156120d85760145460135461208e9161010090046001600160a01b0316906110b1610e4f565b6014546013546040519081526101009091046001600160a01b0316907f702a6335249d9dab52675a47c0c8ffe5a2e75b27d6d691bacce22ed3f44da0dc9060200160405180910390a25b5f6013819055601055601480546001600160a81b03191690556004805460ff191660011790558015611c68576003546040514281527f6a1a3313b96eadc137de06ac890f75309d6495d541c1fe0df1d708a03a98202290602001611f31565b610aa25f7f9b779b17422d0df92223018b32b4d1fa46e071723d6817e2486d003becc55f00612013565b5f60045460ff16600381111561217957612179612f57565b1480156121885750600e544210155b15610aa2576004805460ff19166001179055600e54600f81905560035460065490917f616f10eff85ee3ed06bb20aee4143d404ec17b7850f20352dd3b35cd782559e1916121d69082613075565b6040805192835260208301919091520160405180910390a2565b6121fe84848484600161285d565b610db757604051635274afe760e01b81526001600160a01b0385166004820152602401610956565b5f612253612233836128ca565b801561224e57505f84806122495761224961322f565b868809115b151590565b61225e8686866128f6565b6122689190613075565b95945050505050565b5f5f5160206133a45f395f51905f5261228a84846113cb565b612309575f848152602082815260408083206001600160a01b03871684529091529020805460ff191660011790556122bf3390565b6001600160a01b0316836001600160a01b0316857f2f8788117e7eff1d82e926ec794901d17c78024a50270940304540a733656f0d60405160405180910390a46001915050610819565b5f915050610819565b5f5f5160206133a45f395f51905f5261232b84846113cb565b15612309575f848152602082815260408083206001600160a01b0387168085529252808320805460ff1916905551339287917ff6391f5c32d9c69d2a47ea670b442974b53935d1edc7fd64eb21e047a839171b9190a46001915050610819565b5f8060045460ff1660038111156123a4576123a4612f57565b1480156123b35750600d544210155b8015611555575050600e54421090565b5f82821882841002821861098b565b6123df83838360016129a6565b61096857604051635274afe760e01b81526001600160a01b0384166004820152602401610956565b5f5f61241283610e7d565b90508084111561243b57828482604051633c8097d960e11b81526004016109569392919061320e565b5f612445856117f6565b905061245333858784612a08565b949350505050565b5f5f612466836117e9565b90508084111561248f5782848260405163284ff66760e01b81526004016109569392919061320e565b5f61249985611563565b905061245333858388612a08565b5f8060045460ff1660038111156124c0576124c0612f57565b1480156124cf5750600e544210155b156124db5750600e5490565b50600f5490565b5f5f6124ed83611801565b90508085111561251657828582604051633fa733bb60e21b81526004016109569392919061320e565b5f61252086610901565b90506122683386868985612a30565b5f5f61253a83611b6e565b90508085111561256357828582604051632e52afbb60e21b81526004016109569392919061320e565b5f61256d866108df565b9050612268338686848a612a30565b5f807ff0c57e16840df040f15088dc2f81fe391c3923bec73e23a9662efc9c229c6a00610819565b6125ac612a54565b6125b68282612a79565b5050565b6125c2612a54565b611c6881612ac9565b610aa2612a54565b5f5160206133845f395f51905f526001600160a01b03851661260a5760405163e602df0560e01b81525f6004820152602401610956565b6001600160a01b03841661263357604051634a1406b160e11b81525f6004820152602401610956565b6001600160a01b038086165f908152600183016020908152604080832093881683529290522083905581156126b057836001600160a01b0316856001600160a01b03167f8c5be1e5ebec7d5bd14f71427d1e84f3dd0314c0f7b2291e5b200ac8c7c3b925856040516126a791815260200190565b60405180910390a35b5050505050565b6126c182826113cb565b6125b65760405163e2517d3f60e01b81526001600160a01b038216600482015260248101839052604401610956565b5f5160206133845f395f51905f526001600160a01b03841661272a5781816002015f82825461271f9190613075565b909155506127879050565b6001600160a01b0384165f90815260208290526040902054828110156127695784818460405163391434e360e21b81526004016109569392919061320e565b6001600160a01b0385165f9081526020839052604090209083900390555b6001600160a01b0383166127a55760028101805483900390556127c3565b6001600160a01b0383165f9081526020829052604090208054830190555b826001600160a01b0316846001600160a01b03167fddf252ad1be2c89b69c2b068fc378daa952ba7f163c4a11628f55a4df523b3ef8460405161280891815260200190565b60405180910390a350505050565b7f9b779b17422d0df92223018b32b4d1fa46e071723d6817e2486d003becc55f005c15610aa257604051633ee5aeb560e01b815260040160405180910390fd5b80825d5050565b6040516323b872dd60e01b5f8181526001600160a01b038781166004528616602452604485905291602083606481808c5af1925060015f511483166128b95783831516156128ad573d5f823e3d81fd5b5f883b113d1516831692505b604052505f60605295945050505050565b5f60028260038111156128df576128df612f57565b6128e99190613243565b60ff166001149050919050565b5f5f5f6129038686612b4c565b91509150815f036129275783818161291d5761291d61322f565b049250505061098b565b81841161293e5761293e6003851502601118612b68565b5f848688095f868103871696879004966002600389028118808a02820302808a02820302808a02820302808a02820302808a02820302808a02909103029181900381900460010185841190960395909502919093039390930492909217029150509392505050565b60405163a9059cbb60e01b5f8181526001600160a01b038616600452602485905291602083604481808b5af1925060015f511483166129fc5783831516156129f0573d5f823e3d81fd5b5f873b113d1516831692505b60405250949350505050565b612a1484848484612b79565b8160155f828254612a259190613075565b909155505050505050565b8160155f828254612a4191906130c0565b909155506126b090508585858585612bdb565b612a5c612c7a565b610aa257604051631afcd79f60e31b815260040160405180910390fd5b612a81612a54565b5f5160206133845f395f51905f527f52c63247e1f47db19d5ce0460030c497f067ca4cebf71ba98eeadabe20bace03612aba84826132c8565b5060048101610db783826132c8565b612ad1612a54565b7f0773e532dfede91f04b12a73d3d2acd361424f41f76b4fb79f090161e36b4e005f80612afd84612c93565b9150915081612b0d576012612b0f565b805b83546001600160a81b031916600160a01b60ff92909216919091026001600160a01b031916176001600160a01b0394909416939093179091555050565b5f805f1983850993909202808410938190039390930393915050565b634e487b715f52806020526024601cfd5b612b838483612d1e565b612b8d8382612d31565b826001600160a01b0316846001600160a01b03167fdcbc1c05240f31ff3ad067ef1ee35ce4997762752e3a095284754544f4c709d78484604051612808929190918252602082015260400190565b826001600160a01b0316856001600160a01b031614612bff57612bff838683611f3c565b612c098382612d65565b612c138483612d99565b826001600160a01b0316846001600160a01b0316866001600160a01b03167ffbde797d201c681b91056529119e0b02407c7bb96a4a2c75c01fc9667232c8db8585604051612c6b929190918252602082015260400190565b60405180910390a45050505050565b5f612c8361257c565b54600160401b900460ff16919050565b5f5f5f612c9f60405190565b6040805160048152602481019091526020810180516001600160e01b031663313ce56760e01b1790529091505f908190612cda908790612dab565b5091509150612ce883604052565b818015612cf6575060203d10155b8015612d03575060ff8111155b612d0e575f5f612d12565b6001815b94509450505050915091565b6125b6612d29610e4f565b8330846121f0565b6001600160a01b038216612d5a5760405163ec442f0560e01b81525f6004820152602401610956565b6125b65f83836126f0565b6001600160a01b038216612d8e57604051634b637e8f60e11b81525f6004820152602401610956565b6125b6825f836126f0565b6125b6612da4610e4f565b83836123d2565b5f5f5f60405f855160208701885afa92505f51915060205190509250925092565b5f60208284031215612ddc575f5ffd5b81356001600160e01b03198116811461098b575f5ffd5b602081525f82518060208401528060208501604085015e5f604082850101526040601f19601f83011684010191505092915050565b5f60208284031215612e38575f5ffd5b5035919050565b80356001600160a01b0381168114612e55575f5ffd5b919050565b5f5f60408385031215612e6b575f5ffd5b612e7483612e3f565b946020939093013593505050565b5f610120828403128015612e94575f5ffd5b509092915050565b5f5f5f60608486031215612eae575f5ffd5b612eb784612e3f565b9250612ec560208501612e3f565b929592945050506040919091013590565b5f5f5f60608486031215612ee8575f5ffd5b833560028110612ef6575f5ffd5b925060208401359150612f0b60408501612e3f565b90509250925092565b5f5f60408385031215612f25575f5ffd5b82359150612f3560208401612e3f565b90509250929050565b5f60208284031215612f4e575f5ffd5b61098b82612e3f565b634e487b7160e01b5f52602160045260245ffd5b6020810160048310612f7f57612f7f612f57565b91905290565b5f5f5f60608486031215612f97575f5ffd5b83359250612fa760208501612e3f565b9150612f0b60408501612e3f565b5f60208284031215612fc5575f5ffd5b813567ffffffffffffffff811115612fdb575f5ffd5b8201610200818503121561098b575f5ffd5b5f5f60408385031215612ffe575f5ffd5b61300783612e3f565b9150612f3560208401612e3f565b6020810160028310612f7f57612f7f612f57565b600181811c9082168061303d57607f821691505b60208210810361305b57634e487b7160e01b5f52602260045260245ffd5b50919050565b634e487b7160e01b5f52601160045260245ffd5b8082018082111561081957610819613061565b60ff818116838216019081111561081957610819613061565b5f602082840312156130b1575f5ffd5b8151801515811461098b575f5ffd5b8181038181111561081957610819613061565b5f5f8335601e198436030181126130e8575f5ffd5b83018035915067ffffffffffffffff821115613102575f5ffd5b602001915036819003821315613116575f5ffd5b9250929050565b6001815b60018411156131585780850481111561313c5761313c613061565b600184161561314a57908102905b60019390931c928002613121565b935093915050565b5f8261316e57506001610819565b8161317a57505f610819565b8160018114613190576002811461319a576131b6565b6001915050610819565b60ff8411156131ab576131ab613061565b50506001821b610819565b5060208310610133831016604e8410600b84101617156131d9575081810a610819565b6131e55f19848461311d565b805f19048211156131f8576131f8613061565b029392505050565b5f61098b60ff841683613160565b6001600160a01b039390931683526020830191909152604082015260600190565b634e487b7160e01b5f52601260045260245ffd5b5f60ff83168061326157634e487b7160e01b5f52601260045260245ffd5b8060ff84160691505092915050565b634e487b7160e01b5f52604160045260245ffd5b601f82111561096857805f5260205f20601f840160051c810160208510156132a95750805b601f840160051c820191505b818110156126b0575f81556001016132b5565b815167ffffffffffffffff8111156132e2576132e2613270565b6132f6816132f08454613029565b84613284565b6020601f821160018114613328575f83156133115750848201515b5f19600385901b1c1916600184901b1784556126b0565b5f84815260208120601f198516915b828110156133575787850151825560209485019460019092019101613337565b508482101561337457868401515f19600387901b60f8161c191681555b50505050600190811b0190555056fe52c63247e1f47db19d5ce0460030c497f067ca4cebf71ba98eeadabe20bace0002dd7bc7dec4dceedda775e58dd541e08a116c6c53815c0bd028192f7b626800a26469706673582212205a8b7b7fb03f303fa2518129b276e590bcbc97b3ed3a0e4723eb6716d1d91bcd64736f6c634300081c0033",
  "linkReferences": {},
  "deployedLinkReferences": {},
  "immutableReferences": {},
  "inputSourceName": "project/contracts/YieldVault.sol",
  "devdoc": {
    "errors": {
      "AccessControlBadConfirmation()": [
        {
          "details": "The caller of a function is not the expected one. NOTE: Don't confuse with {AccessControlUnauthorizedAccount}."
        }
      ],
      "AccessControlUnauthorizedAccount(address,bytes32)": [
        {
          "details": "The `account` is missing a role."
        }
      ],
      "ERC20InsufficientAllowance(address,uint256,uint256)": [
        {
          "details": "Indicates a failure with the `spender`’s `allowance`. Used in transfers.",
          "params": {
            "allowance": "Amount of tokens a `spender` is allowed to operate with.",
            "needed": "Minimum amount required to perform a transfer.",
            "spender": "Address that may be allowed to operate on tokens without being their owner."
          }
        }
      ],
      "ERC20InsufficientBalance(address,uint256,uint256)": [
        {
          "details": "Indicates an error related to the current `balance` of a `sender`. Used in transfers.",
          "params": {
            "balance": "Current balance for the interacting account.",
            "needed": "Minimum amount required to perform a transfer.",
            "sender": "Address whose tokens are being transferred."
          }
        }
      ],
      "ERC20InvalidApprover(address)": [
        {
          "details": "Indicates a failure with the `approver` of a token to be approved. Used in approvals.",
          "params": {
            "approver": "Address initiating an approval operation."
          }
        }
      ],
      "ERC20InvalidReceiver(address)": [
        {
          "details": "Indicates a failure with the token `receiver`. Used in transfers.",
          "params": {
            "receiver": "Address to which tokens are being transferred."
          }
        }
      ],
      "ERC20InvalidSender(address)": [
        {
          "details": "Indicates a failure with the token `sender`. Used in transfers.",
          "params": {
            "sender": "Address whose tokens are being transferred."
          }
        }
      ],
      "ERC20InvalidSpender(address)": [
        {
          "details": "Indicates a failure with the `spender` to be approved. Used in approvals.",
          "params": {
            "spender": "Address that may be allowed to operate on tokens without being their owner."
          }
        }
      ],
      "ERC4626ExceededMaxDeposit(address,uint256,uint256)": [
        {
          "details": "Attempted to deposit more assets than the max amount for `receiver`."
        }
      ],
      "ERC4626ExceededMaxMint(address,uint256,uint256)": [
        {
          "details": "Attempted to mint more shares than the max amount for `receiver`."
        }
      ],
      "ERC4626ExceededMaxRedeem(address,uint256,uint256)": [
        {
          "details": "Attempted to redeem more shares than the max amount for `owner`."
        }
      ],
      "ERC4626ExceededMaxWithdraw(address,uint256,uint256)": [
        {
          "details": "Attempted to withdraw more assets than the max amount for `owner`."
        }
      ],
      "InvalidInitialization()": [
        {
          "details": "The contract is already initialized."
        }
      ],
      "NotInitializing()": [
        {
          "details": "The contract is not initializing."
        }
      ],
      "ReentrancyGuardReentrantCall()": [
        {
          "details": "Unauthorized reentrant call."
        }
      ],
      "SafeERC20FailedOperation(address)": [
        {
          "details": "An operation with an ERC-20 token failed."
        }
      ]
    },
    "events": {
      "Approval(address,address,uint256)": {
        "details": "Emitted when the allowance of a `spender` for an `owner` is set by a call to {approve}. `value` is the new allowance."
      },
      "CounterpartyProceedsPaid(address,uint256)": {
        "params": {
          "amount": "Payment amount",
          "counterparty": "Counterparty address"
        }
      },
      "EmergencyCancelled(uint256)": {
        "params": {
          "at": "Cancellation timestamp"
        }
      },
      "Initialized(uint64)": {
        "details": "Triggered when the contract has been initialized or reinitialized."
      },
      "OpenPeriodExtended(uint256,uint256,uint256)": {
        "params": {
          "newOpenDeadline": "New open period end timestamp",
          "previousOpenDeadline": "Previous open period end timestamp",
          "roundIndex": "Round index"
        }
      },
      "ProfitFunded(address,uint256)": {
        "params": {
          "amount": "Funded amount",
          "funder": "Payer address"
        }
      },
      "ProfitRefunded(address,uint256)": {
        "params": {
          "amount": "Refund amount",
          "funder": "Refund recipient, i.e. the original funder"
        }
      },
      "RoleAdminChanged(bytes32,bytes32,bytes32)": {
        "details": "Emitted when `newAdminRole` is set as ``role``'s admin role, replacing `previousAdminRole` `DEFAULT_ADMIN_ROLE` is the starting admin for all roles, despite {RoleAdminChanged} not being emitted to signal this."
      },
      "RoleGranted(bytes32,address,address)": {
        "details": "Emitted when `account` is granted `role`. `sender` is the account that originated the contract call. This account bears the admin role (for the granted role). Expected in cases where the role was granted using the internal {AccessControl-_grantRole}."
      },
      "RoleRevoked(bytes32,address,address)": {
        "details": "Emitted when `account` is revoked `role`. `sender` is the account that originated the contract call:   - if using `revokeRole`, it is the admin role bearer   - if using `renounceRole`, it is the role bearer (i.e. `account`)"
      },
      "RoundLocked(uint256,uint256,uint256)": {
        "params": {
          "lockMaturity": "Lock period maturity timestamp",
          "lockedAt": "Lock period start timestamp",
          "roundIndex": "Round index"
        }
      },
      "RoundOpened(uint256,uint256,uint256,uint256)": {
        "params": {
          "openDeadline": "Open period end timestamp",
          "openedAt": "Open period start timestamp",
          "roundCap": "Total running cap for this round",
          "roundIndex": "Round index (starts at 1)"
        }
      },
      "SettlementCancelled(uint256,uint256)": {
        "params": {
          "at": "Cancellation timestamp",
          "roundIndex": "Round index"
        }
      },
      "SettlementFinalized(uint256,uint8,uint256,uint256,uint256,uint256)": {
        "params": {
          "amount": "Settlement amount",
          "fee": "Performance fee in PROFIT mode",
          "mode": "Settlement mode",
          "netProfit": "Net profit in PROFIT mode",
          "roundIndex": "Round index",
          "settledAt": "Finalization timestamp"
        }
      },
      "SettlementProposed(uint256,uint8,uint256,uint256,bool,address)": {
        "params": {
          "amount": "Settlement amount",
          "funded": "Whether the profit proposal is already funded",
          "funder": "Profit funder address",
          "mode": "Settlement mode",
          "proposedAt": "Proposal timestamp",
          "roundIndex": "Round index"
        }
      },
      "Transfer(address,address,uint256)": {
        "details": "Emitted when `value` tokens are moved from one account (`from`) to another (`to`). Note that `value` may be zero."
      }
    },
    "kind": "dev",
    "methods": {
      "allowance(address,address)": {
        "details": "Returns the remaining number of tokens that `spender` will be allowed to spend on behalf of `owner` through {transferFrom}. This is zero by default. This value changes when {approve} or {transferFrom} are called."
      },
      "approve(address,uint256)": {
        "details": "See {IERC20-approve}. NOTE: If `value` is the maximum `uint256`, the allowance is not updated on `transferFrom`. This is semantically equivalent to an infinite approval. Requirements: - `spender` cannot be the zero address."
      },
      "asset()": {
        "details": "Returns the address of the underlying token used for the Vault for accounting, depositing, and withdrawing. - MUST be an ERC-20 token contract. - MUST NOT revert."
      },
      "balanceOf(address)": {
        "details": "Returns the value of tokens owned by `account`."
      },
      "constructor": {
        "custom:oz-upgrades-unsafe-allow": "constructor"
      },
      "convertToAssets(uint256)": {
        "details": "Returns the amount of assets that the Vault would exchange for the amount of shares provided, in an ideal scenario where all the conditions are met. - MUST NOT be inclusive of any fees that are charged against assets in the Vault. - MUST NOT show any variations depending on the caller. - MUST NOT reflect slippage or other on-chain conditions, when performing the actual exchange. - MUST NOT revert. NOTE: This calculation MAY NOT reflect the “per-user” price-per-share, and instead should reflect the “average-user’s” price-per-share, meaning what the average user should expect to see when exchanging to and from."
      },
      "convertToShares(uint256)": {
        "details": "Returns the amount of shares that the Vault would exchange for the amount of assets provided, in an ideal scenario where all the conditions are met. - MUST NOT be inclusive of any fees that are charged against assets in the Vault. - MUST NOT show any variations depending on the caller. - MUST NOT reflect slippage or other on-chain conditions, when performing the actual exchange. - MUST NOT revert. NOTE: This calculation MAY NOT reflect the “per-user” price-per-share, and instead should reflect the “average-user’s” price-per-share, meaning what the average user should expect to see when exchanging to and from."
      },
      "decimals()": {
        "details": "Decimals are computed by adding the decimal offset on top of the underlying asset's decimals. This \"original\" value is cached during construction of the vault contract. If this read operation fails (e.g., the asset has not been created yet), a default of 18 is used to represent the underlying asset's decimals. See {IERC20Metadata-decimals}."
      },
      "emergencyCancel()": {
        "details": "Callable before settlement. No profit / loss is applied, so redemption returns principal."
      },
      "extendOpenPeriod(uint256)": {
        "details": "Callable only by admin / multisig before the current open window expires.",
        "params": {
          "extension": "Additional seconds to add to the current open window"
        }
      },
      "finalize()": {
        "details": "Applies settlement accounting and advances the round to SETTLED."
      },
      "getRoleAdmin(bytes32)": {
        "details": "Returns the admin role that controls `role`. See {grantRole} and {revokeRole}. To change a role's admin, use {_setRoleAdmin}."
      },
      "grantRole(bytes32,address)": {
        "details": "Grants `role` to `account`. If `account` had not been already granted `role`, emits a {RoleGranted} event. Requirements: - the caller must have ``role``'s admin role. May emit a {RoleGranted} event."
      },
      "hasRole(bytes32,address)": {
        "details": "Returns `true` if `account` has been granted `role`."
      },
      "initialize((address,address,address,address,address,string,string,(uint256,uint256,uint256,uint256,uint256,uint256,uint256,uint256,uint256)))": {
        "params": {
          "p": "Initialization parameters including first-round config"
        }
      },
      "maxRedeem(address)": {
        "details": "Returns the maximum amount of Vault shares that can be redeemed from the owner balance in the Vault, through a redeem call. - MUST return a limited value if owner is subject to some withdrawal limit or timelock. - MUST return balanceOf(owner) if owner is not subject to any withdrawal limit or timelock. - MUST NOT revert."
      },
      "maxWithdraw(address)": {
        "details": "Returns the maximum amount of the underlying asset that can be withdrawn from the owner balance in the Vault, through a withdraw call. - MUST return a limited value if owner is subject to some withdrawal limit or timelock. - MUST NOT revert."
      },
      "name()": {
        "details": "Returns the name of the token."
      },
      "openNextRound((uint256,uint256,uint256,uint256,uint256,uint256,uint256,uint256,uint256))": {
        "details": "Callable only by admin / multisig. Reverts after factory emergency cancellation.",
        "params": {
          "params": "Parameters for the round being opened"
        }
      },
      "previewDeposit(uint256)": {
        "details": "Allows an on-chain or off-chain user to simulate the effects of their deposit at the current block, given current on-chain conditions. - MUST return as close to and no more than the exact amount of Vault shares that would be minted in a deposit   call in the same transaction. I.e. deposit should return the same or more shares as previewDeposit if called   in the same transaction. - MUST NOT account for deposit limits like those returned from maxDeposit and should always act as though the   deposit would be accepted, regardless if the user has enough tokens approved, etc. - MUST be inclusive of deposit fees. Integrators should be aware of the existence of deposit fees. - MUST NOT revert. NOTE: any unfavorable discrepancy between convertToShares and previewDeposit SHOULD be considered slippage in share price or some other type of condition, meaning the depositor will lose assets by depositing."
      },
      "previewMint(uint256)": {
        "details": "Allows an on-chain or off-chain user to simulate the effects of their mint at the current block, given current on-chain conditions. - MUST return as close to and no fewer than the exact amount of assets that would be deposited in a mint call   in the same transaction. I.e. mint should return the same or fewer assets as previewMint if called in the   same transaction. - MUST NOT account for mint limits like those returned from maxMint and should always act as though the mint   would be accepted, regardless if the user has enough tokens approved, etc. - MUST be inclusive of deposit fees. Integrators should be aware of the existence of deposit fees. - MUST NOT revert. NOTE: any unfavorable discrepancy between convertToAssets and previewMint SHOULD be considered slippage in share price or some other type of condition, meaning the depositor will lose assets by minting."
      },
      "previewRedeem(uint256)": {
        "details": "Allows an on-chain or off-chain user to simulate the effects of their redemption at the current block, given current on-chain conditions. - MUST return as close to and no more than the exact amount of assets that would be withdrawn in a redeem call   in the same transaction. I.e. redeem should return the same or more assets as previewRedeem if called in the   same transaction. - MUST NOT account for redemption limits like those returned from maxRedeem and should always act as though the   redemption would be accepted, regardless if the user has enough shares, etc. - MUST be inclusive of withdrawal fees. Integrators should be aware of the existence of withdrawal fees. - MUST NOT revert. NOTE: any unfavorable discrepancy between convertToAssets and previewRedeem SHOULD be considered slippage in share price or some other type of condition, meaning the depositor will lose assets by redeeming."
      },
      "previewWithdraw(uint256)": {
        "details": "Allows an on-chain or off-chain user to simulate the effects of their withdrawal at the current block, given current on-chain conditions. - MUST return as close to and no fewer than the exact amount of Vault shares that would be burned in a withdraw   call in the same transaction. I.e. withdraw should return the same or fewer shares as previewWithdraw if   called   in the same transaction. - MUST NOT account for withdrawal limits like those returned from maxWithdraw and should always act as though   the withdrawal would be accepted, regardless if the user has enough shares, etc. - MUST be inclusive of withdrawal fees. Integrators should be aware of the existence of withdrawal fees. - MUST NOT revert. NOTE: any unfavorable discrepancy between convertToShares and previewWithdraw SHOULD be considered slippage in share price or some other type of condition, meaning the depositor will lose assets by depositing."
      },
      "proposeSettlement(uint8,uint256,address)": {
        "details": "Callable only by admin / multisig. Allowed from LOCKED (after maturity) or to replace a SETTLE_PROPOSED proposal.",
        "params": {
          "amount": "Settlement amount, i.e. profit or loss",
          "fundFrom": "Optional immediate funder in PROFIT mode; must be address(0) in LOSS mode",
          "mode": "Settlement mode: PROFIT or LOSS"
        }
      },
      "renounceRole(bytes32,address)": {
        "details": "Revokes `role` from the calling account. Roles are often managed via {grantRole} and {revokeRole}: this function's purpose is to provide a mechanism for accounts to lose their privileges if they are compromised (such as when a trusted device is misplaced). If the calling account had been revoked `role`, emits a {RoleRevoked} event. Requirements: - the caller must be `callerConfirmation`. May emit a {RoleRevoked} event."
      },
      "revokeRole(bytes32,address)": {
        "details": "Revokes `role` from `account`. If `account` had been granted `role`, emits a {RoleRevoked} event. Requirements: - the caller must have ``role``'s admin role. May emit a {RoleRevoked} event."
      },
      "supportsInterface(bytes4)": {
        "details": "Returns true if this contract implements the interface defined by `interfaceId`. See the corresponding https://eips.ethereum.org/EIPS/eip-165#how-interfaces-are-identified[ERC section] to learn more about how these ids are created. This function call must use less than 30 000 gas."
      },
      "symbol()": {
        "details": "Returns the symbol of the token, usually a shorter version of the name."
      },
      "totalSupply()": {
        "details": "Returns the value of tokens in existence."
      },
      "transfer(address,uint256)": {
        "details": "See {IERC20-transfer}. Requirements: - `to` cannot be the zero address. - the caller must have a balance of at least `value`."
      },
      "transferFrom(address,address,uint256)": {
        "details": "See {IERC20-transferFrom}. Skips emitting an {Approval} event indicating an allowance update. This is not required by the ERC. See {xref-ERC20-_approve-address-address-uint256-bool-}[_approve]. NOTE: Does not update the allowance if the current allowance is the maximum `uint256`. Requirements: - `from` and `to` cannot be the zero address. - `from` must have a balance of at least `value`. - the caller must have allowance for ``from``'s tokens of at least `value`."
      }
    },
    "title": "YieldVault",
    "version": 1
  },
  "evm": {
    "gasEstimates": {
      "creation": {
        "codeDepositCost": "2661000",
        "executionCost": "32507",
        "totalCost": "2693507"
      },
      "external": {
        "DEFAULT_ADMIN_ROLE()": "272",
        "MAX_OPEN_EXTENSION()": "295",
        "MAX_PERFORMANCE_FEE_BPS()": "252",
        "MIN_LOCK_DURATION()": "318",
        "MIN_SETTLE_TIMELOCK()": "317",
        "allowance(address,address)": "infinite",
        "approve(address,uint256)": "infinite",
        "asset()": "2457",
        "balanceOf(address)": "infinite",
        "cancelProposedSettlement()": "infinite",
        "convertToAssets(uint256)": "infinite",
        "convertToShares(uint256)": "infinite",
        "counterparty()": "2403",
        "decimals()": "2564",
        "deposit(uint256,address)": "infinite",
        "emergencyCancel()": "infinite",
        "extendOpenPeriod(uint256)": "infinite",
        "factory()": "2424",
        "feeRecipient()": "2426",
        "finalize()": "infinite",
        "fundProfit()": "infinite",
        "getRoleAdmin(bytes32)": "infinite",
        "grantRole(bytes32,address)": "infinite",
        "hasRole(bytes32,address)": "infinite",
        "initialize((address,address,address,address,address,string,string,(uint256,uint256,uint256,uint256,uint256,uint256,uint256,uint256,uint256)))": "infinite",
        "lockDuration()": "2397",
        "lockedAt()": "6757",
        "maxDeposit(address)": "infinite",
        "maxLossBps()": "2374",
        "maxMint(address)": "infinite",
        "maxRedeem(address)": "infinite",
        "maxWithdraw(address)": "infinite",
        "minSubscription()": "2351",
        "mint(uint256,address)": "infinite",
        "name()": "infinite",
        "openDeadline()": "2396",
        "openNextRound((uint256,uint256,uint256,uint256,uint256,uint256,uint256,uint256,uint256))": "infinite",
        "openWindow()": "2372",
        "openedAt()": "2373",
        "perAddressCap()": "2417",
        "performanceFeeBps()": "2373",
        "phase()": "6799",
        "previewDeposit(uint256)": "infinite",
        "previewMint(uint256)": "infinite",
        "previewRedeem(uint256)": "infinite",
        "previewWithdraw(uint256)": "infinite",
        "profitFunded()": "2400",
        "profitFunder()": "2459",
        "proposeSettlement(uint8,uint256,address)": "infinite",
        "redeem(uint256,address,address)": "infinite",
        "renounceRole(bytes32,address)": "29154",
        "revokeRole(bytes32,address)": "infinite",
        "roundCap()": "2417",
        "roundIndex()": "2416",
        "settleAmount()": "2351",
        "settleMode()": "2504",
        "settleProposedAt()": "2418",
        "settleTimelockWindow()": "2373",
        "settledAt()": "2372",
        "supportsInterface(bytes4)": "526",
        "symbol()": "infinite",
        "totalAssets()": "2339",
        "totalManagedAssets()": "2419",
        "totalSupply()": "2371",
        "transfer(address,uint256)": "infinite",
        "transferFrom(address,address,uint256)": "infinite",
        "withdraw(uint256,address,address)": "infinite"
      },
      "internal": {
        "_cancelProposedSettlement(bool)": "infinite",
        "_currentLockedAt()": "6410",
        "_currentPhase()": "6416",
        "_decimalsOffset()": "infinite",
        "_deposit(address,address,uint256,uint256)": "infinite",
        "_isOpenPeriodActive()": "6419",
        "_openRound(struct YieldVault.RoundParams calldata)": "infinite",
        "_syncOpenPeriodIfNeeded()": "infinite",
        "_withdraw(address,address,address,uint256,uint256)": "infinite"
      }
    }
  },
  "storageLayout": {
    "storage": [
      {
        "astId": 7729,
        "contract": "project/contracts/YieldVault.sol:YieldVault",
        "label": "factory",
        "offset": 0,
        "slot": "0",
        "type": "t_address"
      },
      {
        "astId": 7732,
        "contract": "project/contracts/YieldVault.sol:YieldVault",
        "label": "counterparty",
        "offset": 0,
        "slot": "1",
        "type": "t_address"
      },
      {
        "astId": 7735,
        "contract": "project/contracts/YieldVault.sol:YieldVault",
        "label": "feeRecipient",
        "offset": 0,
        "slot": "2",
        "type": "t_address"
      },
      {
        "astId": 7738,
        "contract": "project/contracts/YieldVault.sol:YieldVault",
        "label": "roundIndex",
        "offset": 0,
        "slot": "3",
        "type": "t_uint256"
      },
      {
        "astId": 7742,
        "contract": "project/contracts/YieldVault.sol:YieldVault",
        "label": "_phase",
        "offset": 0,
        "slot": "4",
        "type": "t_enum(Phase)7523"
      },
      {
        "astId": 7745,
        "contract": "project/contracts/YieldVault.sol:YieldVault",
        "label": "openWindow",
        "offset": 0,
        "slot": "5",
        "type": "t_uint256"
      },
      {
        "astId": 7748,
        "contract": "project/contracts/YieldVault.sol:YieldVault",
        "label": "lockDuration",
        "offset": 0,
        "slot": "6",
        "type": "t_uint256"
      },
      {
        "astId": 7751,
        "contract": "project/contracts/YieldVault.sol:YieldVault",
        "label": "settleTimelockWindow",
        "offset": 0,
        "slot": "7",
        "type": "t_uint256"
      },
      {
        "astId": 7754,
        "contract": "project/contracts/YieldVault.sol:YieldVault",
        "label": "roundCap",
        "offset": 0,
        "slot": "8",
        "type": "t_uint256"
      },
      {
        "astId": 7757,
        "contract": "project/contracts/YieldVault.sol:YieldVault",
        "label": "perAddressCap",
        "offset": 0,
        "slot": "9",
        "type": "t_uint256"
      },
      {
        "astId": 7760,
        "contract": "project/contracts/YieldVault.sol:YieldVault",
        "label": "minSubscription",
        "offset": 0,
        "slot": "10",
        "type": "t_uint256"
      },
      {
        "astId": 7763,
        "contract": "project/contracts/YieldVault.sol:YieldVault",
        "label": "performanceFeeBps",
        "offset": 0,
        "slot": "11",
        "type": "t_uint256"
      },
      {
        "astId": 7766,
        "contract": "project/contracts/YieldVault.sol:YieldVault",
        "label": "maxLossBps",
        "offset": 0,
        "slot": "12",
        "type": "t_uint256"
      },
      {
        "astId": 7769,
        "contract": "project/contracts/YieldVault.sol:YieldVault",
        "label": "openedAt",
        "offset": 0,
        "slot": "13",
        "type": "t_uint256"
      },
      {
        "astId": 7772,
        "contract": "project/contracts/YieldVault.sol:YieldVault",
        "label": "openDeadline",
        "offset": 0,
        "slot": "14",
        "type": "t_uint256"
      },
      {
        "astId": 7775,
        "contract": "project/contracts/YieldVault.sol:YieldVault",
        "label": "_lockedAt",
        "offset": 0,
        "slot": "15",
        "type": "t_uint256"
      },
      {
        "astId": 7778,
        "contract": "project/contracts/YieldVault.sol:YieldVault",
        "label": "settleProposedAt",
        "offset": 0,
        "slot": "16",
        "type": "t_uint256"
      },
      {
        "astId": 7781,
        "contract": "project/contracts/YieldVault.sol:YieldVault",
        "label": "settledAt",
        "offset": 0,
        "slot": "17",
        "type": "t_uint256"
      },
      {
        "astId": 7785,
        "contract": "project/contracts/YieldVault.sol:YieldVault",
        "label": "settleMode",
        "offset": 0,
        "slot": "18",
        "type": "t_enum(SettleMode)7527"
      },
      {
        "astId": 7788,
        "contract": "project/contracts/YieldVault.sol:YieldVault",
        "label": "settleAmount",
        "offset": 0,
        "slot": "19",
        "type": "t_uint256"
      },
      {
        "astId": 7791,
        "contract": "project/contracts/YieldVault.sol:YieldVault",
        "label": "profitFunded",
        "offset": 0,
        "slot": "20",
        "type": "t_bool"
      },
      {
        "astId": 7794,
        "contract": "project/contracts/YieldVault.sol:YieldVault",
        "label": "profitFunder",
        "offset": 1,
        "slot": "20",
        "type": "t_address"
      },
      {
        "astId": 7797,
        "contract": "project/contracts/YieldVault.sol:YieldVault",
        "label": "totalManagedAssets",
        "offset": 0,
        "slot": "21",
        "type": "t_uint256"
      }
    ],
    "types": {
      "t_address": {
        "encoding": "inplace",
        "label": "address",
        "numberOfBytes": "20"
      },
      "t_bool": {
        "encoding": "inplace",
        "label": "bool",
        "numberOfBytes": "1"
      },
      "t_enum(Phase)7523": {
        "encoding": "inplace",
        "label": "enum YieldVault.Phase",
        "numberOfBytes": "1"
      },
      "t_enum(SettleMode)7527": {
        "encoding": "inplace",
        "label": "enum YieldVault.SettleMode",
        "numberOfBytes": "1"
      },
      "t_uint256": {
        "encoding": "inplace",
        "label": "uint256",
        "numberOfBytes": "32"
      }
    }
  },
  "userdoc": {
    "errors": {
      "BelowMinSubscription(uint256,uint256)": [
        {
          "notice": "Subscription amount is below the minimum"
        }
      ],
      "FactoryPaused()": [
        {
          "notice": "Factory is paused and sensitive actions are blocked"
        }
      ],
      "InvalidAddress()": [
        {
          "notice": "Invalid address parameter such as zero address or mismatched caller"
        }
      ],
      "InvalidPhase(uint8)": [
        {
          "notice": "Current phase does not match the expected phase"
        }
      ],
      "InvalidRoundParams()": [
        {
          "notice": "Invalid round parameters"
        }
      ],
      "InvalidSettleMode()": [
        {
          "notice": "Invalid settlement mode for the current flow"
        }
      ],
      "InvalidSettlementInput()": [
        {
          "notice": "Invalid settlement input"
        }
      ],
      "LossExceedManaged(uint256,uint256)": [
        {
          "notice": "Loss amount exceeds the allowed managed-asset loss"
        }
      ],
      "ProfitAlreadyFunded()": [
        {
          "notice": "Profit proposal has already been funded"
        }
      ],
      "ProfitNotFunded()": [
        {
          "notice": "Profit proposal has not been funded yet and cannot be finalized"
        }
      ],
      "TimelockNotExpired(uint256)": [
        {
          "notice": "Settlement timelock has not expired"
        }
      ],
      "VaultNotMatured()": [
        {
          "notice": "Lock period has not matured yet"
        }
      ]
    },
    "events": {
      "CounterpartyProceedsPaid(address,uint256)": {
        "notice": "Loss deduction paid to counterparty on LOSS settlement"
      },
      "EmergencyCancelled(uint256)": {
        "notice": "Vault emergency-cancelled and left in SETTLED"
      },
      "OpenPeriodExtended(uint256,uint256,uint256)": {
        "notice": "Open period deadline extended by governance"
      },
      "ProfitFunded(address,uint256)": {
        "notice": "Profit funding succeeded"
      },
      "ProfitRefunded(address,uint256)": {
        "notice": "Refund completed when a settlement proposal is cancelled"
      },
      "RoundLocked(uint256,uint256,uint256)": {
        "notice": "Open period closed; round entered lock period"
      },
      "RoundOpened(uint256,uint256,uint256,uint256)": {
        "notice": "New round entered the open period"
      },
      "SettlementCancelled(uint256,uint256)": {
        "notice": "Settlement proposal cancelled"
      },
      "SettlementFinalized(uint256,uint8,uint256,uint256,uint256,uint256)": {
        "notice": "Settlement finalized"
      },
      "SettlementProposed(uint256,uint8,uint256,uint256,bool,address)": {
        "notice": "Settlement proposal submitted"
      }
    },
    "kind": "user",
    "methods": {
      "MAX_OPEN_EXTENSION()": {
        "notice": "Maximum single extension allowed for an active open period"
      },
      "MAX_PERFORMANCE_FEE_BPS()": {
        "notice": "Maximum performance fee rate in basis points (100%)"
      },
      "MIN_LOCK_DURATION()": {
        "notice": "Minimum lock period duration for each round"
      },
      "MIN_SETTLE_TIMELOCK()": {
        "notice": "Minimum settlement timelock duration for each round"
      },
      "cancelProposedSettlement()": {
        "notice": "Governance cancels the current proposal; any funded profit is refunded"
      },
      "counterparty()": {
        "notice": "Counterparty that receives loss proceeds on LOSS settlement"
      },
      "deposit(uint256,address)": {
        "notice": "Deposit assets and mint shares; only available during the open period"
      },
      "emergencyCancel()": {
        "notice": "Factory-triggered emergency cancel; leaves vault in SETTLED at principal pro-rata"
      },
      "extendOpenPeriod(uint256)": {
        "notice": "Governance extends the active open period by a duration in seconds"
      },
      "factory()": {
        "notice": "Factory address for reading global pause state and triggering emergency cancel"
      },
      "feeRecipient()": {
        "notice": "Fee recipient; used only in PROFIT mode"
      },
      "finalize()": {
        "notice": "Finalize settlement after timelock expiry; permissionless"
      },
      "fundProfit()": {
        "notice": "Anyone may fund a PROFIT proposal once"
      },
      "initialize((address,address,address,address,address,string,string,(uint256,uint256,uint256,uint256,uint256,uint256,uint256,uint256,uint256)))": {
        "notice": "Initialize the vault, grant governance roles, and open the first round"
      },
      "lockDuration()": {
        "notice": "Current round lock period duration in seconds"
      },
      "lockedAt()": {
        "notice": "Current lock period start timestamp, set to openDeadline once OPEN has expired."
      },
      "maxLossBps()": {
        "notice": "Current round maximum loss rate in bps"
      },
      "minSubscription()": {
        "notice": "Current round minimum subscription size"
      },
      "mint(uint256,address)": {
        "notice": "Mint shares for a target amount; only available during the open period"
      },
      "openDeadline()": {
        "notice": "Current open period end timestamp"
      },
      "openNextRound((uint256,uint256,uint256,uint256,uint256,uint256,uint256,uint256,uint256))": {
        "notice": "Governance opens the next round with new parameters while in SETTLED"
      },
      "openWindow()": {
        "notice": "Current round open period duration in seconds"
      },
      "openedAt()": {
        "notice": "Current open period start timestamp"
      },
      "perAddressCap()": {
        "notice": "Per-address subscription cap in asset units (0 = no limit)"
      },
      "performanceFeeBps()": {
        "notice": "Current round performance fee rate in bps"
      },
      "phase()": {
        "notice": "Current business phase, with OPEN treated as LOCKED after openDeadline."
      },
      "profitFunded()": {
        "notice": "Whether the current PROFIT proposal has been funded"
      },
      "profitFunder()": {
        "notice": "Funder address used for refund if a profit proposal is cancelled"
      },
      "proposeSettlement(uint8,uint256,address)": {
        "notice": "Governance submits a settlement proposal for a matured locked round"
      },
      "redeem(uint256,address,address)": {
        "notice": "Redeem shares for assets; only available in OPEN and SETTLED"
      },
      "roundCap()": {
        "notice": "Current round total running cap in asset units"
      },
      "roundIndex()": {
        "notice": "Current round index (starts at 1 after the first round opens)"
      },
      "settleAmount()": {
        "notice": "Proposed settlement amount (profit or loss)"
      },
      "settleMode()": {
        "notice": "Settlement mode for the current proposed / finalized round"
      },
      "settleProposedAt()": {
        "notice": "Current settlement proposal submission timestamp"
      },
      "settleTimelockWindow()": {
        "notice": "Current round settlement timelock window in seconds"
      },
      "settledAt()": {
        "notice": "Timestamp when the current round finalized into SETTLED"
      },
      "totalAssets()": {
        "notice": "ERC-4626 total assets backed by the cumulative managed-asset figure"
      },
      "totalManagedAssets()": {
        "notice": "Single cumulative managed-asset figure backing ERC-4626 `totalAssets()`"
      },
      "withdraw(uint256,address,address)": {
        "notice": "Withdraw a target amount of assets; only available in OPEN and SETTLED"
      }
    },
    "notice": "Single-vault, multi-round rolling yield vault (ERC-4626). One deployed instance advances sequentially across multiple rounds; unredeemed principal during the open window automatically rolls into the next round (auto-reinvest / compounding). There is no fixed round cap — governance opens each round explicitly. ## Per-round phase state machine        ┌──────────┐  openDeadline reached automatically        │   OPEN   │ ───────────────────────────────► LOCKED        └────┬─────┘             │ deposit + redeem allowed             ▼        ┌──────────┐  lockDuration elapsed → stays LOCKED (\"matured, awaiting governance\"),        │  LOCKED  │  redeem still blocked until governance acts        └────┬─────┘             │ governance proposeSettlement (admin, only after maturity)             ▼        ┌────────────────┐  timelock elapsed + profit funded        │ SETTLE_PROPOSED │ ──────────────────────────────────────────► SETTLED (finalize)        └────────────────┘             ▲   │ governance cancelProposedSettlement → back to LOCKED             └───┘        ┌──────────┐  governance openNextRound (admin) → new OPEN, roundIndex += 1        │ SETTLED  │ ───────────────────────────────────────────────────► OPEN        └──────────┘  redeem allowed; stays until governance opens the next round Redemption is allowed only in `OPEN` and `SETTLED`. `LOCKED` (including the post-maturity wait for governance) and `SETTLE_PROPOSED` reject redemption. Subscription (deposit / mint) is allowed only in `OPEN`. ## Governance-driven transitions - The open window automatically becomes `LOCKED` once `openDeadline` is reached; unredeemed   principal continues to be held and reinvested. - Governance (admin / multisig): (1) after lock maturity, `proposeSettlement` advances   `LOCKED → SETTLE_PROPOSED`; (2) `openNextRound` advances `SETTLED → OPEN` with that   round's parameters. - `finalize` advances `SETTLE_PROPOSED → SETTLED` once the timelock has elapsed and   (in PROFIT mode) profit has been funded; permissionless. ## Operational assumptions - The proposal / public notice period (`SETTLE_PROPOSED`) intentionally blocks redemption by   business requirement; users may redeem only before lock or after settlement. Admin and   factory owner operations are expected to be controlled by multisigs. - Governance may open the next round immediately after `finalize`; this is an intended rolling   vault workflow, not a cooldown-based withdrawal window. - Initialization accepts an optional `RoundParams.openedAt` timestamp to schedule the open   period; `0` opens immediately. Deposit and redeem stay blocked until `openedAt`. - Governance is expected to call `proposeSettlement` for every round. That call persists the   time-based `OPEN → LOCKED` transition through `_syncOpenPeriodIfNeeded()` and emits   `RoundLocked` for indexers before the settlement proposal is recorded. ## Accounting model Value is tracked by a single cumulative managed-asset figure `totalManagedAssets`, which backs ERC-4626 `totalAssets()`. Deposits increase it, redemptions decrease it; PROFIT settlement adds net yield, LOSS settlement deducts the loss (paid to counterparty). Because shares are proportional to managed assets, unredeemed holders keep the same share count while per-share value compounds across rounds. ## Terminal state When governance stops opening new rounds, the vault remains in `SETTLED`: redemption stays open and the share / asset exchange rate is frozen.",
    "version": 1
  },
  "argsData": "0x",
  "transaction": {
    "hash": "0x0c6f42f3f73134b5eb140001947c02e58d01d04be47b7eea5ac0ca6575552169",
    "nonce": "0x13",
    "origin": "0x4597c97a43dfbb4a398e2b16aa9ce61f90d801dd"
  }
}