{
  "address": "0x1d687e13c406ce5cbbea0400926f1a9561f74d12",
  "abi": [
    {
      "inputs": [],
      "stateMutability": "nonpayable",
      "type": "constructor"
    },
    {
      "inputs": [
        {
          "internalType": "address",
          "name": "spender",
          "type": "address"
        },
        {
          "internalType": "uint256",
          "name": "allowance",
          "type": "uint256"
        },
        {
          "internalType": "uint256",
          "name": "needed",
          "type": "uint256"
        }
      ],
      "name": "ERC20InsufficientAllowance",
      "type": "error"
    },
    {
      "inputs": [
        {
          "internalType": "address",
          "name": "sender",
          "type": "address"
        },
        {
          "internalType": "uint256",
          "name": "balance",
          "type": "uint256"
        },
        {
          "internalType": "uint256",
          "name": "needed",
          "type": "uint256"
        }
      ],
      "name": "ERC20InsufficientBalance",
      "type": "error"
    },
    {
      "inputs": [
        {
          "internalType": "address",
          "name": "approver",
          "type": "address"
        }
      ],
      "name": "ERC20InvalidApprover",
      "type": "error"
    },
    {
      "inputs": [
        {
          "internalType": "address",
          "name": "receiver",
          "type": "address"
        }
      ],
      "name": "ERC20InvalidReceiver",
      "type": "error"
    },
    {
      "inputs": [
        {
          "internalType": "address",
          "name": "sender",
          "type": "address"
        }
      ],
      "name": "ERC20InvalidSender",
      "type": "error"
    },
    {
      "inputs": [
        {
          "internalType": "address",
          "name": "spender",
          "type": "address"
        }
      ],
      "name": "ERC20InvalidSpender",
      "type": "error"
    },
    {
      "inputs": [
        {
          "internalType": "address",
          "name": "receiver",
          "type": "address"
        },
        {
          "internalType": "uint256",
          "name": "assets",
          "type": "uint256"
        },
        {
          "internalType": "uint256",
          "name": "max",
          "type": "uint256"
        }
      ],
      "name": "ERC4626ExceededMaxDeposit",
      "type": "error"
    },
    {
      "inputs": [
        {
          "internalType": "address",
          "name": "receiver",
          "type": "address"
        },
        {
          "internalType": "uint256",
          "name": "shares",
          "type": "uint256"
        },
        {
          "internalType": "uint256",
          "name": "max",
          "type": "uint256"
        }
      ],
      "name": "ERC4626ExceededMaxMint",
      "type": "error"
    },
    {
      "inputs": [
        {
          "internalType": "address",
          "name": "owner",
          "type": "address"
        },
        {
          "internalType": "uint256",
          "name": "shares",
          "type": "uint256"
        },
        {
          "internalType": "uint256",
          "name": "max",
          "type": "uint256"
        }
      ],
      "name": "ERC4626ExceededMaxRedeem",
      "type": "error"
    },
    {
      "inputs": [
        {
          "internalType": "address",
          "name": "owner",
          "type": "address"
        },
        {
          "internalType": "uint256",
          "name": "assets",
          "type": "uint256"
        },
        {
          "internalType": "uint256",
          "name": "max",
          "type": "uint256"
        }
      ],
      "name": "ERC4626ExceededMaxWithdraw",
      "type": "error"
    },
    {
      "inputs": [],
      "name": "EnforcedPause",
      "type": "error"
    },
    {
      "inputs": [
        {
          "internalType": "uint256",
          "name": "withdrawCount",
          "type": "uint256"
        }
      ],
      "name": "ExceedMaxWithdrawCount",
      "type": "error"
    },
    {
      "inputs": [],
      "name": "ExpectedPause",
      "type": "error"
    },
    {
      "inputs": [
        {
          "internalType": "uint256",
          "name": "prosBalance",
          "type": "uint256"
        },
        {
          "internalType": "uint256",
          "name": "stProsSupply",
          "type": "uint256"
        }
      ],
      "name": "Inv1Violation",
      "type": "error"
    },
    {
      "inputs": [],
      "name": "InvalidAddress",
      "type": "error"
    },
    {
      "inputs": [],
      "name": "InvalidInitialization",
      "type": "error"
    },
    {
      "inputs": [],
      "name": "NotInitializing",
      "type": "error"
    },
    {
      "inputs": [],
      "name": "OnlyAssetCanSendETH",
      "type": "error"
    },
    {
      "inputs": [
        {
          "internalType": "address",
          "name": "owner",
          "type": "address"
        }
      ],
      "name": "OwnableInvalidOwner",
      "type": "error"
    },
    {
      "inputs": [
        {
          "internalType": "address",
          "name": "account",
          "type": "address"
        }
      ],
      "name": "OwnableUnauthorizedAccount",
      "type": "error"
    },
    {
      "inputs": [],
      "name": "PROSNotSent",
      "type": "error"
    },
    {
      "inputs": [],
      "name": "ReentrancyGuardReentrantCall",
      "type": "error"
    },
    {
      "inputs": [
        {
          "internalType": "address",
          "name": "token",
          "type": "address"
        }
      ],
      "name": "SafeERC20FailedOperation",
      "type": "error"
    },
    {
      "inputs": [],
      "name": "TransferFailed",
      "type": "error"
    },
    {
      "inputs": [
        {
          "internalType": "uint256",
          "name": "value",
          "type": "uint256"
        },
        {
          "internalType": "uint256",
          "name": "maxValue",
          "type": "uint256"
        }
      ],
      "name": "UnbondingPeriodTooLong",
      "type": "error"
    },
    {
      "anonymous": false,
      "inputs": [
        {
          "indexed": true,
          "internalType": "address",
          "name": "owner",
          "type": "address"
        },
        {
          "indexed": true,
          "internalType": "address",
          "name": "spender",
          "type": "address"
        },
        {
          "indexed": false,
          "internalType": "uint256",
          "name": "value",
          "type": "uint256"
        }
      ],
      "name": "Approval",
      "type": "event"
    },
    {
      "anonymous": false,
      "inputs": [
        {
          "indexed": true,
          "internalType": "address",
          "name": "sender",
          "type": "address"
        },
        {
          "indexed": true,
          "internalType": "address",
          "name": "owner",
          "type": "address"
        },
        {
          "indexed": false,
          "internalType": "uint256",
          "name": "assets",
          "type": "uint256"
        },
        {
          "indexed": false,
          "internalType": "uint256",
          "name": "shares",
          "type": "uint256"
        }
      ],
      "name": "Deposit",
      "type": "event"
    },
    {
      "anonymous": false,
      "inputs": [
        {
          "indexed": false,
          "internalType": "uint64",
          "name": "version",
          "type": "uint64"
        }
      ],
      "name": "Initialized",
      "type": "event"
    },
    {
      "anonymous": false,
      "inputs": [
        {
          "indexed": false,
          "internalType": "uint256",
          "name": "maxWithdrawCount",
          "type": "uint256"
        }
      ],
      "name": "MaxWithdrawCountChanged",
      "type": "event"
    },
    {
      "anonymous": false,
      "inputs": [
        {
          "indexed": true,
          "internalType": "address",
          "name": "oldOracle",
          "type": "address"
        },
        {
          "indexed": true,
          "internalType": "address",
          "name": "newOracle",
          "type": "address"
        }
      ],
      "name": "OracleChanged",
      "type": "event"
    },
    {
      "anonymous": false,
      "inputs": [
        {
          "indexed": true,
          "internalType": "address",
          "name": "previousOwner",
          "type": "address"
        },
        {
          "indexed": true,
          "internalType": "address",
          "name": "newOwner",
          "type": "address"
        }
      ],
      "name": "OwnershipTransferred",
      "type": "event"
    },
    {
      "anonymous": false,
      "inputs": [
        {
          "indexed": true,
          "internalType": "address",
          "name": "sender",
          "type": "address"
        },
        {
          "indexed": false,
          "internalType": "uint256",
          "name": "amount",
          "type": "uint256"
        }
      ],
      "name": "PROSReceived",
      "type": "event"
    },
    {
      "anonymous": false,
      "inputs": [
        {
          "indexed": false,
          "internalType": "address",
          "name": "account",
          "type": "address"
        }
      ],
      "name": "Paused",
      "type": "event"
    },
    {
      "anonymous": false,
      "inputs": [
        {
          "indexed": true,
          "internalType": "address",
          "name": "from",
          "type": "address"
        },
        {
          "indexed": true,
          "internalType": "address",
          "name": "to",
          "type": "address"
        },
        {
          "indexed": false,
          "internalType": "uint256",
          "name": "value",
          "type": "uint256"
        }
      ],
      "name": "Transfer",
      "type": "event"
    },
    {
      "anonymous": false,
      "inputs": [
        {
          "indexed": true,
          "internalType": "address",
          "name": "oldAddress",
          "type": "address"
        },
        {
          "indexed": true,
          "internalType": "address",
          "name": "newAddress",
          "type": "address"
        }
      ],
      "name": "TriggerAddressChanged",
      "type": "event"
    },
    {
      "anonymous": false,
      "inputs": [
        {
          "indexed": false,
          "internalType": "uint256",
          "name": "oldUnbondingPeriod",
          "type": "uint256"
        },
        {
          "indexed": false,
          "internalType": "uint256",
          "name": "newUnbondingPeriod",
          "type": "uint256"
        }
      ],
      "name": "UnbondingPeriodChanged",
      "type": "event"
    },
    {
      "anonymous": false,
      "inputs": [
        {
          "indexed": false,
          "internalType": "address",
          "name": "account",
          "type": "address"
        }
      ],
      "name": "Unpaused",
      "type": "event"
    },
    {
      "anonymous": false,
      "inputs": [
        {
          "indexed": true,
          "internalType": "address",
          "name": "sender",
          "type": "address"
        },
        {
          "indexed": true,
          "internalType": "address",
          "name": "receiver",
          "type": "address"
        },
        {
          "indexed": true,
          "internalType": "address",
          "name": "owner",
          "type": "address"
        },
        {
          "indexed": false,
          "internalType": "uint256",
          "name": "assets",
          "type": "uint256"
        },
        {
          "indexed": false,
          "internalType": "uint256",
          "name": "shares",
          "type": "uint256"
        }
      ],
      "name": "Withdraw",
      "type": "event"
    },
    {
      "anonymous": false,
      "inputs": [
        {
          "indexed": true,
          "internalType": "address",
          "name": "caller",
          "type": "address"
        },
        {
          "indexed": true,
          "internalType": "address",
          "name": "receiver",
          "type": "address"
        },
        {
          "indexed": false,
          "internalType": "uint256",
          "name": "tokenAmount",
          "type": "uint256"
        }
      ],
      "name": "WithdrawalCompleted",
      "type": "event"
    },
    {
      "inputs": [],
      "name": "MAX_UNBONDING",
      "outputs": [
        {
          "internalType": "uint256",
          "name": "",
          "type": "uint256"
        }
      ],
      "stateMutability": "view",
      "type": "function"
    },
    {
      "inputs": [
        {
          "internalType": "address",
          "name": "owner",
          "type": "address"
        },
        {
          "internalType": "address",
          "name": "spender",
          "type": "address"
        }
      ],
      "name": "allowance",
      "outputs": [
        {
          "internalType": "uint256",
          "name": "",
          "type": "uint256"
        }
      ],
      "stateMutability": "view",
      "type": "function"
    },
    {
      "inputs": [
        {
          "internalType": "address",
          "name": "spender",
          "type": "address"
        },
        {
          "internalType": "uint256",
          "name": "value",
          "type": "uint256"
        }
      ],
      "name": "approve",
      "outputs": [
        {
          "internalType": "bool",
          "name": "",
          "type": "bool"
        }
      ],
      "stateMutability": "nonpayable",
      "type": "function"
    },
    {
      "inputs": [],
      "name": "asset",
      "outputs": [
        {
          "internalType": "address",
          "name": "",
          "type": "address"
        }
      ],
      "stateMutability": "view",
      "type": "function"
    },
    {
      "inputs": [
        {
          "internalType": "address",
          "name": "account",
          "type": "address"
        }
      ],
      "name": "balanceOf",
      "outputs": [
        {
          "internalType": "uint256",
          "name": "",
          "type": "uint256"
        }
      ],
      "stateMutability": "view",
      "type": "function"
    },
    {
      "inputs": [
        {
          "internalType": "address",
          "name": "target",
          "type": "address"
        },
        {
          "internalType": "uint256",
          "name": "maxRecords",
          "type": "uint256"
        }
      ],
      "name": "canWithdrawalAmount",
      "outputs": [
        {
          "internalType": "uint256",
          "name": "",
          "type": "uint256"
        },
        {
          "internalType": "uint256",
          "name": "",
          "type": "uint256"
        },
        {
          "internalType": "uint256",
          "name": "",
          "type": "uint256"
        }
      ],
      "stateMutability": "view",
      "type": "function"
    },
    {
      "inputs": [
        {
          "internalType": "address",
          "name": "target",
          "type": "address"
        }
      ],
      "name": "canWithdrawalAmount",
      "outputs": [
        {
          "internalType": "uint256",
          "name": "",
          "type": "uint256"
        },
        {
          "internalType": "uint256",
          "name": "",
          "type": "uint256"
        },
        {
          "internalType": "uint256",
          "name": "",
          "type": "uint256"
        }
      ],
      "stateMutability": "view",
      "type": "function"
    },
    {
      "inputs": [],
      "name": "completedWithdrawal",
      "outputs": [
        {
          "internalType": "uint256",
          "name": "",
          "type": "uint256"
        }
      ],
      "stateMutability": "view",
      "type": "function"
    },
    {
      "inputs": [
        {
          "internalType": "uint256",
          "name": "shares",
          "type": "uint256"
        }
      ],
      "name": "convertToAssets",
      "outputs": [
        {
          "internalType": "uint256",
          "name": "",
          "type": "uint256"
        }
      ],
      "stateMutability": "view",
      "type": "function"
    },
    {
      "inputs": [
        {
          "internalType": "uint256",
          "name": "assets",
          "type": "uint256"
        }
      ],
      "name": "convertToShares",
      "outputs": [
        {
          "internalType": "uint256",
          "name": "",
          "type": "uint256"
        }
      ],
      "stateMutability": "view",
      "type": "function"
    },
    {
      "inputs": [],
      "name": "decimals",
      "outputs": [
        {
          "internalType": "uint8",
          "name": "",
          "type": "uint8"
        }
      ],
      "stateMutability": "view",
      "type": "function"
    },
    {
      "inputs": [
        {
          "internalType": "uint256",
          "name": "assets",
          "type": "uint256"
        },
        {
          "internalType": "address",
          "name": "receiver",
          "type": "address"
        }
      ],
      "name": "deposit",
      "outputs": [
        {
          "internalType": "uint256",
          "name": "",
          "type": "uint256"
        }
      ],
      "stateMutability": "nonpayable",
      "type": "function"
    },
    {
      "inputs": [],
      "name": "depositWithPROS",
      "outputs": [
        {
          "internalType": "uint256",
          "name": "",
          "type": "uint256"
        }
      ],
      "stateMutability": "payable",
      "type": "function"
    },
    {
      "inputs": [
        {
          "internalType": "address",
          "name": "target",
          "type": "address"
        }
      ],
      "name": "getWithdrawals",
      "outputs": [
        {
          "components": [
            {
              "internalType": "uint256",
              "name": "queued",
              "type": "uint256"
            },
            {
              "internalType": "uint256",
              "name": "pending",
              "type": "uint256"
            },
            {
              "internalType": "uint256",
              "name": "createdAt",
              "type": "uint256"
            },
            {
              "internalType": "uint256",
              "name": "unbondingPeriod",
              "type": "uint256"
            }
          ],
          "internalType": "struct VToken.Withdrawal[]",
          "name": "",
          "type": "tuple[]"
        }
      ],
      "stateMutability": "view",
      "type": "function"
    },
    {
      "inputs": [
        {
          "internalType": "contract IERC20",
          "name": "asset",
          "type": "address"
        },
        {
          "internalType": "address",
          "name": "owner",
          "type": "address"
        },
        {
          "internalType": "string",
          "name": "name",
          "type": "string"
        },
        {
          "internalType": "string",
          "name": "symbol",
          "type": "string"
        }
      ],
      "name": "initialize",
      "outputs": [],
      "stateMutability": "nonpayable",
      "type": "function"
    },
    {
      "inputs": [
        {
          "internalType": "address",
          "name": "",
          "type": "address"
        }
      ],
      "name": "maxDeposit",
      "outputs": [
        {
          "internalType": "uint256",
          "name": "",
          "type": "uint256"
        }
      ],
      "stateMutability": "view",
      "type": "function"
    },
    {
      "inputs": [
        {
          "internalType": "address",
          "name": "",
          "type": "address"
        }
      ],
      "name": "maxMint",
      "outputs": [
        {
          "internalType": "uint256",
          "name": "",
          "type": "uint256"
        }
      ],
      "stateMutability": "view",
      "type": "function"
    },
    {
      "inputs": [
        {
          "internalType": "address",
          "name": "owner",
          "type": "address"
        }
      ],
      "name": "maxRedeem",
      "outputs": [
        {
          "internalType": "uint256",
          "name": "",
          "type": "uint256"
        }
      ],
      "stateMutability": "view",
      "type": "function"
    },
    {
      "inputs": [
        {
          "internalType": "address",
          "name": "owner",
          "type": "address"
        }
      ],
      "name": "maxWithdraw",
      "outputs": [
        {
          "internalType": "uint256",
          "name": "",
          "type": "uint256"
        }
      ],
      "stateMutability": "view",
      "type": "function"
    },
    {
      "inputs": [],
      "name": "maxWithdrawCount",
      "outputs": [
        {
          "internalType": "uint256",
          "name": "",
          "type": "uint256"
        }
      ],
      "stateMutability": "view",
      "type": "function"
    },
    {
      "inputs": [
        {
          "internalType": "uint256",
          "name": "shares",
          "type": "uint256"
        },
        {
          "internalType": "address",
          "name": "receiver",
          "type": "address"
        }
      ],
      "name": "mint",
      "outputs": [
        {
          "internalType": "uint256",
          "name": "",
          "type": "uint256"
        }
      ],
      "stateMutability": "nonpayable",
      "type": "function"
    },
    {
      "inputs": [],
      "name": "name",
      "outputs": [
        {
          "internalType": "string",
          "name": "",
          "type": "string"
        }
      ],
      "stateMutability": "view",
      "type": "function"
    },
    {
      "inputs": [],
      "name": "oracle",
      "outputs": [
        {
          "internalType": "contract Oracle",
          "name": "",
          "type": "address"
        }
      ],
      "stateMutability": "view",
      "type": "function"
    },
    {
      "inputs": [],
      "name": "owner",
      "outputs": [
        {
          "internalType": "address",
          "name": "",
          "type": "address"
        }
      ],
      "stateMutability": "view",
      "type": "function"
    },
    {
      "inputs": [],
      "name": "pause",
      "outputs": [],
      "stateMutability": "nonpayable",
      "type": "function"
    },
    {
      "inputs": [],
      "name": "paused",
      "outputs": [
        {
          "internalType": "bool",
          "name": "",
          "type": "bool"
        }
      ],
      "stateMutability": "view",
      "type": "function"
    },
    {
      "inputs": [
        {
          "internalType": "uint256",
          "name": "assets",
          "type": "uint256"
        }
      ],
      "name": "previewDeposit",
      "outputs": [
        {
          "internalType": "uint256",
          "name": "",
          "type": "uint256"
        }
      ],
      "stateMutability": "view",
      "type": "function"
    },
    {
      "inputs": [
        {
          "internalType": "uint256",
          "name": "shares",
          "type": "uint256"
        }
      ],
      "name": "previewMint",
      "outputs": [
        {
          "internalType": "uint256",
          "name": "",
          "type": "uint256"
        }
      ],
      "stateMutability": "view",
      "type": "function"
    },
    {
      "inputs": [
        {
          "internalType": "uint256",
          "name": "shares",
          "type": "uint256"
        }
      ],
      "name": "previewRedeem",
      "outputs": [
        {
          "internalType": "uint256",
          "name": "",
          "type": "uint256"
        }
      ],
      "stateMutability": "view",
      "type": "function"
    },
    {
      "inputs": [
        {
          "internalType": "uint256",
          "name": "assets",
          "type": "uint256"
        }
      ],
      "name": "previewWithdraw",
      "outputs": [
        {
          "internalType": "uint256",
          "name": "",
          "type": "uint256"
        }
      ],
      "stateMutability": "view",
      "type": "function"
    },
    {
      "inputs": [],
      "name": "queuedWithdrawal",
      "outputs": [
        {
          "internalType": "uint256",
          "name": "",
          "type": "uint256"
        }
      ],
      "stateMutability": "view",
      "type": "function"
    },
    {
      "inputs": [
        {
          "internalType": "uint256",
          "name": "shares",
          "type": "uint256"
        },
        {
          "internalType": "address",
          "name": "receiver",
          "type": "address"
        },
        {
          "internalType": "address",
          "name": "owner",
          "type": "address"
        }
      ],
      "name": "redeem",
      "outputs": [
        {
          "internalType": "uint256",
          "name": "",
          "type": "uint256"
        }
      ],
      "stateMutability": "nonpayable",
      "type": "function"
    },
    {
      "inputs": [],
      "name": "renounceOwnership",
      "outputs": [],
      "stateMutability": "nonpayable",
      "type": "function"
    },
    {
      "inputs": [
        {
          "internalType": "uint256",
          "name": "_maxWithdrawCount",
          "type": "uint256"
        }
      ],
      "name": "setMaxWithdrawCount",
      "outputs": [],
      "stateMutability": "nonpayable",
      "type": "function"
    },
    {
      "inputs": [
        {
          "internalType": "address",
          "name": "_oracle",
          "type": "address"
        }
      ],
      "name": "setOracle",
      "outputs": [],
      "stateMutability": "nonpayable",
      "type": "function"
    },
    {
      "inputs": [
        {
          "internalType": "uint256",
          "name": "_unbondingPeriod",
          "type": "uint256"
        }
      ],
      "name": "setUnbondingPeriod",
      "outputs": [],
      "stateMutability": "nonpayable",
      "type": "function"
    },
    {
      "inputs": [
        {
          "internalType": "bytes4",
          "name": "interfaceId",
          "type": "bytes4"
        }
      ],
      "name": "supportsInterface",
      "outputs": [
        {
          "internalType": "bool",
          "name": "",
          "type": "bool"
        }
      ],
      "stateMutability": "view",
      "type": "function"
    },
    {
      "inputs": [],
      "name": "symbol",
      "outputs": [
        {
          "internalType": "string",
          "name": "",
          "type": "string"
        }
      ],
      "stateMutability": "view",
      "type": "function"
    },
    {
      "inputs": [],
      "name": "totalAssets",
      "outputs": [
        {
          "internalType": "uint256",
          "name": "",
          "type": "uint256"
        }
      ],
      "stateMutability": "view",
      "type": "function"
    },
    {
      "inputs": [],
      "name": "totalCanWithdrawAmount",
      "outputs": [
        {
          "internalType": "uint256",
          "name": "",
          "type": "uint256"
        }
      ],
      "stateMutability": "view",
      "type": "function"
    },
    {
      "inputs": [],
      "name": "totalSupply",
      "outputs": [
        {
          "internalType": "uint256",
          "name": "",
          "type": "uint256"
        }
      ],
      "stateMutability": "view",
      "type": "function"
    },
    {
      "inputs": [
        {
          "internalType": "address",
          "name": "to",
          "type": "address"
        },
        {
          "internalType": "uint256",
          "name": "value",
          "type": "uint256"
        }
      ],
      "name": "transfer",
      "outputs": [
        {
          "internalType": "bool",
          "name": "",
          "type": "bool"
        }
      ],
      "stateMutability": "nonpayable",
      "type": "function"
    },
    {
      "inputs": [
        {
          "internalType": "address",
          "name": "from",
          "type": "address"
        },
        {
          "internalType": "address",
          "name": "to",
          "type": "address"
        },
        {
          "internalType": "uint256",
          "name": "value",
          "type": "uint256"
        }
      ],
      "name": "transferFrom",
      "outputs": [
        {
          "internalType": "bool",
          "name": "",
          "type": "bool"
        }
      ],
      "stateMutability": "nonpayable",
      "type": "function"
    },
    {
      "inputs": [
        {
          "internalType": "address",
          "name": "newOwner",
          "type": "address"
        }
      ],
      "name": "transferOwnership",
      "outputs": [],
      "stateMutability": "nonpayable",
      "type": "function"
    },
    {
      "inputs": [],
      "name": "unbondingPeriod",
      "outputs": [
        {
          "internalType": "uint256",
          "name": "",
          "type": "uint256"
        }
      ],
      "stateMutability": "view",
      "type": "function"
    },
    {
      "inputs": [],
      "name": "unpause",
      "outputs": [],
      "stateMutability": "nonpayable",
      "type": "function"
    },
    {
      "inputs": [
        {
          "internalType": "uint256",
          "name": "assets",
          "type": "uint256"
        },
        {
          "internalType": "address",
          "name": "receiver",
          "type": "address"
        },
        {
          "internalType": "address",
          "name": "owner",
          "type": "address"
        }
      ],
      "name": "withdraw",
      "outputs": [
        {
          "internalType": "uint256",
          "name": "",
          "type": "uint256"
        }
      ],
      "stateMutability": "nonpayable",
      "type": "function"
    },
    {
      "inputs": [],
      "name": "withdrawComplete",
      "outputs": [
        {
          "internalType": "uint256",
          "name": "",
          "type": "uint256"
        }
      ],
      "stateMutability": "nonpayable",
      "type": "function"
    },
    {
      "inputs": [
        {
          "internalType": "address",
          "name": "receiver",
          "type": "address"
        },
        {
          "internalType": "uint256",
          "name": "maxRecords",
          "type": "uint256"
        }
      ],
      "name": "withdrawComplete",
      "outputs": [
        {
          "internalType": "uint256",
          "name": "",
          "type": "uint256"
        }
      ],
      "stateMutability": "nonpayable",
      "type": "function"
    },
    {
      "inputs": [
        {
          "internalType": "address",
          "name": "receiver",
          "type": "address"
        }
      ],
      "name": "withdrawComplete",
      "outputs": [
        {
          "internalType": "uint256",
          "name": "",
          "type": "uint256"
        }
      ],
      "stateMutability": "nonpayable",
      "type": "function"
    },
    {
      "inputs": [
        {
          "internalType": "uint256",
          "name": "maxRecords",
          "type": "uint256"
        }
      ],
      "name": "withdrawComplete",
      "outputs": [
        {
          "internalType": "uint256",
          "name": "",
          "type": "uint256"
        }
      ],
      "stateMutability": "nonpayable",
      "type": "function"
    },
    {
      "inputs": [],
      "name": "withdrawCompleteToPROS",
      "outputs": [
        {
          "internalType": "uint256",
          "name": "",
          "type": "uint256"
        }
      ],
      "stateMutability": "nonpayable",
      "type": "function"
    },
    {
      "inputs": [
        {
          "internalType": "uint256",
          "name": "maxRecords",
          "type": "uint256"
        }
      ],
      "name": "withdrawCompleteToPROS",
      "outputs": [
        {
          "internalType": "uint256",
          "name": "",
          "type": "uint256"
        }
      ],
      "stateMutability": "nonpayable",
      "type": "function"
    },
    {
      "inputs": [
        {
          "internalType": "address",
          "name": "",
          "type": "address"
        }
      ],
      "name": "withdrawalHead",
      "outputs": [
        {
          "internalType": "uint256",
          "name": "",
          "type": "uint256"
        }
      ],
      "stateMutability": "view",
      "type": "function"
    },
    {
      "inputs": [
        {
          "internalType": "address",
          "name": "",
          "type": "address"
        }
      ],
      "name": "withdrawalTail",
      "outputs": [
        {
          "internalType": "uint256",
          "name": "",
          "type": "uint256"
        }
      ],
      "stateMutability": "view",
      "type": "function"
    },
    {
      "stateMutability": "payable",
      "type": "receive"
    }
  ],
  "contractName": "StPROS",
  "sourceName": "contracts/StPROS.sol",
  "bytecode": "0x608060405234801561000f575f5ffd5b5061001e61003160201b60201c565b61002c61003160201b60201c565b6101ac565b5f61004061012f60201b60201c565b9050805f0160089054906101000a900460ff161561008a576040517ff92ee8a900000000000000000000000000000000000000000000000000000000815260040160405180910390fd5b67ffffffffffffffff8016815f015f9054906101000a900467ffffffffffffffff1667ffffffffffffffff161461012c5767ffffffffffffffff815f015f6101000a81548167ffffffffffffffff021916908367ffffffffffffffff1602179055507fc7f505b2f371ae2175ee4913f4499e1f2633a7b5936321eed1cdaeb6115181d267ffffffffffffffff6040516101239190610193565b60405180910390a15b50565b5f5f61013f61014860201b60201c565b90508091505090565b5f7ff0c57e16840df040f15088dc2f81fe391c3923bec73e23a9662efc9c229c6a005f1b905090565b5f67ffffffffffffffff82169050919050565b61018d81610171565b82525050565b5f6020820190506101a65f830184610184565b92915050565b614b52806101b95f395ff3fe608060405260043610610353575f3560e01c806370a08231116101c5578063b3d7f6b9116100f6578063cbdb463a11610094578063dc692cd71161006e578063dc692cd714610e17578063dd62ed3e14610e41578063ef8b30f714610e7d578063f2fde38b14610eb95761041b565b8063cbdb463a14610d63578063ce96cb7714610d9f578063d905777e14610ddb5761041b565b8063ba087652116100d0578063ba08765214610c73578063c1e2f5a414610caf578063c63d75b614610ceb578063c6e6f59214610d275761041b565b8063b3d7f6b914610bdd578063b4430b9914610c19578063b460af9414610c375761041b565b806394bf804d11610163578063a2a9b1ae1161013d578063a2a9b1ae14610aff578063a4622df714610b29578063a9059cbb14610b65578063abc9653e14610ba15761041b565b806394bf804d14610a6f57806395d89b4114610aab578063996e5c0614610ad55761041b565b80637c815a5a1161019f5780637c815a5a146109db5780637dc0d1d014610a055780638456cb5914610a2f5780638da5cb5b14610a455761041b565b806370a0823114610961578063715018a61461099d5780637adbf973146109b35761041b565b80632e6cb8411161029f57806352a630b91161023d57806363ea1b921161021757806363ea1b92146108a95780636cf6d675146108d35780636d67d5d4146108fd5780636e553f65146109255761041b565b806352a630b9146108055780635c975abb1461084357806362e78eff1461086d5761041b565b80633a2b643a116102795780633a2b643a1461073b5780633f4ba83a14610777578063402d267d1461078d5780634cdad506146107c95761041b565b80632e6cb841146106bd578063313ce567146106e757806338d52e0f146107115761041b565b8063114eaf551161030c57806323b872dd116102e657806323b872dd146105dd578063240f557914610619578063266a3bce146106575780632b80a95d146106815761041b565b8063114eaf551461056357806318160ddd1461058b5780632016a0d2146105b55761041b565b806301e1d1141461041f57806301ffc9a71461044957806306fdde031461048557806307a2d13a146104af578063095ea7b3146104eb5780630a28a477146105275761041b565b3661041b57610360610ee1565b73ffffffffffffffffffffffffffffffffffffffff163373ffffffffffffffffffffffffffffffffffffffff16146103c4576040517f2ce9100900000000000000000000000000000000000000000000000000000000815260040160405180910390fd5b6103cc610f16565b73ffffffffffffffffffffffffffffffffffffffff167f23414b42274fc6196bc27afef5bf7cc89d648c1d41837ba6733763b7c34e968e346040516104119190613d62565b60405180910390a2005b5f5ffd5b34801561042a575f5ffd5b50610433610f1d565b6040516104409190613d62565b60405180910390f35b348015610454575f5ffd5b5061046f600480360381019061046a9190613de1565b611032565b60405161047c9190613e26565b60405180910390f35b348015610490575f5ffd5b50610499611113565b6040516104a69190613eaf565b60405180910390f35b3480156104ba575f5ffd5b506104d560048036038101906104d09190613ef9565b6111b1565b6040516104e29190613d62565b60405180910390f35b3480156104f6575f5ffd5b50610511600480360381019061050c9190613f7e565b6111c3565b60405161051e9190613e26565b60405180910390f35b348015610532575f5ffd5b5061054d60048036038101906105489190613ef9565b6111e5565b60405161055a9190613d62565b60405180910390f35b34801561056e575f5ffd5b5061058960048036038101906105849190613ef9565b6111f8565b005b348015610596575f5ffd5b5061059f611297565b6040516105ac9190613d62565b60405180910390f35b3480156105c0575f5ffd5b506105db60048036038101906105d69190614123565b6112ae565b005b3480156105e8575f5ffd5b5061060360048036038101906105fe91906141bf565b611435565b6040516106109190613e26565b60405180910390f35b348015610624575f5ffd5b5061063f600480360381019061063a9190613f7e565b611463565b60405161064e9392919061420f565b60405180910390f35b348015610662575f5ffd5b5061066b611678565b6040516106789190613d62565b60405180910390f35b34801561068c575f5ffd5b506106a760048036038101906106a29190613f7e565b61168b565b6040516106b49190613d62565b60405180910390f35b3480156106c8575f5ffd5b506106d1611922565b6040516106de9190613d62565b60405180910390f35b3480156106f2575f5ffd5b506106fb611a5b565b604051610708919061425f565b60405180910390f35b34801561071c575f5ffd5b50610725610ee1565b6040516107329190614287565b60405180910390f35b348015610746575f5ffd5b50610761600480360381019061075c91906142a0565b611a90565b60405161076e91906143d5565b60405180910390f35b348015610782575f5ffd5b5061078b611c48565b005b348015610798575f5ffd5b506107b360048036038101906107ae91906142a0565b611c5a565b6040516107c09190613d62565b60405180910390f35b3480156107d4575f5ffd5b506107ef60048036038101906107ea9190613ef9565b611c83565b6040516107fc9190613d62565b60405180910390f35b348015610810575f5ffd5b5061082b600480360381019061082691906142a0565b611c95565b60405161083a9392919061420f565b60405180910390f35b34801561084e575f5ffd5b50610857611cb2565b6040516108649190613e26565b60405180910390f35b348015610878575f5ffd5b50610893600480360381019061088e91906142a0565b611cd4565b6040516108a09190613d62565b60405180910390f35b3480156108b4575f5ffd5b506108bd611ce9565b6040516108ca9190613d62565b60405180910390f35b3480156108de575f5ffd5b506108e7611cef565b6040516108f49190613d62565b60405180910390f35b348015610908575f5ffd5b50610923600480360381019061091e9190613ef9565b611cf5565b005b348015610930575f5ffd5b5061094b600480360381019061094691906143f5565b611d3e565b6040516109589190613d62565b60405180910390f35b34801561096c575f5ffd5b50610987600480360381019061098291906142a0565b611d6e565b6040516109949190613d62565b60405180910390f35b3480156109a8575f5ffd5b506109b1611dc1565b005b3480156109be575f5ffd5b506109d960048036038101906109d491906142a0565b611dd4565b005b3480156109e6575f5ffd5b506109ef611f02565b6040516109fc9190613d62565b60405180910390f35b348015610a10575f5ffd5b50610a19611f08565b604051610a26919061448e565b60405180910390f35b348015610a3a575f5ffd5b50610a43611f2c565b005b348015610a50575f5ffd5b50610a59611f3e565b604051610a669190614287565b60405180910390f35b348015610a7a575f5ffd5b50610a956004803603810190610a9091906143f5565b611f73565b604051610aa29190613d62565b60405180910390f35b348015610ab6575f5ffd5b50610abf611fa3565b604051610acc9190613eaf565b60405180910390f35b348015610ae0575f5ffd5b50610ae9612041565b604051610af69190613d62565b60405180910390f35b348015610b0a575f5ffd5b50610b13612047565b604051610b209190613d62565b60405180910390f35b348015610b34575f5ffd5b50610b4f6004803603810190610b4a91906142a0565b61204e565b604051610b5c9190613d62565b60405180910390f35b348015610b70575f5ffd5b50610b8b6004803603810190610b869190613f7e565b612063565b604051610b989190613e26565b60405180910390f35b348015610bac575f5ffd5b50610bc76004803603810190610bc29190613ef9565b612085565b604051610bd49190613d62565b60405180910390f35b348015610be8575f5ffd5b50610c036004803603810190610bfe9190613ef9565b612097565b604051610c109190613d62565b60405180910390f35b610c216120aa565b604051610c2e9190613d62565b60405180910390f35b348015610c42575f5ffd5b50610c5d6004803603810190610c5891906144a7565b6121e4565b604051610c6a9190613d62565b60405180910390f35b348015610c7e575f5ffd5b50610c996004803603810190610c9491906144a7565b612211565b604051610ca69190613d62565b60405180910390f35b348015610cba575f5ffd5b50610cd56004803603810190610cd09190613ef9565b61223e565b604051610ce29190613d62565b60405180910390f35b348015610cf6575f5ffd5b50610d116004803603810190610d0c91906142a0565b61237a565b604051610d1e9190613d62565b60405180910390f35b348015610d32575f5ffd5b50610d4d6004803603810190610d489190613ef9565b6123a3565b604051610d5a9190613d62565b60405180910390f35b348015610d6e575f5ffd5b50610d896004803603810190610d8491906142a0565b6123b5565b604051610d969190613d62565b60405180910390f35b348015610daa575f5ffd5b50610dc56004803603810190610dc091906142a0565b6123ca565b604051610dd29190613d62565b60405180910390f35b348015610de6575f5ffd5b50610e016004803603810190610dfc91906142a0565b6123e3565b604051610e0e9190613d62565b60405180910390f35b348015610e22575f5ffd5b50610e2b6123f4565b604051610e389190613d62565b60405180910390f35b348015610e4c575f5ffd5b50610e676004803603810190610e6291906144f7565b6123fa565b604051610e749190613d62565b60405180910390f35b348015610e88575f5ffd5b50610ea36004803603810190610e9e9190613ef9565b61248a565b604051610eb09190613d62565b60405180910390f35b348015610ec4575f5ffd5b50610edf6004803603810190610eda91906142a0565b61249c565b005b5f5f610eeb612520565b9050805f015f9054906101000a900473ffffffffffffffffffffffffffffffffffffffff1691505090565b5f33905090565b5f5f5f9054906101000a900473ffffffffffffffffffffffffffffffffffffffff1673ffffffffffffffffffffffffffffffffffffffff1663a71b35ab610f62610ee1565b3073ffffffffffffffffffffffffffffffffffffffff166318160ddd6040518163ffffffff1660e01b8152600401602060405180830381865afa158015610fab573d5f5f3e3d5ffd5b505050506040513d601f19601f82011682018060405250810190610fcf9190614549565b5f6040518463ffffffff1660e01b8152600401610fee939291906145e7565b602060405180830381865afa158015611009573d5f5f3e3d5ffd5b505050506040513d601f19601f8201168201806040525081019061102d9190614549565b905090565b5f7f87dfe5a0000000000000000000000000000000000000000000000000000000007bffffffffffffffffffffffffffffffffffffffffffffffffffffffff1916827bffffffffffffffffffffffffffffffffffffffffffffffffffffffff191614806110fc57507f36372b07000000000000000000000000000000000000000000000000000000007bffffffffffffffffffffffffffffffffffffffffffffffffffffffff1916827bffffffffffffffffffffffffffffffffffffffffffffffffffffffff1916145b8061110c575061110b82612547565b5b9050919050565b60605f61111e6125b0565b905080600301805461112f90614649565b80601f016020809104026020016040519081016040528092919081815260200182805461115b90614649565b80156111a65780601f1061117d576101008083540402835291602001916111a6565b820191905f5260205f20905b81548152906001019060200180831161118957829003601f168201915b505050505091505090565b5f6111bc825f6125d7565b9050919050565b5f5f6111cd610f16565b90506111da818585612683565b600191505092915050565b5f6111f1826001612695565b9050919050565b611200612741565b62278d0081111561124d578062278d006040517fd5136d18000000000000000000000000000000000000000000000000000000008152600401611244929190614679565b60405180910390fd5b5f6008549050816008819055507f6b7aec0929ea072dcacff8f1782131a82d304d9169e19c5aae49c087b6d12032818360405161128b929190614679565b60405180910390a15050565b5f5f6112a16125b0565b9050806002015491505090565b5f6112b76127c8565b90505f815f0160089054906101000a900460ff161590505f825f015f9054906101000a900467ffffffffffffffff1690505f5f8267ffffffffffffffff161480156112ff5750825b90505f60018367ffffffffffffffff1614801561133257505f3073ffffffffffffffffffffffffffffffffffffffff163b145b905081158015611340575080155b15611377576040517ff92ee8a900000000000000000000000000000000000000000000000000000000815260040160405180910390fd5b6001855f015f6101000a81548167ffffffffffffffff021916908367ffffffffffffffff16021790555083156113c4576001855f0160086101000a81548160ff0219169083151502179055505b6113d0898989896127db565b831561142a575f855f0160086101000a81548160ff0219169083151502179055507fc7f505b2f371ae2175ee4913f4499e1f2633a7b5936321eed1cdaeb6115181d2600160405161142191906146ec565b60405180910390a15b505050505050505050565b5f5f61143f610f16565b905061144c858285612827565b6114578585856128ba565b60019150509392505050565b5f5f5f5f5f90505f5f90505f5f90505f6001546003546114839190614732565b90505f60045f8b73ffffffffffffffffffffffffffffffffffffffff1673ffffffffffffffffffffffffffffffffffffffff1681526020019081526020015f205490505f60055f8c73ffffffffffffffffffffffffffffffffffffffff1673ffffffffffffffffffffffffffffffffffffffff1681526020019081526020015f205490505f5f8b14611515578a61151a565b60ff80165b90505f8390505b828110801561152f57508187105b15611660575f60065f8f73ffffffffffffffffffffffffffffffffffffffff1673ffffffffffffffffffffffffffffffffffffffff1681526020019081526020015f205f8381526020019081526020015f206040518060800160405290815f8201548152602001600182015481526020016002820154815260200160038201548152505090505f816060015182604001516115ca9190614732565b9050804210156115db575050611660565b815f0151871115611644575f825f0151886115f69190614765565b9050826020015181101561161d57808b6116109190614732565b9a50809850505050611660565b82602001518b61162d9190614732565b9a5060018a61163c9190614732565b99505061164b565b5050611660565b5050808061165890614798565b915050611521565b50868686995099509950505050505050509250925092565b5f6116863360ff801661168b565b905090565b5f5f5f5f6116993386611463565b9250925092505f83036116b1575f935050505061191c565b5f60045f3373ffffffffffffffffffffffffffffffffffffffff1673ffffffffffffffffffffffffffffffffffffffff1681526020019081526020015f205490505f5f90505b838110156117815760065f3373ffffffffffffffffffffffffffffffffffffffff1673ffffffffffffffffffffffffffffffffffffffff1681526020019081526020015f205f82846117499190614732565b81526020019081526020015f205f5f82015f9055600182015f9055600282015f9055600382015f9055505080806001019150506116f7565b5082810190508060045f3373ffffffffffffffffffffffffffffffffffffffff1673ffffffffffffffffffffffffffffffffffffffff1681526020019081526020015f20819055505f821115611843575f60065f3373ffffffffffffffffffffffffffffffffffffffff1673ffffffffffffffffffffffffffffffffffffffff1681526020019081526020015f205f8381526020019081526020015f20905082816001015f828254039250508190555082815f015f8282540192505081905550505b8360035f8282546118549190614732565b925050819055508360015f82825461186c9190614765565b9250508190555061187d30856129aa565b6118af878561188a610ee1565b73ffffffffffffffffffffffffffffffffffffffff16612a299092919063ffffffff16565b8673ffffffffffffffffffffffffffffffffffffffff163373ffffffffffffffffffffffffffffffffffffffff167fb00382203b46c3b6ad0a2d7af0268e334bd9406256a7c7ba8f7fc8bc47f8cde98660405161190c9190613d62565b60405180910390a3839450505050505b92915050565b5f61192b612a7c565b611933612abd565b5f61193d3061204e565b9050611947610ee1565b73ffffffffffffffffffffffffffffffffffffffff16632e1a7d4d826040518263ffffffff1660e01b815260040161197f9190613d62565b5f604051808303815f87803b158015611996575f5ffd5b505af11580156119a8573d5f5f3e3d5ffd5b505050505f3373ffffffffffffffffffffffffffffffffffffffff16826040516119d19061480c565b5f6040518083038185875af1925050503d805f8114611a0b576040519150601f19603f3d011682016040523d82523d5f602084013e611a10565b606091505b5050905080611a4b576040517f90b8ec1800000000000000000000000000000000000000000000000000000000815260040160405180910390fd5b8192505050611a58612aea565b90565b5f5f611a65612520565b9050611a6f612b0e565b815f0160149054906101000a900460ff16611a8a9190614820565b91505090565b60605f60045f8473ffffffffffffffffffffffffffffffffffffffff1673ffffffffffffffffffffffffffffffffffffffff1681526020019081526020015f205490505f60055f8573ffffffffffffffffffffffffffffffffffffffff1673ffffffffffffffffffffffffffffffffffffffff1681526020019081526020015f205490505f8282611b219190614765565b90505f8167ffffffffffffffff811115611b3e57611b3d613fff565b5b604051908082528060200260200182016040528015611b7757816020015b611b64613d26565b815260200190600190039081611b5c5790505b5090505f5f90505b82811015611c3b5760065f8873ffffffffffffffffffffffffffffffffffffffff1673ffffffffffffffffffffffffffffffffffffffff1681526020019081526020015f205f8287611bd19190614732565b81526020019081526020015f206040518060800160405290815f82015481526020016001820154815260200160028201548152602001600382015481525050828281518110611c2357611c22614854565b5b60200260200101819052508080600101915050611b7f565b5080945050505050919050565b611c50612741565b611c58612b15565b565b5f7fffffffffffffffffffffffffffffffffffffffffffffffffffffffffffffffff9050919050565b5f611c8e825f6125d7565b9050919050565b5f5f5f611ca58460ff8016611463565b9250925092509193909250565b5f5f611cbc612b83565b9050805f015f9054906101000a900460ff1691505090565b6005602052805f5260405f205f915090505481565b60035481565b60085481565b611cfd612741565b806007819055507f44ffe61d7fc090a2cdc76ca159a0ec1c9d29abe81d9bffffc4db69ccea4fdb2681604051611d339190613d62565b60405180910390a150565b5f611d47612a7c565b611d4f612baa565b5f611d5a8484612c05565b905080915050611d68612baa565b92915050565b5f5f611d786125b0565b9050805f015f8473ffffffffffffffffffffffffffffffffffffffff1673ffffffffffffffffffffffffffffffffffffffff1681526020019081526020015f2054915050919050565b611dc9612741565b611dd25f612c85565b565b611ddc612741565b5f73ffffffffffffffffffffffffffffffffffffffff168173ffffffffffffffffffffffffffffffffffffffff1603611e41576040517fe6c4247b00000000000000000000000000000000000000000000000000000000815260040160405180910390fd5b5f5f5f9054906101000a900473ffffffffffffffffffffffffffffffffffffffff169050815f5f6101000a81548173ffffffffffffffffffffffffffffffffffffffff021916908373ffffffffffffffffffffffffffffffffffffffff1602179055508173ffffffffffffffffffffffffffffffffffffffff168173ffffffffffffffffffffffffffffffffffffffff167f05cd89403c6bdeac21c2ff33de395121a31fa1bc2bf3adf4825f1f86e79969dd60405160405180910390a35050565b60015481565b5f5f9054906101000a900473ffffffffffffffffffffffffffffffffffffffff1681565b611f34612741565b611f3c612d56565b565b5f5f611f48612dc5565b9050805f015f9054906101000a900473ffffffffffffffffffffffffffffffffffffffff1691505090565b5f611f7c612a7c565b611f84612baa565b5f611f8f8484612dec565b905080915050611f9d612baa565b92915050565b60605f611fae6125b0565b9050806004018054611fbf90614649565b80601f0160208091040260200160405190810160405280929190818152602001828054611feb90614649565b80156120365780601f1061200d57610100808354040283529160200191612036565b820191905f5260205f20905b81548152906001019060200180831161201957829003601f168201915b505050505091505090565b60025481565b62278d0081565b5f61205c8260ff801661168b565b9050919050565b5f5f61206d610f16565b905061207a8185856128ba565b600191505092915050565b5f612090338361168b565b9050919050565b5f6120a38260016125d7565b9050919050565b5f6120b3612a7c565b6120bb612abd565b5f34036120f4576040517fbaf3120b00000000000000000000000000000000000000000000000000000000815260040160405180910390fd5b6120fc610ee1565b73ffffffffffffffffffffffffffffffffffffffff1663d0e30db0346040518263ffffffff1660e01b81526004015f604051808303818588803b158015612141575f5ffd5b505af1158015612153573d5f5f3e3d5ffd5b50505050505f6121623461248a565b905061216e3382612e6c565b3373ffffffffffffffffffffffffffffffffffffffff163373ffffffffffffffffffffffffffffffffffffffff167fdcbc1c05240f31ff3ad067ef1ee35ce4997762752e3a095284754544f4c709d734846040516121cd929190614679565b60405180910390a3809150506121e1612aea565b90565b5f6121ed612a7c565b6121f5612baa565b612200848484612eeb565b905061220a612baa565b9392505050565b5f61221a612a7c565b612222612baa565b61222d848484612f6d565b9050612237612baa565b9392505050565b5f612247612a7c565b61224f612abd565b5f61225a308461168b565b9050612264610ee1565b73ffffffffffffffffffffffffffffffffffffffff16632e1a7d4d826040518263ffffffff1660e01b815260040161229c9190613d62565b5f604051808303815f87803b1580156122b3575f5ffd5b505af11580156122c5573d5f5f3e3d5ffd5b505050505f3373ffffffffffffffffffffffffffffffffffffffff16826040516122ee9061480c565b5f6040518083038185875af1925050503d805f8114612328576040519150601f19603f3d011682016040523d82523d5f602084013e61232d565b606091505b5050905080612368576040517f90b8ec1800000000000000000000000000000000000000000000000000000000815260040160405180910390fd5b8192505050612375612aea565b919050565b5f7fffffffffffffffffffffffffffffffffffffffffffffffffffffffffffffffff9050919050565b5f6123ae825f612695565b9050919050565b6004602052805f5260405f205f915090505481565b5f6123dc6123d7836123e3565b611c83565b9050919050565b5f6123ed82611d6e565b9050919050565b60075481565b5f5f6124046125b0565b9050806001015f8573ffffffffffffffffffffffffffffffffffffffff1673ffffffffffffffffffffffffffffffffffffffff1681526020019081526020015f205f8473ffffffffffffffffffffffffffffffffffffffff1673ffffffffffffffffffffffffffffffffffffffff1681526020019081526020015f205491505092915050565b5f612495825f612695565b9050919050565b6124a4612741565b5f73ffffffffffffffffffffffffffffffffffffffff168173ffffffffffffffffffffffffffffffffffffffff1603612514575f6040517f1e4fbdf700000000000000000000000000000000000000000000000000000000815260040161250b9190614287565b60405180910390fd5b61251d81612c85565b50565b5f7f0773e532dfede91f04b12a73d3d2acd361424f41f76b4fb79f090161e36b4e00905090565b5f7f01ffc9a7000000000000000000000000000000000000000000000000000000007bffffffffffffffffffffffffffffffffffffffffffffffffffffffff1916827bffffffffffffffffffffffffffffffffffffffffffffffffffffffff1916149050919050565b5f7f52c63247e1f47db19d5ce0460030c497f067ca4cebf71ba98eeadabe20bace00905090565b5f5f5f9054906101000a900473ffffffffffffffffffffffffffffffffffffffff1673ffffffffffffffffffffffffffffffffffffffff1663a71b35ab61261c610ee1565b85856040518463ffffffff1660e01b815260040161263c939291906145e7565b602060405180830381865afa158015612657573d5f5f3e3d5ffd5b505050506040513d601f19601f8201168201806040525081019061267b9190614549565b905092915050565b6126908383836001612fef565b505050565b5f5f5f9054906101000a900473ffffffffffffffffffffffffffffffffffffffff1673ffffffffffffffffffffffffffffffffffffffff166398a909006126da610ee1565b85856040518463ffffffff1660e01b81526004016126fa939291906145e7565b602060405180830381865afa158015612715573d5f5f3e3d5ffd5b505050506040513d601f19601f820116820180604052508101906127399190614549565b905092915050565b612749610f16565b73ffffffffffffffffffffffffffffffffffffffff16612767611f3e565b73ffffffffffffffffffffffffffffffffffffffff16146127c65761278a610f16565b6040517f118cdaa70000000000000000000000000000000000000000000000000000000081526004016127bd9190614287565b60405180910390fd5b565b5f5f6127d26131cc565b90508091505090565b6127e36131f5565b6127ed8282613235565b6127f68461324b565b6127ff8361325f565b612807613273565b61280f61327d565b600560078190555062093a8060088190555050505050565b5f61283284846123fa565b90507fffffffffffffffffffffffffffffffffffffffffffffffffffffffffffffffff8110156128b457818110156128a5578281836040517ffb8f41b200000000000000000000000000000000000000000000000000000000815260040161289c93929190614881565b60405180910390fd5b6128b384848484035f612fef565b5b50505050565b5f73ffffffffffffffffffffffffffffffffffffffff168373ffffffffffffffffffffffffffffffffffffffff160361292a575f6040517f96c6fd1e0000000000000000000000000000000000000000000000000000000081526004016129219190614287565b60405180910390fd5b5f73ffffffffffffffffffffffffffffffffffffffff168273ffffffffffffffffffffffffffffffffffffffff160361299a575f6040517fec442f050000000000000000000000000000000000000000000000000000000081526004016129919190614287565b60405180910390fd5b6129a5838383613287565b505050565b5f73ffffffffffffffffffffffffffffffffffffffff168273ffffffffffffffffffffffffffffffffffffffff1603612a1a575f6040517f96c6fd1e000000000000000000000000000000000000000000000000000000008152600401612a119190614287565b60405180910390fd5b612a25825f83613287565b5050565b612a36838383600161332f565b612a7757826040517f5274afe7000000000000000000000000000000000000000000000000000000008152600401612a6e9190614287565b60405180910390fd5b505050565b612a84611cb2565b15612abb576040517fd93c066500000000000000000000000000000000000000000000000000000000815260040160405180910390fd5b565b612ac5613391565b612ae86001612ada612ad56133d2565b6133fb565b61340490919063ffffffff16565b565b612b0c5f612afe612af96133d2565b6133fb565b61340490919063ffffffff16565b565b5f5f905090565b612b1d61340b565b5f612b26612b83565b90505f815f015f6101000a81548160ff0219169083151502179055507f5db9ee0a495bf2e6ff9c91a7834c1ba4fdd244a5e8aa4e537bd38aeae4b073aa612b6b610f16565b604051612b789190614287565b60405180910390a150565b5f7fcd5ed15c6e187e77e9aee88184c21f4f2182ab5827cb3b7e07fbedcd63f03300905090565b5f612bb3611297565b90505f6009549050818114612c015780826040517f40e51357000000000000000000000000000000000000000000000000000000008152600401612bf8929190614679565b60405180910390fd5b5050565b5f5f612c1083611c5a565b905080841115612c5b578284826040517f79012fb2000000000000000000000000000000000000000000000000000000008152600401612c5293929190614881565b60405180910390fd5b5f612c658561248a565b9050612c7a612c72610f16565b85878461344b565b809250505092915050565b5f612c8e612dc5565b90505f815f015f9054906101000a900473ffffffffffffffffffffffffffffffffffffffff16905082825f015f6101000a81548173ffffffffffffffffffffffffffffffffffffffff021916908373ffffffffffffffffffffffffffffffffffffffff1602179055508273ffffffffffffffffffffffffffffffffffffffff168173ffffffffffffffffffffffffffffffffffffffff167f8be0079c531659141344cd1fd0a4f28419497f9722a3daafe3b4186f6b6457e060405160405180910390a3505050565b612d5e612a7c565b5f612d67612b83565b90506001815f015f6101000a81548160ff0219169083151502179055507f62e78cea01bee320cd4e420270b5ea74000d11b0c9f74754ebdbfc544b05a258612dad610f16565b604051612dba9190614287565b60405180910390a150565b5f7f9016d09d72d40fdae2fd8ceac6b6234c7706214fd39c1cd1e609a0528c199300905090565b5f5f612df78361237a565b905080841115612e42578284826040517f284ff667000000000000000000000000000000000000000000000000000000008152600401612e3993929190614881565b60405180910390fd5b5f612e4c85612097565b9050612e61612e59610f16565b85838861344b565b809250505092915050565b5f73ffffffffffffffffffffffffffffffffffffffff168273ffffffffffffffffffffffffffffffffffffffff1603612edc575f6040517fec442f05000000000000000000000000000000000000000000000000000000008152600401612ed39190614287565b60405180910390fd5b612ee75f8383613287565b5050565b5f5f612ef6836123ca565b905080851115612f41578285826040517ffe9cceec000000000000000000000000000000000000000000000000000000008152600401612f3893929190614881565b60405180910390fd5b5f612f4b866111e5565b9050612f61612f58610f16565b868689856134cc565b80925050509392505050565b5f5f612f78836123e3565b905080851115612fc3578285826040517fb94abeec000000000000000000000000000000000000000000000000000000008152600401612fba93929190614881565b60405180910390fd5b5f612fcd86611c83565b9050612fe3612fda610f16565b8686848a6134cc565b80925050509392505050565b5f612ff86125b0565b90505f73ffffffffffffffffffffffffffffffffffffffff168573ffffffffffffffffffffffffffffffffffffffff160361306a575f6040517fe602df050000000000000000000000000000000000000000000000000000000081526004016130619190614287565b60405180910390fd5b5f73ffffffffffffffffffffffffffffffffffffffff168473ffffffffffffffffffffffffffffffffffffffff16036130da575f6040517f94280d620000000000000000000000000000000000000000000000000000000081526004016130d19190614287565b60405180910390fd5b82816001015f8773ffffffffffffffffffffffffffffffffffffffff1673ffffffffffffffffffffffffffffffffffffffff1681526020019081526020015f205f8673ffffffffffffffffffffffffffffffffffffffff1673ffffffffffffffffffffffffffffffffffffffff1681526020019081526020015f208190555081156131c5578373ffffffffffffffffffffffffffffffffffffffff168573ffffffffffffffffffffffffffffffffffffffff167f8c5be1e5ebec7d5bd14f71427d1e84f3dd0314c0f7b2291e5b200ac8c7c3b925856040516131bc9190613d62565b60405180910390a35b5050505050565b5f7ff0c57e16840df040f15088dc2f81fe391c3923bec73e23a9662efc9c229c6a005f1b905090565b6131fd613796565b613233576040517fd7e6bcf800000000000000000000000000000000000000000000000000000000815260040160405180910390fd5b565b61323d6131f5565b61324782826137b4565b5050565b6132536131f5565b61325c816137f0565b50565b6132676131f5565b61327081613882565b50565b61327b6131f5565b565b6132856131f5565b565b5f73ffffffffffffffffffffffffffffffffffffffff168373ffffffffffffffffffffffffffffffffffffffff16036132d3578060095f8282546132cb9190614732565b925050819055505b5f73ffffffffffffffffffffffffffffffffffffffff168273ffffffffffffffffffffffffffffffffffffffff160361331f578060095f8282546133179190614765565b925050819055505b61332a838383613906565b505050565b5f5f63a9059cbb60e01b9050604051815f525f1960601c86166004528460245260205f60445f5f8b5af1925060015f51148316613383578383151615613377573d5f823e3d81fd5b5f873b113d1516831692505b806040525050949350505050565b613399613b35565b156133d0576040517f3ee5aeb500000000000000000000000000000000000000000000000000000000815260040160405180910390fd5b565b5f7f9b779b17422d0df92223018b32b4d1fa46e071723d6817e2486d003becc55f005f1b905090565b5f819050919050565b80825d5050565b613413611cb2565b613449576040517f8dfc202b00000000000000000000000000000000000000000000000000000000815260040160405180910390fd5b565b6134558483613b53565b61345f8382612e6c565b8273ffffffffffffffffffffffffffffffffffffffff168473ffffffffffffffffffffffffffffffffffffffff167fdcbc1c05240f31ff3ad067ef1ee35ce4997762752e3a095284754544f4c709d784846040516134be929190614679565b60405180910390a350505050565b8273ffffffffffffffffffffffffffffffffffffffff168573ffffffffffffffffffffffffffffffffffffffff161461350b5761350a838683612827565b5b61351583826129aa565b61351f3082612e6c565b5f60045f8573ffffffffffffffffffffffffffffffffffffffff1673ffffffffffffffffffffffffffffffffffffffff1681526020019081526020015f205490505f60055f8673ffffffffffffffffffffffffffffffffffffffff1673ffffffffffffffffffffffffffffffffffffffff1681526020019081526020015f205490505f82826135ae9190614765565b905060075481106135f657806040517fdb8d37d90000000000000000000000000000000000000000000000000000000081526004016135ed9190613d62565b60405180910390fd5b6040518060800160405280600254815260200186815260200142815260200160085481525060065f8873ffffffffffffffffffffffffffffffffffffffff1673ffffffffffffffffffffffffffffffffffffffff1681526020019081526020015f205f8481526020019081526020015f205f820151815f015560208201518160010155604082015181600201556060820151816003015590505060018261369d9190614732565b60055f8873ffffffffffffffffffffffffffffffffffffffff1673ffffffffffffffffffffffffffffffffffffffff1681526020019081526020015f20819055508460025f8282546136ef9190614732565b925050819055508460015f8282546137079190614732565b925050819055508573ffffffffffffffffffffffffffffffffffffffff168773ffffffffffffffffffffffffffffffffffffffff168973ffffffffffffffffffffffffffffffffffffffff167ffbde797d201c681b91056529119e0b02407c7bb96a4a2c75c01fc9667232c8db8888604051613784929190614679565b60405180910390a45050505050505050565b5f61379f6127c8565b5f0160089054906101000a900460ff16905090565b6137bc6131f5565b5f6137c56125b0565b9050828160030190816137d89190614a4d565b50818160040190816137ea9190614a4d565b50505050565b6137f86131f5565b5f613801612520565b90505f5f61380e84613b6a565b915091508161381e576012613820565b805b835f0160146101000a81548160ff021916908360ff16021790555083835f015f6101000a81548173ffffffffffffffffffffffffffffffffffffffff021916908373ffffffffffffffffffffffffffffffffffffffff16021790555050505050565b61388a6131f5565b5f73ffffffffffffffffffffffffffffffffffffffff168173ffffffffffffffffffffffffffffffffffffffff16036138fa575f6040517f1e4fbdf70000000000000000000000000000000000000000000000000000000081526004016138f19190614287565b60405180910390fd5b61390381612c85565b50565b5f61390f6125b0565b90505f73ffffffffffffffffffffffffffffffffffffffff168473ffffffffffffffffffffffffffffffffffffffff16036139635781816002015f8282546139579190614732565b92505081905550613a35565b5f815f015f8673ffffffffffffffffffffffffffffffffffffffff1673ffffffffffffffffffffffffffffffffffffffff1681526020019081526020015f20549050828110156139ee578481846040517fe450d38c0000000000000000000000000000000000000000000000000000000081526004016139e593929190614881565b60405180910390fd5b828103825f015f8773ffffffffffffffffffffffffffffffffffffffff1673ffffffffffffffffffffffffffffffffffffffff1681526020019081526020015f2081905550505b5f73ffffffffffffffffffffffffffffffffffffffff168373ffffffffffffffffffffffffffffffffffffffff1603613a7e5781816002015f8282540392505081905550613aca565b81815f015f8573ffffffffffffffffffffffffffffffffffffffff1673ffffffffffffffffffffffffffffffffffffffff1681526020019081526020015f205f82825401925050819055505b8273ffffffffffffffffffffffffffffffffffffffff168473ffffffffffffffffffffffffffffffffffffffff167fddf252ad1be2c89b69c2b068fc378daa952ba7f163c4a11628f55a4df523b3ef84604051613b279190613d62565b60405180910390a350505050565b5f613b4e613b49613b446133d2565b6133fb565b613c1e565b905090565b613b66613b5e610ee1565b833084613c28565b5050565b5f5f5f613b75613c7d565b90505f5f613bcd8660405160240160405160208183030381529060405263313ce56760e01b6020820180517bffffffffffffffffffffffffffffffffffffffffffffffffffffffff8381831617835250505050613c86565b5091509150613bdb83613ca7565b818015613bf057506020613bed613cae565b10155b8015613c01575060ff8016815f1c11155b613c0c575f5f613c12565b6001815f1c5b94509450505050915091565b5f815c9050919050565b613c36848484846001613cb5565b613c7757836040517f5274afe7000000000000000000000000000000000000000000000000000000008152600401613c6e9190614287565b60405180910390fd5b50505050565b5f604051905090565b5f5f5f60405f855160208701885afa92505f51915060205190509250925092565b8060405250565b5f3d905090565b5f5f6323b872dd60e01b9050604051815f525f1960601c87166004525f1960601c86166024528460445260205f60645f5f8c5af1925060015f51148316613d13578383151615613d07573d5f823e3d81fd5b5f883b113d1516831692505b806040525f606052505095945050505050565b60405180608001604052805f81526020015f81526020015f81526020015f81525090565b5f819050919050565b613d5c81613d4a565b82525050565b5f602082019050613d755f830184613d53565b92915050565b5f604051905090565b5f5ffd5b5f5ffd5b5f7fffffffff0000000000000000000000000000000000000000000000000000000082169050919050565b613dc081613d8c565b8114613dca575f5ffd5b50565b5f81359050613ddb81613db7565b92915050565b5f60208284031215613df657613df5613d84565b5b5f613e0384828501613dcd565b91505092915050565b5f8115159050919050565b613e2081613e0c565b82525050565b5f602082019050613e395f830184613e17565b92915050565b5f81519050919050565b5f82825260208201905092915050565b8281835e5f83830152505050565b5f601f19601f8301169050919050565b5f613e8182613e3f565b613e8b8185613e49565b9350613e9b818560208601613e59565b613ea481613e67565b840191505092915050565b5f6020820190508181035f830152613ec78184613e77565b905092915050565b613ed881613d4a565b8114613ee2575f5ffd5b50565b5f81359050613ef381613ecf565b92915050565b5f60208284031215613f0e57613f0d613d84565b5b5f613f1b84828501613ee5565b91505092915050565b5f73ffffffffffffffffffffffffffffffffffffffff82169050919050565b5f613f4d82613f24565b9050919050565b613f5d81613f43565b8114613f67575f5ffd5b50565b5f81359050613f7881613f54565b92915050565b5f5f60408385031215613f9457613f93613d84565b5b5f613fa185828601613f6a565b9250506020613fb285828601613ee5565b9150509250929050565b5f613fc682613f43565b9050919050565b613fd681613fbc565b8114613fe0575f5ffd5b50565b5f81359050613ff181613fcd565b92915050565b5f5ffd5b5f5ffd5b7f4e487b71000000000000000000000000000000000000000000000000000000005f52604160045260245ffd5b61403582613e67565b810181811067ffffffffffffffff8211171561405457614053613fff565b5b80604052505050565b5f614066613d7b565b9050614072828261402c565b919050565b5f67ffffffffffffffff82111561409157614090613fff565b5b61409a82613e67565b9050602081019050919050565b828183375f83830152505050565b5f6140c76140c284614077565b61405d565b9050828152602081018484840111156140e3576140e2613ffb565b5b6140ee8482856140a7565b509392505050565b5f82601f83011261410a57614109613ff7565b5b813561411a8482602086016140b5565b91505092915050565b5f5f5f5f6080858703121561413b5761413a613d84565b5b5f61414887828801613fe3565b945050602061415987828801613f6a565b935050604085013567ffffffffffffffff81111561417a57614179613d88565b5b614186878288016140f6565b925050606085013567ffffffffffffffff8111156141a7576141a6613d88565b5b6141b3878288016140f6565b91505092959194509250565b5f5f5f606084860312156141d6576141d5613d84565b5b5f6141e386828701613f6a565b93505060206141f486828701613f6a565b925050604061420586828701613ee5565b9150509250925092565b5f6060820190506142225f830186613d53565b61422f6020830185613d53565b61423c6040830184613d53565b949350505050565b5f60ff82169050919050565b61425981614244565b82525050565b5f6020820190506142725f830184614250565b92915050565b61428181613f43565b82525050565b5f60208201905061429a5f830184614278565b92915050565b5f602082840312156142b5576142b4613d84565b5b5f6142c284828501613f6a565b91505092915050565b5f81519050919050565b5f82825260208201905092915050565b5f819050602082019050919050565b6142fd81613d4a565b82525050565b608082015f8201516143175f8501826142f4565b50602082015161432a60208501826142f4565b50604082015161433d60408501826142f4565b50606082015161435060608501826142f4565b50505050565b5f6143618383614303565b60808301905092915050565b5f602082019050919050565b5f614383826142cb565b61438d81856142d5565b9350614398836142e5565b805f5b838110156143c85781516143af8882614356565b97506143ba8361436d565b92505060018101905061439b565b5085935050505092915050565b5f6020820190508181035f8301526143ed8184614379565b905092915050565b5f5f6040838503121561440b5761440a613d84565b5b5f61441885828601613ee5565b925050602061442985828601613f6a565b9150509250929050565b5f819050919050565b5f61445661445161444c84613f24565b614433565b613f24565b9050919050565b5f6144678261443c565b9050919050565b5f6144788261445d565b9050919050565b6144888161446e565b82525050565b5f6020820190506144a15f83018461447f565b92915050565b5f5f5f606084860312156144be576144bd613d84565b5b5f6144cb86828701613ee5565b93505060206144dc86828701613f6a565b92505060406144ed86828701613f6a565b9150509250925092565b5f5f6040838503121561450d5761450c613d84565b5b5f61451a85828601613f6a565b925050602061452b85828601613f6a565b9150509250929050565b5f8151905061454381613ecf565b92915050565b5f6020828403121561455e5761455d613d84565b5b5f61456b84828501614535565b91505092915050565b7f4e487b71000000000000000000000000000000000000000000000000000000005f52602160045260245ffd5b600481106145b2576145b1614574565b5b50565b5f8190506145c2826145a1565b919050565b5f6145d1826145b5565b9050919050565b6145e1816145c7565b82525050565b5f6060820190506145fa5f830186614278565b6146076020830185613d53565b61461460408301846145d8565b949350505050565b7f4e487b71000000000000000000000000000000000000000000000000000000005f52602260045260245ffd5b5f600282049050600182168061466057607f821691505b6020821081036146735761467261461c565b5b50919050565b5f60408201905061468c5f830185613d53565b6146996020830184613d53565b9392505050565b5f819050919050565b5f67ffffffffffffffff82169050919050565b5f6146d66146d16146cc846146a0565b614433565b6146a9565b9050919050565b6146e6816146bc565b82525050565b5f6020820190506146ff5f8301846146dd565b92915050565b7f4e487b71000000000000000000000000000000000000000000000000000000005f52601160045260245ffd5b5f61473c82613d4a565b915061474783613d4a565b925082820190508082111561475f5761475e614705565b5b92915050565b5f61476f82613d4a565b915061477a83613d4a565b925082820390508181111561479257614791614705565b5b92915050565b5f6147a282613d4a565b91507fffffffffffffffffffffffffffffffffffffffffffffffffffffffffffffffff82036147d4576147d3614705565b5b600182019050919050565b5f81905092915050565b50565b5f6147f75f836147df565b9150614802826147e9565b5f82019050919050565b5f614816826147ec565b9150819050919050565b5f61482a82614244565b915061483583614244565b9250828201905060ff81111561484e5761484d614705565b5b92915050565b7f4e487b71000000000000000000000000000000000000000000000000000000005f52603260045260245ffd5b5f6060820190506148945f830186614278565b6148a16020830185613d53565b6148ae6040830184613d53565b949350505050565b5f819050815f5260205f209050919050565b5f6020601f8301049050919050565b5f82821b905092915050565b5f600883026149127fffffffffffffffffffffffffffffffffffffffffffffffffffffffffffffffff826148d7565b61491c86836148d7565b95508019841693508086168417925050509392505050565b5f61494e61494961494484613d4a565b614433565b613d4a565b9050919050565b5f819050919050565b61496783614934565b61497b61497382614955565b8484546148e3565b825550505050565b5f5f905090565b614992614983565b61499d81848461495e565b505050565b5b818110156149c0576149b55f8261498a565b6001810190506149a3565b5050565b601f821115614a05576149d6816148b6565b6149df846148c8565b810160208510156149ee578190505b614a026149fa856148c8565b8301826149a2565b50505b505050565b5f82821c905092915050565b5f614a255f1984600802614a0a565b1980831691505092915050565b5f614a3d8383614a16565b9150826002028217905092915050565b614a5682613e3f565b67ffffffffffffffff811115614a6f57614a6e613fff565b5b614a798254614649565b614a848282856149c4565b5f60209050601f831160018114614ab5575f8415614aa3578287015190505b614aad8582614a32565b865550614b14565b601f198416614ac3866148b6565b5f5b82811015614aea57848901518255600182019150602085019450602081019050614ac5565b86831015614b075784890151614b03601f891682614a16565b8355505b6001600288020188555050505b50505050505056fea2646970667358221220be3c8c7ebe9017941f560ab7f6687be724a0a9e2737bbdece3a14d9d13b60b5964736f6c634300081c0033",
  "linkReferences": {},
  "deployedLinkReferences": {},
  "immutableReferences": {},
  "inputSourceName": "project/contracts/StPROS.sol",
  "devdoc": {
    "errors": {
      "ERC20InsufficientAllowance(address,uint256,uint256)": [
        {
          "details": "Indicates a failure with the `spender`’s `allowance`. Used in transfers.",
          "params": {
            "allowance": "Amount of tokens a `spender` is allowed to operate with.",
            "needed": "Minimum amount required to perform a transfer.",
            "spender": "Address that may be allowed to operate on tokens without being their owner."
          }
        }
      ],
      "ERC20InsufficientBalance(address,uint256,uint256)": [
        {
          "details": "Indicates an error related to the current `balance` of a `sender`. Used in transfers.",
          "params": {
            "balance": "Current balance for the interacting account.",
            "needed": "Minimum amount required to perform a transfer.",
            "sender": "Address whose tokens are being transferred."
          }
        }
      ],
      "ERC20InvalidApprover(address)": [
        {
          "details": "Indicates a failure with the `approver` of a token to be approved. Used in approvals.",
          "params": {
            "approver": "Address initiating an approval operation."
          }
        }
      ],
      "ERC20InvalidReceiver(address)": [
        {
          "details": "Indicates a failure with the token `receiver`. Used in transfers.",
          "params": {
            "receiver": "Address to which tokens are being transferred."
          }
        }
      ],
      "ERC20InvalidSender(address)": [
        {
          "details": "Indicates a failure with the token `sender`. Used in transfers.",
          "params": {
            "sender": "Address whose tokens are being transferred."
          }
        }
      ],
      "ERC20InvalidSpender(address)": [
        {
          "details": "Indicates a failure with the `spender` to be approved. Used in approvals.",
          "params": {
            "spender": "Address that may be allowed to operate on tokens without being their owner."
          }
        }
      ],
      "ERC4626ExceededMaxDeposit(address,uint256,uint256)": [
        {
          "details": "Attempted to deposit more assets than the max amount for `receiver`."
        }
      ],
      "ERC4626ExceededMaxMint(address,uint256,uint256)": [
        {
          "details": "Attempted to mint more shares than the max amount for `receiver`."
        }
      ],
      "ERC4626ExceededMaxRedeem(address,uint256,uint256)": [
        {
          "details": "Attempted to redeem more shares than the max amount for `owner`."
        }
      ],
      "ERC4626ExceededMaxWithdraw(address,uint256,uint256)": [
        {
          "details": "Attempted to withdraw more assets than the max amount for `owner`."
        }
      ],
      "EnforcedPause()": [
        {
          "details": "The operation failed because the contract is paused."
        }
      ],
      "ExpectedPause()": [
        {
          "details": "The operation failed because the contract is not paused."
        }
      ],
      "InvalidInitialization()": [
        {
          "details": "The contract is already initialized."
        }
      ],
      "NotInitializing()": [
        {
          "details": "The contract is not initializing."
        }
      ],
      "OwnableInvalidOwner(address)": [
        {
          "details": "The owner is not a valid owner account. (eg. `address(0)`)"
        }
      ],
      "OwnableUnauthorizedAccount(address)": [
        {
          "details": "The caller account is not authorized to perform an operation."
        }
      ],
      "ReentrancyGuardReentrantCall()": [
        {
          "details": "Unauthorized reentrant call."
        }
      ],
      "SafeERC20FailedOperation(address)": [
        {
          "details": "An operation with an ERC-20 token failed."
        }
      ]
    },
    "events": {
      "Approval(address,address,uint256)": {
        "details": "Emitted when the allowance of a `spender` for an `owner` is set by a call to {approve}. `value` is the new allowance."
      },
      "Initialized(uint64)": {
        "details": "Triggered when the contract has been initialized or reinitialized."
      },
      "Paused(address)": {
        "details": "Emitted when the pause is triggered by `account`."
      },
      "Transfer(address,address,uint256)": {
        "details": "Emitted when `value` tokens are moved from one account (`from`) to another (`to`). Note that `value` may be zero."
      },
      "Unpaused(address)": {
        "details": "Emitted when the pause is lifted by `account`."
      }
    },
    "kind": "dev",
    "methods": {
      "allowance(address,address)": {
        "details": "Returns the remaining number of tokens that `spender` will be allowed to spend on behalf of `owner` through {transferFrom}. This is zero by default. This value changes when {approve} or {transferFrom} are called."
      },
      "approve(address,uint256)": {
        "details": "See {IERC20-approve}. NOTE: If `value` is the maximum `uint256`, the allowance is not updated on `transferFrom`. This is semantically equivalent to an infinite approval. Requirements: - `spender` cannot be the zero address."
      },
      "asset()": {
        "details": "Returns the address of the underlying token used for the Vault for accounting, depositing, and withdrawing. - MUST be an ERC-20 token contract. - MUST NOT revert."
      },
      "balanceOf(address)": {
        "details": "Returns the value of tokens owned by `account`."
      },
      "canWithdrawalAmount(address)": {
        "returns": {
          "_0": "totalAvailableAmount Total claimable amount",
          "_1": "fullyConsumedCount Number of fully consumable records",
          "_2": "partialConsumedAmount Partially consumable amount in the last record"
        }
      },
      "canWithdrawalAmount(address,uint256)": {
        "details": "A record becomes claimable when its waiting period has elapsed and the cumulative available amount clears its queued baseline"
      },
      "constructor": {
        "custom:oz-upgrades-unsafe-allow": "constructor"
      },
      "convertToAssets(uint256)": {
        "details": "Returns the amount of assets that the Vault would exchange for the amount of shares provided, in an ideal scenario where all the conditions are met. - MUST NOT be inclusive of any fees that are charged against assets in the Vault. - MUST NOT show any variations depending on the caller. - MUST NOT reflect slippage or other on-chain conditions, when performing the actual exchange. - MUST NOT revert. NOTE: This calculation MAY NOT reflect the “per-user” price-per-share, and instead should reflect the “average-user’s” price-per-share, meaning what the average user should expect to see when exchanging to and from."
      },
      "convertToShares(uint256)": {
        "details": "Returns the amount of shares that the Vault would exchange for the amount of assets provided, in an ideal scenario where all the conditions are met. - MUST NOT be inclusive of any fees that are charged against assets in the Vault. - MUST NOT show any variations depending on the caller. - MUST NOT reflect slippage or other on-chain conditions, when performing the actual exchange. - MUST NOT revert. NOTE: This calculation MAY NOT reflect the “per-user” price-per-share, and instead should reflect the “average-user’s” price-per-share, meaning what the average user should expect to see when exchanging to and from."
      },
      "decimals()": {
        "details": "Decimals are computed by adding the decimal offset on top of the underlying asset's decimals. This \"original\" value is cached during construction of the vault contract. If this read operation fails (e.g., the asset has not been created yet), a default of 18 is used to represent the underlying asset's decimals. See {IERC20Metadata-decimals}."
      },
      "deposit(uint256,address)": {
        "details": "In the current mainnet phase (Oracle = 1:1), this path mints stPROS 1:1"
      },
      "maxDeposit(address)": {
        "details": "Returns the maximum amount of the underlying asset that can be deposited into the Vault for the receiver, through a deposit call. - MUST return a limited value if receiver is subject to some deposit limit. - MUST return 2 ** 256 - 1 if there is no limit on the maximum amount of assets that may be deposited. - MUST NOT revert."
      },
      "maxMint(address)": {
        "details": "Returns the maximum amount of the Vault shares that can be minted for the receiver, through a mint call. - MUST return a limited value if receiver is subject to some mint limit. - MUST return 2 ** 256 - 1 if there is no limit on the maximum amount of shares that may be minted. - MUST NOT revert."
      },
      "maxRedeem(address)": {
        "details": "Returns the maximum amount of Vault shares that can be redeemed from the owner balance in the Vault, through a redeem call. - MUST return a limited value if owner is subject to some withdrawal limit or timelock. - MUST return balanceOf(owner) if owner is not subject to any withdrawal limit or timelock. - MUST NOT revert."
      },
      "maxWithdraw(address)": {
        "details": "Returns the maximum amount of the underlying asset that can be withdrawn from the owner balance in the Vault, through a withdraw call. - MUST return a limited value if owner is subject to some withdrawal limit or timelock. - MUST NOT revert."
      },
      "mint(uint256,address)": {
        "details": "In the current mainnet phase (Oracle = 1:1), this path back-solves assets 1:1"
      },
      "name()": {
        "details": "Returns the name of the token."
      },
      "owner()": {
        "details": "Returns the address of the current owner."
      },
      "paused()": {
        "details": "Returns true if the contract is paused, and false otherwise."
      },
      "previewDeposit(uint256)": {
        "details": "Allows an on-chain or off-chain user to simulate the effects of their deposit at the current block, given current on-chain conditions. - MUST return as close to and no more than the exact amount of Vault shares that would be minted in a deposit   call in the same transaction. I.e. deposit should return the same or more shares as previewDeposit if called   in the same transaction. - MUST NOT account for deposit limits like those returned from maxDeposit and should always act as though the   deposit would be accepted, regardless if the user has enough tokens approved, etc. - MUST be inclusive of deposit fees. Integrators should be aware of the existence of deposit fees. - MUST NOT revert. NOTE: any unfavorable discrepancy between convertToShares and previewDeposit SHOULD be considered slippage in share price or some other type of condition, meaning the depositor will lose assets by depositing."
      },
      "previewMint(uint256)": {
        "details": "Allows an on-chain or off-chain user to simulate the effects of their mint at the current block, given current on-chain conditions. - MUST return as close to and no fewer than the exact amount of assets that would be deposited in a mint call   in the same transaction. I.e. mint should return the same or fewer assets as previewMint if called in the   same transaction. - MUST NOT account for mint limits like those returned from maxMint and should always act as though the mint   would be accepted, regardless if the user has enough tokens approved, etc. - MUST be inclusive of deposit fees. Integrators should be aware of the existence of deposit fees. - MUST NOT revert. NOTE: any unfavorable discrepancy between convertToAssets and previewMint SHOULD be considered slippage in share price or some other type of condition, meaning the depositor will lose assets by minting."
      },
      "previewRedeem(uint256)": {
        "details": "Allows an on-chain or off-chain user to simulate the effects of their redemption at the current block, given current on-chain conditions. - MUST return as close to and no more than the exact amount of assets that would be withdrawn in a redeem call   in the same transaction. I.e. redeem should return the same or more assets as previewRedeem if called in the   same transaction. - MUST NOT account for redemption limits like those returned from maxRedeem and should always act as though the   redemption would be accepted, regardless if the user has enough shares, etc. - MUST be inclusive of withdrawal fees. Integrators should be aware of the existence of withdrawal fees. - MUST NOT revert. NOTE: any unfavorable discrepancy between convertToAssets and previewRedeem SHOULD be considered slippage in share price or some other type of condition, meaning the depositor will lose assets by redeeming."
      },
      "previewWithdraw(uint256)": {
        "details": "Allows an on-chain or off-chain user to simulate the effects of their withdrawal at the current block, given current on-chain conditions. - MUST return as close to and no fewer than the exact amount of Vault shares that would be burned in a withdraw   call in the same transaction. I.e. withdraw should return the same or fewer shares as previewWithdraw if   called   in the same transaction. - MUST NOT account for withdrawal limits like those returned from maxWithdraw and should always act as though   the withdrawal would be accepted, regardless if the user has enough shares, etc. - MUST be inclusive of withdrawal fees. Integrators should be aware of the existence of withdrawal fees. - MUST NOT revert. NOTE: any unfavorable discrepancy between convertToShares and previewWithdraw SHOULD be considered slippage in share price or some other type of condition, meaning the depositor will lose assets by depositing."
      },
      "redeem(uint256,address,address)": {
        "details": "In the current mainnet phase (Oracle = 1:1), `shares` map to equal `assets`"
      },
      "renounceOwnership()": {
        "details": "Leaves the contract without owner. It will not be possible to call `onlyOwner` functions. Can only be called by the current owner. NOTE: Renouncing ownership will leave the contract without an owner, thereby disabling any functionality that is only available to the owner."
      },
      "setUnbondingPeriod(uint256)": {
        "details": "Only affects future requests; historical records keep their snapshots"
      },
      "symbol()": {
        "details": "Returns the symbol of the token, usually a shorter version of the name."
      },
      "totalAssets()": {
        "details": "Under a 1:1 oracle config, `totalAssets()` equals `totalSupply()`"
      },
      "totalSupply()": {
        "details": "Returns the value of tokens in existence."
      },
      "transfer(address,uint256)": {
        "details": "See {IERC20-transfer}. Requirements: - `to` cannot be the zero address. - the caller must have a balance of at least `value`."
      },
      "transferFrom(address,address,uint256)": {
        "details": "See {IERC20-transferFrom}. Skips emitting an {Approval} event indicating an allowance update. This is not required by the ERC. See {xref-ERC20-_approve-address-address-uint256-bool-}[_approve]. NOTE: Does not update the allowance if the current allowance is the maximum `uint256`. Requirements: - `from` and `to` cannot be the zero address. - `from` must have a balance of at least `value`. - the caller must have allowance for ``from``'s tokens of at least `value`."
      },
      "transferOwnership(address)": {
        "details": "Transfers ownership of the contract to a new account (`newOwner`). Can only be called by the current owner."
      },
      "withdraw(uint256,address,address)": {
        "details": "In the current mainnet phase (Oracle = 1:1), `assets` match the escrowed shares"
      },
      "withdrawComplete()": {
        "returns": {
          "_0": "amount Actual assets claimed"
        }
      },
      "withdrawComplete(address)": {
        "params": {
          "receiver": "Asset receiver"
        },
        "returns": {
          "_0": "amount Actual assets claimed"
        }
      },
      "withdrawComplete(address,uint256)": {
        "params": {
          "maxRecords": "Maximum number of fully consumed records to process; 0 means no limit",
          "receiver": "Asset receiver"
        },
        "returns": {
          "_0": "amount Actual assets claimed"
        }
      },
      "withdrawComplete(uint256)": {
        "params": {
          "maxRecords": "Maximum number of fully consumed records to process; 0 means no limit"
        },
        "returns": {
          "_0": "amount Actual assets claimed"
        }
      }
    },
    "version": 1
  },
  "evm": {
    "gasEstimates": {
      "creation": {
        "codeDepositCost": "3856400",
        "executionCost": "infinite",
        "totalCost": "infinite"
      },
      "external": {
        "MAX_UNBONDING()": "392",
        "allowance(address,address)": "infinite",
        "approve(address,uint256)": "infinite",
        "asset()": "2679",
        "balanceOf(address)": "2949",
        "canWithdrawalAmount(address)": "infinite",
        "canWithdrawalAmount(address,uint256)": "infinite",
        "completedWithdrawal()": "2492",
        "convertToAssets(uint256)": "infinite",
        "convertToShares(uint256)": "infinite",
        "decimals()": "infinite",
        "deposit(uint256,address)": "infinite",
        "depositWithPROS()": "infinite",
        "getWithdrawals(address)": "infinite",
        "initialize(address,address,string,string)": "infinite",
        "maxDeposit(address)": "753",
        "maxMint(address)": "752",
        "maxRedeem(address)": "3033",
        "maxWithdraw(address)": "infinite",
        "maxWithdrawCount()": "2491",
        "mint(uint256,address)": "infinite",
        "name()": "infinite",
        "oracle()": "infinite",
        "owner()": "2700",
        "pause()": "infinite",
        "paused()": "2614",
        "previewDeposit(uint256)": "infinite",
        "previewMint(uint256)": "infinite",
        "previewRedeem(uint256)": "infinite",
        "previewWithdraw(uint256)": "infinite",
        "queuedWithdrawal()": "2537",
        "redeem(uint256,address,address)": "infinite",
        "renounceOwnership()": "infinite",
        "setMaxWithdrawCount(uint256)": "infinite",
        "setOracle(address)": "infinite",
        "setUnbondingPeriod(uint256)": "infinite",
        "supportsInterface(bytes4)": "832",
        "symbol()": "infinite",
        "totalAssets()": "infinite",
        "totalCanWithdrawAmount()": "2493",
        "totalSupply()": "2575",
        "transfer(address,uint256)": "infinite",
        "transferFrom(address,address,uint256)": "infinite",
        "transferOwnership(address)": "infinite",
        "unbondingPeriod()": "2514",
        "unpause()": "infinite",
        "withdraw(uint256,address,address)": "infinite",
        "withdrawComplete()": "infinite",
        "withdrawComplete(address)": "infinite",
        "withdrawComplete(address,uint256)": "infinite",
        "withdrawComplete(uint256)": "infinite",
        "withdrawCompleteToPROS()": "infinite",
        "withdrawCompleteToPROS(uint256)": "infinite",
        "withdrawalHead(address)": "2869",
        "withdrawalTail(address)": "2914"
      }
    }
  },
  "storageLayout": {
    "storage": [
      {
        "astId": 50246,
        "contract": "project/contracts/StPROS.sol:StPROS",
        "label": "oracle",
        "offset": 0,
        "slot": "0",
        "type": "t_contract(Oracle)49935"
      },
      {
        "astId": 50249,
        "contract": "project/contracts/StPROS.sol:StPROS",
        "label": "totalCanWithdrawAmount",
        "offset": 0,
        "slot": "1",
        "type": "t_uint256"
      },
      {
        "astId": 50252,
        "contract": "project/contracts/StPROS.sol:StPROS",
        "label": "queuedWithdrawal",
        "offset": 0,
        "slot": "2",
        "type": "t_uint256"
      },
      {
        "astId": 50255,
        "contract": "project/contracts/StPROS.sol:StPROS",
        "label": "completedWithdrawal",
        "offset": 0,
        "slot": "3",
        "type": "t_uint256"
      },
      {
        "astId": 50260,
        "contract": "project/contracts/StPROS.sol:StPROS",
        "label": "withdrawalHead",
        "offset": 0,
        "slot": "4",
        "type": "t_mapping(t_address,t_uint256)"
      },
      {
        "astId": 50265,
        "contract": "project/contracts/StPROS.sol:StPROS",
        "label": "withdrawalTail",
        "offset": 0,
        "slot": "5",
        "type": "t_mapping(t_address,t_uint256)"
      },
      {
        "astId": 50273,
        "contract": "project/contracts/StPROS.sol:StPROS",
        "label": "withdrawals",
        "offset": 0,
        "slot": "6",
        "type": "t_mapping(t_address,t_mapping(t_uint256,t_struct(Withdrawal)50242_storage))"
      },
      {
        "astId": 50276,
        "contract": "project/contracts/StPROS.sol:StPROS",
        "label": "maxWithdrawCount",
        "offset": 0,
        "slot": "7",
        "type": "t_uint256"
      },
      {
        "astId": 50279,
        "contract": "project/contracts/StPROS.sol:StPROS",
        "label": "unbondingPeriod",
        "offset": 0,
        "slot": "8",
        "type": "t_uint256"
      },
      {
        "astId": 50294,
        "contract": "project/contracts/StPROS.sol:StPROS",
        "label": "_tracked",
        "offset": 0,
        "slot": "9",
        "type": "t_uint256"
      }
    ],
    "types": {
      "t_address": {
        "encoding": "inplace",
        "label": "address",
        "numberOfBytes": "20"
      },
      "t_contract(Oracle)49935": {
        "encoding": "inplace",
        "label": "contract Oracle",
        "numberOfBytes": "20"
      },
      "t_mapping(t_address,t_mapping(t_uint256,t_struct(Withdrawal)50242_storage))": {
        "encoding": "mapping",
        "key": "t_address",
        "label": "mapping(address => mapping(uint256 => struct VToken.Withdrawal))",
        "numberOfBytes": "32",
        "value": "t_mapping(t_uint256,t_struct(Withdrawal)50242_storage)"
      },
      "t_mapping(t_address,t_uint256)": {
        "encoding": "mapping",
        "key": "t_address",
        "label": "mapping(address => uint256)",
        "numberOfBytes": "32",
        "value": "t_uint256"
      },
      "t_mapping(t_uint256,t_struct(Withdrawal)50242_storage)": {
        "encoding": "mapping",
        "key": "t_uint256",
        "label": "mapping(uint256 => struct VToken.Withdrawal)",
        "numberOfBytes": "32",
        "value": "t_struct(Withdrawal)50242_storage"
      },
      "t_struct(Withdrawal)50242_storage": {
        "encoding": "inplace",
        "label": "struct VToken.Withdrawal",
        "members": [
          {
            "astId": 50232,
            "contract": "project/contracts/StPROS.sol:StPROS",
            "label": "queued",
            "offset": 0,
            "slot": "0",
            "type": "t_uint256"
          },
          {
            "astId": 50235,
            "contract": "project/contracts/StPROS.sol:StPROS",
            "label": "pending",
            "offset": 0,
            "slot": "1",
            "type": "t_uint256"
          },
          {
            "astId": 50238,
            "contract": "project/contracts/StPROS.sol:StPROS",
            "label": "createdAt",
            "offset": 0,
            "slot": "2",
            "type": "t_uint256"
          },
          {
            "astId": 50241,
            "contract": "project/contracts/StPROS.sol:StPROS",
            "label": "unbondingPeriod",
            "offset": 0,
            "slot": "3",
            "type": "t_uint256"
          }
        ],
        "numberOfBytes": "128"
      },
      "t_uint256": {
        "encoding": "inplace",
        "label": "uint256",
        "numberOfBytes": "32"
      }
    }
  },
  "userdoc": {
    "errors": {
      "ExceedMaxWithdrawCount(uint256)": [
        {
          "notice": "Outstanding withdrawal records exceed the configured limit"
        }
      ],
      "Inv1Violation(uint256,uint256)": [
        {
          "notice": "INV-1 is broken: tracked PROS amount != stPROS supply"
        }
      ],
      "InvalidAddress()": [
        {
          "notice": "Invalid address parameter such as the zero address"
        }
      ],
      "OnlyAssetCanSendETH()": [
        {
          "notice": "Thrown when ETH is sent from non-asset address"
        }
      ],
      "PROSNotSent()": [
        {
          "notice": "Thrown when PROS is not sent"
        }
      ],
      "TransferFailed()": [
        {
          "notice": "Thrown when PROS transfer failed"
        }
      ],
      "UnbondingPeriodTooLong(uint256,uint256)": [
        {
          "notice": "Waiting period exceeds the governance cap"
        }
      ]
    },
    "events": {
      "MaxWithdrawCountChanged(uint256)": {
        "notice": "Max queue length update event"
      },
      "OracleChanged(address,address)": {
        "notice": "Oracle address update event"
      },
      "PROSReceived(address,uint256)": {
        "notice": "Emitted when PROS is received"
      },
      "TriggerAddressChanged(address,address)": {
        "notice": "Trigger address update event"
      },
      "UnbondingPeriodChanged(uint256,uint256)": {
        "notice": "Global waiting period update event for future requests only"
      },
      "WithdrawalCompleted(address,address,uint256)": {
        "notice": "Successful withdrawal completion event"
      }
    },
    "kind": "user",
    "methods": {
      "MAX_UNBONDING()": {
        "notice": "Governance cap on the waiting period to avoid excessive lockups"
      },
      "canWithdrawalAmount(address)": {
        "notice": "Preview the currently claimable amount for an address with no record limit"
      },
      "canWithdrawalAmount(address,uint256)": {
        "notice": "Preview the claimable amount for an address with batched processing"
      },
      "completedWithdrawal()": {
        "notice": "Historical total completed amount, monotonically increasing"
      },
      "deposit(uint256,address)": {
        "notice": "Deposit assets and mint shares with INV-1 validation"
      },
      "getWithdrawals(address)": {
        "notice": "Return the current outstanding withdrawal records for an address in queue order"
      },
      "initialize(address,address,string,string)": {
        "notice": "Override initialize to include reentrancy guard (for new deployments)"
      },
      "maxWithdrawCount()": {
        "notice": "Maximum number of outstanding withdrawal records per address"
      },
      "mint(uint256,address)": {
        "notice": "Mint a target number of shares with INV-1 validation"
      },
      "oracle()": {
        "notice": "Rate oracle for token <-> vToken conversion"
      },
      "pause()": {
        "notice": "Pause pausable entry points, owner only"
      },
      "queuedWithdrawal()": {
        "notice": "Historical total queued amount, monotonically increasing"
      },
      "redeem(uint256,address,address)": {
        "notice": "Start a share redemption by enqueuing it instead of paying immediately"
      },
      "setMaxWithdrawCount(uint256)": {
        "notice": "Set the max number of queued records per address, owner only"
      },
      "setOracle(address)": {
        "notice": "Set the oracle address, owner only"
      },
      "setUnbondingPeriod(uint256)": {
        "notice": "Set the global waiting period, owner only"
      },
      "supportsInterface(bytes4)": {
        "notice": "ERC165 interface declaration for IERC4626 + IERC20 + parent interfaces"
      },
      "totalAssets()": {
        "notice": "ERC4626 total-assets view derived from the oracle and current supply"
      },
      "totalCanWithdrawAmount()": {
        "notice": "Reserve currently available for completion, decreases on claim"
      },
      "unbondingPeriod()": {
        "notice": "Global waiting period used for new withdrawal requests, in seconds"
      },
      "unpause()": {
        "notice": "Unpause, owner only"
      },
      "withdraw(uint256,address,address)": {
        "notice": "Start an asset redemption by enqueuing it instead of paying immediately"
      },
      "withdrawComplete()": {
        "notice": "Complete claimable withdrawals, processing all records by default"
      },
      "withdrawComplete(address)": {
        "notice": "Complete claimable withdrawals, processing all records by default"
      },
      "withdrawComplete(address,uint256)": {
        "notice": "Complete claimable withdrawals in batches to control single-call gas"
      },
      "withdrawComplete(uint256)": {
        "notice": "Complete claimable withdrawals in batches, paying the caller by default"
      },
      "withdrawalHead(address)": {
        "notice": "Withdraw queue head index per user (inclusive)"
      },
      "withdrawalTail(address)": {
        "notice": "Withdraw queue tail index per user (exclusive)"
      }
    },
    "version": 1
  },
  "argsData": "0x",
  "transaction": {
    "hash": "0x5f43c7a47429700b567ee5f3f7f5cb68aa52c573cbb879da71e474972748f12c",
    "nonce": "0x38",
    "origin": "0x4597c97a43dfbb4a398e2b16aa9ce61f90d801dd"
  }
}